:020000040000FA
:0400000007EF00F016
:0A0008007F825EED12F0A4EF1AF003
:05100000002575000051
:101006000001AA51800BB36FAA51AA25B56FA9AFEB
:101016000FEF08F011EF08F012EF08F0B581B551A7
:10102600D8B418EF08F01AEF08F02EEF08F0B5293B
:10103600D8A420EF08F022EF08F02AEF08F0000EFF
:10104600A76F000EA86F000EA96F000EAA6FA98FDA
:10105600AA6B36EF08F0000EA76F000EA86F000E01
:10106600A96F000EAA6FAE51800BB46FB351B419BD
:10107600D8B440EF08F042EF08F043EF08F0B38D24
:10108600AE51AE25B46FADAF4BEF08F04DEF08F0A3
:101096004EEF08F0B481B451D8B454EF08F056EFCF
:1010A60008F06AEF08F0B429D8A45CEF08F05EEF08
:1010B60008F066EF08F0000EAB6F000EAC6F000E86
:1010C600AD6F000EAE6FAD8FAE6B72EF08F0000E17
:1010D600AB6F000EAC6F000EAD6F000EAE6FB5516C
:1010E600B45DD8B079EF08F07BEF08F0A2EF08F016
:1010F600B3AD80EF08F082EF08F084EF08F0800EC1
:10110600B31BB5C0B6F0B4C0B5F0B6C0B4F0A7C056
:10111600B6F0ABC0A7F0B6C0ABF0A8C0B6F0ACC096
:10112600A8F0B6C0ACF0A9C0B6F0ADC0A9F0B6C084
:10113600ADF0AAC0B6F0AEC0AAF0B6C0AEF0B66BBF
:10114600B551B4C0AFF0B06BAF5F000EB05BB0BFCF
:10115600B6EF08F0B05109E11A0EAF5DD8A0B6EFB0
:1011660008F0B8EF08F0EFEF08F0A751A811A911A1
:10117600AA11D8A4C1EF08F0C4EF08F0010EC5EF1C
:1011860008F0000EB66F000EA76F000EA86F000ED7
:10119600A96F000EAA6FB4C0B5F0F8EF08F0B6A1BB
:1011A600D7EF08F0D9EF08F0DFEF08F0D890B631A6
:1011B6000109B66FE1EF08F0D890B633A7A1E6EFC4
:1011C60008F0E8EF08F0E9EF08F0B68FAA35AA3381
:1011D600A933A833A733B52BB451B55DD8A0F6EF24
:1011E60008F0F8EF08F0D2EF08F0B3BDFDEF08F015
:1011F600FFEF08F03FEF09F0B551D8A405EF09F06D
:1012060007EF09F011EF09F0000EA76F000EA86FA7
:10121600000EA96F000EAA6F5EEF0AF0AB51A7276A
:10122600AC51A823AD51A923AE51AA23AAA11EEF02
:1012360009F020EF09F0CCEF09F0B6A125EF09F08F
:1012460027EF09F02DEF09F0D890B6310109B66FF6
:101256002FEF09F0D890B633A7A134EF09F036EF97
:1012660009F037EF09F0B68FAA35AA33A933A833A8
:10127600A733B52BCCEF09F0AB51A75DAC51A859FC
:10128600AD51A959AA51800AAF6FAE51800AAF5924
:10129600D8B050EF09F052EF09F07DEF09F0A751F1
:1012A600AB5DAF6FA851AC59B06FA951AD59B16FD5
:1012B600AA51AE59B26FFF0EAF25A76FFF0EB02130
:1012C600A86FFF0EB121A96FFF0EB221AA6F800E83
:1012D600B31BB66DB651D8A473EF09F075EF09F0DC
:1012E60085EF09F0010EA727000EA823A923AA233C
:1012F60085EF09F0AB51A75FAC51A85BAD51A95B77
:10130600AE51AA5BA751A811A911AA11D8A48EEFB4
:1013160009F090EF09F0C5EF09F0B651D8A496EFA1
:1013260009F098EF09F0C5EF09F0000EA76F000E5F
:10133600A86F000EA96F000EAA6F5EEF0AF0D89094
:10134600A737A837A937AA37B6AFACEF09F0AEEF83
:1013560009F0AFEF09F0A781B6A1B4EF09F0B6EF37
:1013660009F0BAEF09F0D880B637BCEF09F0D8908B
:10137600B637B551D8B4C2EF09F0C4EF09F0C5EFDE
:1013860009F0B507A9AFCAEF09F0CCEF09F0A2EF53
:1013960009F0B46BB6AFD2EF09F0D4EF09F0ECEF79
:1013A60009F0B6C0AFF07F0EAF17D8B4DDEF09F085
:1013B600DFEF09F0E3EF09F0010EB46FECEF09F08F
:1013C600A7A1E8EF09F0EAEF09F0ECEF09F0DFEF8B
:1013D60009F0B451D8B4F2EF09F0F4EF09F01FEFB9
:1013E6000AF0010EA727000EA823A923AA23AAA163
:1013F600FFEF09F001EF0AF01FEF0AF0A7C0AFF008
:10140600A8C0B0F0A9C0B1F0AAC0B2F0B235B233EC
:10141600B133B033AF33AFC0A7F0B0C0A8F0B1C09E
:10142600A9F0B2C0AAF0B529D8B41CEF0AF01EEF95
:101436000AF01FEF0AF0B52BB529D8B425EF0AF04C
:1014460027EF0AF02FEF0AF0B551D8A42DEF0AF0D6
:101456002FEF0AF040EF0AF0000EA76F000EA86FFC
:10146600000EA96F000EAA6FB551D8A43DEF0AF081
:101476003FEF0AF040EF0AF0B36BB5A145EF0AF073
:1014860047EF0AF04AEF0AF0A98F4BEF0AF0A99F3F
:10149600D890B531AA6FB3AF53EF0AF055EF0AF003
:1014A60056EF0AF0AA8FA7C0A7F0A8C0A8F0A9C057
:1014B600A9F0AAC0AAF012000450800B0D6E0450C9
:1014C60004240F6E03AE6AEF0AF06CEF0AF06DEFBC
:1014D6000AF00F800F50D8B473EF0AF075EF0AF0D8
:1014E60089EF0AF00F28D8A47BEF0AF07DEF0AF007
:1014F60085EF0AF0000E016E000E026E000E036EFE
:10150600000E046E038E046A91EF0AF0000E016E5F
:10151600000E026E000E036E000E046E0850800B65
:101526000E6E0D500E18D8B49BEF0AF09DEF0AF020
:101536009EEF0AF00D8C085008240E6E07AEA6EF3B
:101546000AF0A8EF0AF0A9EF0AF00E800E50D8B400
:10155600AFEF0AF0B1EF0AF0C5EF0AF00E28D8A4F3
:10156600B7EF0AF0B9EF0AF0C1EF0AF0000E056E08
:10157600000E066E000E076E000E086E078E086AD5
:10158600CDEF0AF0000E056E000E066E000E076E19
:10159600000E086E0F500E5CD8B0D4EF0AF0D6EFEE
:1015A6000AF0FDEF0AF00DACDBEF0AF0DDEF0AF012
:1015B600DFEF0AF0800E0D1A0FC010F00EC00FF00C
:1015C60010C00EF001C010F005C001F010C005F00B
:1015D60002C010F006C002F010C006F003C010F002
:1015E60007C003F010C007F004C010F008C004F0F4
:1015F60010C008F0106A0F500EC009F00A6A095EA2
:10160600000E0A5A0ABE11EF0BF00A5009E11A0E33
:10161600095CD8A011EF0BF013EF0BF04AEF0BF0BB
:101626000150021003100410D8A41CEF0BF01FEF9A
:101636000BF0010E20EF0BF0000E106E000E016E87
:10164600000E026E000E036E000E046E0EC00FF04A
:1016560053EF0BF010A032EF0BF034EF0BF03AEF34
:101666000BF0D89010300109106E3CEF0BF0D890BB
:10167600103201A041EF0BF043EF0BF044EF0BF0FB
:10168600108E043404320332023201320F2A0E5015
:101696000F5CD8A051EF0BF053EF0BF02DEF0BF0D2
:1016A6000DBC58EF0BF05AEF0BF09AEF0BF00F5002
:1016B600D8A460EF0BF062EF0BF06CEF0BF0000EAE
:1016C600016E000E026E000E036E000E046EB9EF80
:1016D6000CF005500126065002220750032208503E
:1016E600042204A079EF0BF07BEF0BF027EF0CF050
:1016F60010A080EF0BF082EF0BF088EF0BF0D89084
:1017060010300109106E8AEF0BF0D890103201A04C
:101716008FEF0BF091EF0BF092EF0BF0108E04347D
:1017260004320332023201320F2A27EF0CF0055041
:10173600015C06500258075003580450800A096E8F
:101746000850800A0958D8B0ABEF0BF0ADEF0BF09C
:10175600D8EF0BF00150055C096E025006580A6E70
:10176600035007580B6E045008580C6EFF0E0924E0
:10177600016EFF0E0A20026EFF0E0B20036EFF0E97
:101786000C20046E800E0D1A106C1050D8A4CEEFEB
:101796000BF0D0EF0BF0E0EF0BF0010E0126000E80
:1017A600022203220422E0EF0BF00550015E0650F0
:1017B600025A0750035A0850045A015002100310E7
:1017C6000410D8A4E9EF0BF0EBEF0BF020EF0CF0D0
:1017D6001050D8A4F1EF0BF0F3EF0BF020EF0CF064
:1017E600000E016E000E026E000E036E000E046EF9
:1017F600B9EF0CF0D890013602360336043610AE37
:1018060007EF0CF009EF0CF00AEF0CF0018010A0C6
:101816000FEF0CF011EF0CF015EF0CF0D88010362E
:1018260017EF0CF0D89010360F50D8B41DEF0CF00F
:101836001FEF0CF020EF0CF00F0603AE25EF0CF0B7
:1018460027EF0CF0FDEF0BF00E6A10AE2DEF0CF04B
:101856002FEF0CF047EF0CF010C009F07F0E0916C1
:10186600D8B438EF0CF03AEF0CF03EEF0CF0010E66
:101876000E6E47EF0CF001A043EF0CF045EF0CF0B5
:1018860047EF0CF03AEF0CF00E50D8B44DEF0CF0D9
:101896004FEF0CF07AEF0CF0010E0126000E02223B
:1018A6000322042204A05AEF0CF05CEF0CF07AEF4E
:1018B6000CF001C009F002C00AF003C00BF004C02E
:1018C6000CF00C340C320B320A32093209C001F02A
:1018D6000AC002F00BC003F00CC004F00F28D8B405
:1018E60077EF0CF079EF0CF07AEF0CF00F2A0F2857
:1018F600D8B480EF0CF082EF0CF08AEF0CF00F50AA
:10190600D8A488EF0CF08AEF0CF09BEF0CF0000ED9
:10191600016E000E026E000E036E000E046E0F5076
:10192600D8A498EF0CF09AEF0CF09BEF0CF00D6A30
:101936000FA0A0EF0CF0A2EF0CF0A5EF0CF0038EB9
:10194600A6EF0CF0039ED8900F30046E0DAEAEEFEE
:101956000CF0B0EF0CF0B1EF0CF0048E01C001F00A
:1019660002C002F003C003F004C004F012003350BA
:10197600800B3C6E33503324426E32AEC5EF0CF012
:10198600C7EF0CF0C8EF0CF042804250D8B4CEEF4F
:101996000CF0D0EF0CF0E3EF0CF04228D8A4D6EF11
:1019A6000CF0D8EF0CF0E0EF0CF0000E306E000EED
:1019B600316E000E326E000E336E328EEBEF0CF08F
:1019C600000E306E000E316E000E326E000E336E5B
:1019D6003750800B3C1A37503724416E36AEF6EF3F
:1019E6000CF0F8EF0CF0F9EF0CF041804150D8B450
:1019F600FFEF0CF001EF0DF014EF0DF04128D8A425
:101A060007EF0DF009EF0DF011EF0DF0000E346E3B
:101A1600000E356E000E366E000E376E368E1CEFDB
:101A26000DF0000E346E000E356E000E366E000E92
:101A3600376E4150D8B422EF0DF024EF0DF02CEFA5
:101A46000DF04250D8A42AEF0DF02CEF0DF036EF32
:101A56000DF0000E306E000E316E000E326E000E6E
:101A6600336ECCEF0EF036503002F3CF47F0F4CFA2
:101A760048F047503D6E3E6A3F6A406A4850436EA2
:101A8600446A456A466A35503102F3CF47F0F4CFCF
:101A960048F047503D26000E3E223F224022485045
:101AA6004326000E44224522462234503202F3CF0A
:101AB60047F0F4CF48F047503D26000E3E223F2225
:101AC600402248504326000E4422452246223FC06B
:101AD60040F03EC03FF03DC03EF03D6A345031021A
:101AE600F3CF47F0F4CF48F047503D2648503E220A
:101AF600000E3F22000E402235503002F3CF47F051
:101B0600F4CF48F047503D2648503E22000E3F2273
:101B1600000E40223FC040F03EC03FF03DC03EF0C8
:101B26003D6A34503002F3CF47F0F4CF48F04750C7
:101B36003D2648503E22000E3F22000E40223650DF
:101B46003102F3CF47F0F4CF48F0475043264850D0
:101B56004422000E4522000E462235503202F3CFB3
:101B660047F0F4CF48F04750432648504422000E31
:101B76004522000E462236503202F3CF47F0F4CF0C
:101B860048F04750386E4850396E3A6A3B6A3AC058
:101B96003BF039C03AF038C039F0386A385043263D
:101BA600395044223A5045223B5046223DC038F037
:101BB6003EC039F03FC03AF040C03BF0190EE9EFA5
:101BC6000DF0D8903B323A3239323832E82EE4EF13
:101BD6000DF038504326395044223A5045223B50A6
:101BE60046223FC040F03EC03FF03DC03EF03D6A59
:101BF600415042C038F0396A3826000E3922820E2A
:101C06003824476EFF0E3920486E1FEF0EF0D8902D
:101C1600433644364536463640AE14EF0EF016EFE0
:101C26000EF017EF0EF04380D8903D363E363F3625
:101C360040364706D8A0480645AE24EF0EF026EFFC
:101C46000EF00AEF0EF0416A40AE2CEF0EF02EEFCA
:101C56000EF052EF0EF0FF0E3D14386EFF0E3E14DE
:101C6600396EFF0E3F143A6E7F0E40143B6E3850AD
:101C760039103A103B10D8B443EF0EF045EF0EF092
:101C860049EF0EF0010E416E52EF0EF043A04EEFFB
:101C96000EF050EF0EF052EF0EF045EF0EF0415001
:101CA600D8B458EF0EF05AEF0EF07EEF0EF0010E9C
:101CB6004326000E44224522462246A065EF0EF03A
:101CC60067EF0EF07EEF0EF043C038F044C039F0F7
:101CD60045C03AF046C03BF03B343B323A323932EB
:101CE600383238C043F039C044F03AC045F03BC002
:101CF60046F0474A482A48BE89EF0EF0485008E1A8
:101D06004728D8A089EF0EF08BEF0EF095EF0EF076
:101D1600000E436E000E446E800E456E7F0E466EBC
:101D2600C2EF0EF048BEA2EF0EF0485006E147049F
:101D3600D8B0A0EF0EF0A2EF0EF0ADEF0EF0000E51
:101D4600436E000E446E000E456E000E466E3C6AF3
:101D5600C2EF0EF047C042F0FF0E4316FF0E4416C8
:101D66007F0E4516000E461642A0BCEF0EF0BEEFE3
:101D76000EF0BFEF0EF0458ED8904230466E3C50C6
:101D8600461243C030F044C031F045C032F046C080
:101D960033F0120000019151800B9E6F91519125F5
:101DA600A56F90AFD9EF0EF0DBEF0EF0DCEF0EF083
:101DB600A581A551D8B4E2EF0EF0E4EF0EF0F8EFEE
:101DC6000EF0A529D8A4EAEF0EF0ECEF0EF0F4EF32
:101DD6000EF0000E8E6F000E8F6F000E906F000ECD
:101DE600916F908F916B00EF0FF0000E8E6F000ECB
:101DF6008F6F000E906F000E916F9551800B9E1B9A
:101E060095519525A66F94AF0BEF0FF00DEF0FF0E0
:101E16000EEF0FF0A681A651D8B414EF0FF016EF0F
:101E26000FF02AEF0FF0A629D8A41CEF0FF01EEF33
:101E36000FF026EF0FF0000E926F000E936F000E5C
:101E4600946F000E956F948F956B32EF0FF0000E26
:101E5600926F000E936F000E946F000E956F925165
:101E6600931194119511D8A43BEF0FF03DEF0FF0AD
:101E760055EF0FF0000E8E6F000E8F6F000E906FF5
:101E8600000E916F800E90137F0E91139E51911349
:101E96008EC08EF08FC08FF090C090F091C091F000
:101EA60095EF10F0A551D8A45BEF0FF05DEF0FF0A2
:101EB60067EF0FF0000E8E6F000E8F6F000E906FA3
:101EC600000E916F95EF10F0A651A5C096F0976B96
:101ED600965F000E975B7F0E96259F6F000E9721EB
:101EE600A06F8EC09AF08FC09BF090C09CF091C0FE
:101EF6009DF0000E8E6F000E8F6F000E906F000E1D
:101F0600916F000EA16F000EA26F000EA36F000E60
:101F1600A46FA66BC7EF0FF0A651D8B495EF0FF0DC
:101F260097EF0FF0AEEF0FF0D8909A379B379C37AC
:101F36009D37D8908E378F3790379137A4AFA6EF5D
:101F46000FF0A8EF0FF0A9EF0FF08E81D890A13710
:101F5600A237A337A43792519A5D93519B59945156
:101F66009C5995519D59D8A0BBEF0FF0BDEF0FF0CE
:101F7600C6EF0FF0A48D92519A5F93519B5B9451DB
:101F86009C5B95519D5BA62B190EA665CDEF0FF0B8
:101F9600CFEF0FF08FEF0FF09A519B119C119D110F
:101FA600D8B4D8EF0FF0DAEF0FF0F2EF0FF0A1810F
:101FB600F2EF0FF0D8908E378F3790379137A4AF66
:101FC600E7EF0FF0E9EF0FF0EAEF0FF08E81D89010
:101FD600A137A237A337A4379F07D8A0A00790AF91
:101FE600F7EF0FF0F9EF0FF0DDEF0FF0A66BA4AFF0
:101FF600FFEF0FF001EF10F025EF10F0FF0EA11527
:10200600966FFF0EA215976FFF0EA315986F7F0EA2
:10201600A415996F9651971198119911D8B416EF86
:1020260010F018EF10F01CEF10F0010EA66F25EF60
:1020360010F08EA121EF10F023EF10F025EF10F035
:1020460018EF10F0A651D8B42BEF10F02DEF10F0CA
:1020560051EF10F0010E8E27000E8F23902391234F
:1020660091A138EF10F03AEF10F051EF10F08EC05A
:1020760096F08FC097F090C098F091C099F099357E
:10208600993398339733963396C08EF097C08FF076
:1020960098C090F099C091F09F4BA02BA0BF5CEF29
:1020A60010F0A05108E19F29D8A05CEF10F05EEF78
:1020B60010F069EF10F0000EA06F9F69000E8E6F92
:1020C600000E8F6F000E906F000E916FA0BF76EF1F
:1020D60010F0A05106E19F05D8B074EF10F076EF2E
:1020E60010F083EF10F0000EA06F000E9F6F000E31
:1020F6008E6F000E8F6F000E906F000E916F9E6BAD
:102106009FC0A5F0A5A18AEF10F08CEF10F08FEF1D
:1021160010F0908F90EF10F0909FD890A531916FAE
:1021260049EF0FF012001250800B1F6E125012244E
:10213600266E11AEA1EF10F0A3EF10F0A4EF10F091
:1021460026802650D8B4AAEF10F0ACEF10F0C0EFFE
:1021560010F02628D8A4B2EF10F0B4EF10F0BCEFC0
:1021660010F0000E0F6E000E106E000E116E000EB7
:10217600126E118E126AC8EF10F0000E0F6E000E6E
:10218600106E000E116E000E126E1650800B1F1A86
:1021960016501624276E15AED3EF10F0D5EF10F0BB
:1021A600D6EF10F027802750D8B4DCEF10F0DEEF22
:1021B60010F0F2EF10F02728D8A4E4EF10F0E6EFC5
:1021C60010F0EEEF10F0000E136E000E146E000EFF
:1021D600156E000E166E158E166AFAEF10F0000ECA
:1021E600136E000E146E000E156E000E166E135052
:1021F600141015101610D8A403EF11F005EF11F006
:102206001DEF11F0000E0F6E000E106E000E116E17
:10221600000E126E800E11127F0E12121F50121235
:102226000FC00FF010C010F011C011F012C012F064
:102236005DEF12F02650D8A423EF11F025EF11F030
:102246002FEF11F0000E0F6E000E106E000E116EC5
:10225600000E126E5DEF12F0275026C017F0186AB6
:10226600175E000E185A7F0E1724206E000E1820D7
:10227600216E0FC01BF010C01CF011C01DF012C063
:102286001EF0000E0F6E000E106E000E116E000E88
:10229600126E000E226E000E236E000E246E000ECD
:1022A600256E276A8FEF11F02750D8B45DEF11F035
:1022B6005FEF11F076EF11F0D8901B361C361D3605
:1022C6001E36D8900F3610361136123625AE6EEF02
:1022D60011F070EF11F071EF11F00F80D8902236E7
:1022E60023362436253613501B5C14501C581550C3
:1022F6001D5816501E58D8A083EF11F085EF11F027
:102306008EEF11F0258C13501B5E14501C5A15507D
:102316001D5A16501E5A272A190E276495EF11F0DA
:1023260097EF11F057EF11F01B501C101D101E10E7
:10233600D8B4A0EF11F0A2EF11F0BAEF11F022809D
:10234600BAEF11F0D8900F3610361136123625AE88
:10235600AFEF11F0B1EF11F0B2EF11F00F80D8909E
:1023660022362336243625362006D8A0210611AE7D
:10237600BFEF11F0C1EF11F0A5EF11F0276A25AEFE
:10238600C7EF11F0C9EF11F0EDEF11F0FF0E2214B7
:10239600176EFF0E2314186EFF0E2414196E7F0E8F
:1023A60025141A6E1750181019101A10D8B4DEEF2B
:1023B60011F0E0EF11F0E4EF11F0010E276EEDEFF2
:1023C60011F00FA0E9EF11F0EBEF11F0EDEF11F0C6
:1023D600E0EF11F02750D8B4F3EF11F0F5EF11F05C
:1023E60019EF12F0010E0F26000E102211221222F2
:1023F60012A000EF12F002EF12F019EF12F00FC068
:1024060017F010C018F011C019F012C01AF01A34E3
:102416001A3219321832173217C00FF018C010F0DE
:1024260019C011F01AC012F0204A212A21BE24EF49
:1024360012F0215008E12028D8A024EF12F026EF50
:1024460012F031EF12F0000E216E2068000E0F6EB2
:10245600000E106E000E116E000E126E21BE3EEFC3
:1024660012F0215006E12004D8B03CEF12F03EEF06
:1024760012F04BEF12F0000E216E000E206E000ED1
:102486000F6E000E106E000E116E000E126E1F6A99
:1024960020C026F026A052EF12F054EF12F057EFAC
:1024A60012F0118E58EF12F0119ED8902630126E4F
:1024B60011EF11F012000600FACF55F0FBCF56F0DF
:1024C600D9CF57F0DACF58F0F3CF59F0F4CF5AF00E
:1024D600F2A870EF12F072EF12F07BEF12F0F2A298
:1024E60077EF12F079EF12F07BEF12F076EC1EF038
:1024F600F2A680EF12F082EF12F09BEF12F0F2A03C
:1025060087EF12F089EF12F09BEF12F081A88EEFA1
:1025160012F090EF12F09BEF12F07504D8A496EF2C
:1025260012F098EF12F09BEF12F0756A72EC1EF043
:10253600F2A6A0EF12F0A2EF12F0BCEF12F0F2A09A
:10254600A7EF12F0A9EF12F0BCEF12F081B8AEEFD0
:1025560012F0B0EF12F0BCEF12F07550D8A4B6EF3F
:1025660012F0B8EF12F0BCEF12F0010E756E74ECBB
:102576001EF0F2A6C1EF12F0C3EF12F0DCEF12F07C
:10258600F2A0C8EF12F0CAEF12F0DCEF12F081AA47
:10259600CFEF12F0D1EF12F0DCEF12F07604D8A4F0
:1025A600D7EF12F0D9EF12F0DCEF12F0766A6EEC8C
:1025B6001EF0F2A6E1EF12F0E3EF12F0FDEF12F0DB
:1025C600F2A0E8EF12F0EAEF12F0FDEF12F081BA96
:1025D600EFEF12F0F1EF12F0FDEF12F07650D8A403
:1025E600F7EF12F0F9EF12F0FDEF12F0010E766E32
:1025F60070EC1EF0F2A602EF13F004EF13F01DEFDD
:1026060013F0F2A009EF13F00BEF13F01DEF13F028
:1026160081AC10EF13F012EF13F01DEF13F07704F7
:10262600D8A418EF13F01AEF13F01DEF13F0776A22
:102636006AEC1EF0F2A622EF13F024EF13F03EEF41
:1026460013F0F2A029EF13F02BEF13F03EEF13F087
:1026560081BC30EF13F032EF13F03EEF13F07750FA
:10266600D8A438EF13F03AEF13F03EEF13F0010E53
:10267600776E6CEC1EF0A1A843EF13F045EF13F054
:102686004EEF13F0A0A84AEF13F04CEF13F04EEF05
:1026960013F04EEC1EF09EAC53EF13F055EF13F013
:1026A6005EEF13F09DAC5AEF13F05CEF13F05EEFA4
:1026B60013F054EC1EF0F2A463EF13F065EF13F081
:1026C6006EEF13F0F2AA6AEF13F06CEF13F06EEFF1
:1026D60013F0F9EC1DF09EA073EF13F075EF13F0F5
:1026E6007EEF13F09DA07AEF13F07CEF13F07EEFF0
:1026F60013F0D5EC1DF09EA283EF13F085EF13F0D7
:102706008EEF13F09DA28AEF13F08CEF13F08EEF8D
:1027160013F042EC1EF0A1A293EF13F095EF13F025
:102726009EEF13F0A0A29AEF13F09CEF13F09EEF2A
:1027360013F0C3EC1DF09EA4A3EF13F0A5EF13F066
:10274600AEEF13F09DA4AAEF13F0ACEF13F0AEEFCB
:1027560013F0E7EC1DF09EA8B3EF13F0B5EF13F0FE
:10276600BEEF13F09DA8BAEF13F0BCEF13F0BEEF67
:1027760013F0ACEC1DF09EAAC3EF13F0C5EF13F0F7
:10278600CEEF13F09DAACAEF13F0CCEF13F0CEEF05
:1027960013F093EC1DF05AC0F4FF59C0F3FF58C074
:1027A600DAFF57C0D9FF56C0FBFF55C0FAFF7F922C
:1027B60011000001B751B811D8A4E4EF13F0E6EF09
:1027C60013F0E8EF13F02BEF15F0B7C0D9FFB8C040
:1027D600DAFFDE04D8B4F2EF13F0F4EF13F001EFF2
:1027E60014F0B7C0D9FFB8C0DAFF020EDE18D8A4BD
:1027F600FFEF13F001EF14F061EF14F020EE01F09B
:10280600B751D926B851DA22DECF80F0DECF81F07B
:10281600DECF82F0DECF83F0000E2CEC15F080C008
:1028260092F081C093F082C094F083C095F0000EC0
:1028360000018E6F240E8F6FF40E906F4A0E916F0B
:10284600CDEC0EF08EC0BBF08FC0BCF090C0BDF0DA
:1028560091C0BEF0000E0001926F000E936F800EC5
:10286600946F410E956FBBC08EF0BCC08FF0BDC09B
:1028760090F0BEC091F0CDEC0EF08EC0A7F08FC0E8
:10288600A8F090C0A9F091C0AAF0000E0001AB6FAD
:10289600000EAC6F800EAD6FBF0EAE6F03EC08F08E
:1028A6000001B951D96EDA6AA7C0DEFFA8C0DEFF03
:1028B600A9C0DEFFAAC0DEFF2BEF15F0B7C0D9FF17
:1028C600B8C0DAFFDF50D8A46BEF14F06DEF14F048
:1028D600CDEF14F020EE01F0B751D926B851DA2227
:1028E600DECF80F0DECF81F0DECF82F0DECF83F068
:1028F600000E2CEC15F080C092F081C093F082C0DF
:1029060094F083C095F0000E00018E6F240E8F6F39
:10291600F40E906F4A0E916FCDEC0EF08EC0BBF0A8
:102926008FC0BCF090C0BDF091C0BEF0000E00019B
:10293600926F000E936F800E946F420E956FBBC020
:102946008EF0BCC08FF0BDC090F0BEC091F0CDEC53
:102956000EF08EC0A7F08FC0A8F090C0A9F091C06D
:10296600AAF0000E0001AB6F000EAC6F800EAD6FCB
:10297600BF0EAE6F03EC08F00001B951D96EDA6AEA
:10298600A7C0DEFFA8C0DEFFA9C0DEFFAAC0DEFF2B
:102996002BEF15F020EE01F0B751D926B851DA2207
:1029A600DECF80F0DECF81F0DECF82F0DECF83F0A7
:1029B600000E2CEC15F080C092F081C093F082C01E
:1029C60094F083C095F0000E00018E6F240E8F6F79
:1029D600F40E906F4A0E916FCDEC0EF08EC0BBF0E8
:1029E6008FC0BCF090C0BDF091C0BEF0000E0001DB
:1029F600926F000E936F800E946F400E956FBBC062
:102A06008EF0BCC08FF0BDC090F0BEC091F0CDEC92
:102A16000EF08EC0A7F08FC0A8F090C0A9F091C0AC
:102A2600AAF0000E0001AB6F000EAC6F800EAD6F0A
:102A3600BF0EAE6F03EC08F00001B951D96EDA6A29
:102A4600A7C0DEFFA8C0DEFFA9C0DEFFAAC0DEFF6A
:102A560012000001886F00018851D8B435EF15F0D7
:102A660037EF15F059EF15F083BF3EEF15F03CEF49
:102A760015F059EF15F080C084F081C085F082C052
:102A860086F083C087F0841F851F861F871F842BCF
:102A9600000E85238623872384C08AF085C08BF0A9
:102AA60086C08CF087C08DF061EF15F080C08AF08B
:102AB60081C08BF082C08CF083C08DF08051811173
:102AC60082118311D8A46AEF15F06CEF15F076EF3A
:102AD60015F0000E806F000E816F000E826F000EE3
:102AE600836F07EF16F0960E896F80EF15F0892B2E
:102AF600D8908D338C338B338A33000E8A15846FCE
:102B0600000E8B15856F000E8C15866FFE0E8D15CB
:102B1600876F8451851186118711D8A495EF15F01A
:102B260097EF15F07AEF15F0A5EF15F0892B010E4A
:102B36008A27000E8B238C238D23D8908D338C33DC
:102B46008B338A33000E8A15846F000E8B15856FC2
:102B5600000E8C15866FFF0E8D15876F84518511BB
:102B660086118711D8A4BAEF15F0BCEF15F099EFCE
:102B760015F0C4EF15F08907D8908A378B378C3754
:102B86008D378CBFC9EF15F0CBEF15F0D3EF15F0ED
:102B9600020E8961D1EF15F0D3EF15F0BEEF15F0F7
:102BA60089B1D8EF15F0DAEF15F0DBEF15F08C9F51
:102BB600D890893389C084F0856B866B876B84C017
:102BC60087F0866B856B846B84518A1385518B13D2
:102BD60086518C1387518D138851D8B4F5EF15F0B3
:102BE600F7EF15F0FFEF15F083BFFEEF15F0FCEFE2
:102BF60015F0FFEF15F08D8F8AC080F08BC081F045
:102C06008CC082F08DC083F01200096E0950D8B4D2
:102C16000FEF16F011EF16F033EF16F004BE18EFB3
:102C260016F016EF16F033EF16F001C005F002C0ED
:102C360006F003C007F004C008F0051E061E071EB6
:102C4600081E052A000E06220722082205C00BF0E0
:102C560006C00CF007C00DF008C00EF03BEF16F0F2
:102C660001C00BF002C00CF003C00DF004C00EF062
:102C76000150021003100410D8A444EF16F046EFDA
:102C860016F050EF16F0000E016E000E026E000EEA
:102C9600036E000E046EE1EF16F0960E0A6E5AEF02
:102CA60016F00A2AD8900E320D320C320B32000E74
:102CB6000B14056E000E0C14066E000E0D14076E36
:102CC600FE0E0E14086E0550061007100810D8A444
:102CD6006FEF16F071EF16F054EF16F07FEF16F067
:102CE6000A2A010E0B26000E0C220D220E22D89067
:102CF6000E320D320C320B32000E0B14056E000E26
:102D06000C14066E000E0D14076EFF0E0E14086EE0
:102D16000550061007100810D8A494EF16F096EF89
:102D260016F073EF16F09EEF16F00A06D8900B36E3
:102D36000C360D360E360DBEA3EF16F0A5EF16F0C7
:102D4600ADEF16F0020E0A60ABEF16F0ADEF16F01F
:102D560098EF16F00AB0B2EF16F0B4EF16F0B5EF32
:102D660016F00D9ED8900A320AC005F0066A076A68
:102D7600086A05C008F0076A066A056A05500B125C
:102D860006500C1207500D1208500E120950D8B4F6
:102D9600CFEF16F0D1EF16F0D9EF16F004BED8EF4C
:102DA60016F0D6EF16F0D9EF16F00E8E0BC001F026
:102DB6000CC002F00DC003F00EC004F01200B26A9F
:102DC600B36A7050D8A4EAEF16F0ECEF16F049EFAC
:102DD60017F0000E136E000E146EC80E156E420E1E
:102DE600166E7150016E026A036A046A010E08ECDF
:102DF60016F001C00FF002C010F003C011F004C0BD
:102E060012F096EC10F00FC02CF010C02DF011C08F
:102E16002EF012C02FF0000E286E000E296E800EC6
:102E26002A6E3F0E2B6E6AEC1CF028C034F029C0C7
:102E360035F02AC036F02BC037F079C001F07AC0E1
:102E460002F07BC003F07CC004F0000E08EC16F024
:102E560001C030F002C031F003C032F004C033F0DC
:102E6600BAEC0CF030C049F031C04AF032C04BF039
:102E760033C04CF0B7EC18F049C053F04AC054F0D8
:102E86005FEC1EF0010E706E99EF17F07004D8A477
:102E96004FEF17F051EF17F099EF17F0000E136E82
:102EA600000E146EC80E156E420E166E7150016E2F
:102EB600026A036A046A010E08EC16F001C00FF0FC
:102EC60002C010F003C011F004C012F096EC10F02E
:102ED6000FC034F010C035F011C036F012C037F014
:102EE60079C001F07AC002F07BC003F07CC004F028
:102EF600000E08EC16F001C030F002C031F003C03D
:102F060032F004C033F0BAEC0CF030C049F031C0F6
:102F16004AF032C04BF033C04CF0B7EC18F049C061
:102F260053F04AC054F05FEC1EF0706A1200010EB6
:102F36000001866F8051D8B4A3EF17F0A5EF17F004
:102F4600C3EF17F08051D96EDA6ADF30E832E83223
:102F5600070B816F080E8161B3EF17F0B5EF17F01D
:102F6600C3EF17F08051D96EDA6ADF50070B816F15
:102F7600040E8165C1EF17F0C3EF17F01BEF18F0D1
:102F8600866B31EF18F08051D96EDA6ADF30E8329D
:102F9600E832070B816F010E826F812BD5EF17F098
:102FA600D8908237812FD3EF17F000018251FF0AA4
:102FB600836F8051D96EDA6ADF50070B020DF3502A
:102FC600EB0FD96EDA6ADECF84F0DDCF85F084C0F0
:102FD600D9FF85C0DAFF8351DF1631EF18F0805133
:102FE600D96EDA6ADF30E832E832070B816F010EFC
:102FF600826F812B01EF18F0D8908237812FFFEF77
:1030060017F000018051D96EDA6ADF50070B020D06
:10301600F350EB0FD96EDA6ADECF83F0DDCF84F0A2
:1030260083C0D9FF84C0DAFF8251DF1231EF18F076
:103036008051D96EDA6ADFBC23EF18F026EF18F05C
:10304600010E27EF18F0000E000AD8B4C6EF17F0ED
:10305600010AD8B4F2EF17F0C3EF17F08651120049
:10306600000182358335896F8951D8A43DEF18F068
:103076003FEF18F049EF18F0000E806F000E816FD9
:10308600000E826F000E836FB6EF18F080C084F0DA
:1030960081C085F082C086F083C087F0200E59EF8C
:1030A60018F0D8908733863385338433E82E54EF6F
:1030B60018F08451886F828FFF0E8017FF0E8117DC
:1030C600FF0E8217000E8317960E895F89BF70EF79
:1030D60018F06EEF18F086EF18F08951800A970FF6
:1030E600D8B078EF18F07AEF18F07CEF18F03FEFD1
:1030F60018F0D8908333823381338033893F7CEF55
:1031060018F09EEF18F01F0E89658CEF18F08EEF01
:1031160018F096EF18F03FEF18F0D8908037813707
:103126008237833789078951D8A49CEF18F09EEF20
:1031360018F090EF18F08851D8B4A4EF18F0A6EF65
:1031460018F0AEEF18F0831F821F811F806D000EEE
:1031560081238223832380C080F081C081F082C0D6
:1031660082F083C083F012004B344C34526E5250BE
:10317600D8A4C0EF18F0C2EF18F0CCEF18F0000E8C
:10318600496E000E4A6E000E4B6E000E4C6E39EF05
:1031960019F049C04DF04AC04EF04BC04FF04CC03C
:1031A60050F0200EDCEF18F0D89050324F324E32ED
:1031B6004D32E82ED7EF18F04D50516E4B8EFF0E64
:1031C6004916FF0E4A16FF0E4B16000E4C16960EAB
:1031D600525E52BEF3EF18F0F1EF18F009EF19F056
:1031E6005250800A970FD8B0FBEF18F0FDEF18F099
:1031F600FFEF18F0C2EF18F0D8904C324B324A323B
:103206004932523EFFEF18F021EF19F01F0E5264BB
:103216000FEF19F011EF19F019EF19F0C2EF18F0CE
:10322600D89049364A364B364C3652065250D8A4B8
:103236001FEF19F021EF19F013EF19F05150D8B420
:1032460027EF19F029EF19F031EF19F04C1E4B1E3C
:103256004A1E496C000E4A224B224C2249C049F0B4
:103266004AC04AF04BC04BF04CC04CF01200010E65
:103276000001886F8051D8A443EF19F045EF19F08B
:10328600A5EF19F0886BBAEF19F08051D96EDA6A9A
:10329600DF30E832E832070B826F010E836F822B34
:1032A60057EF19F0D8908337822F55EF19F00001A8
:1032B6008351FF0A846F8051D96EDA6ADF50070B9B
:1032C600856F8551020D1A0EF324D96E010EF42076
:1032D600DA6EDECF86F0DDCF87F086C0D9FF87C0F5
:1032E600DAFF8451DF16BAEF19F08051D96EDA6A27
:1032F600DF30E832E832070B826F010E836F822BD4
:1033060087EF19F0D8908337822F85EF19F00001E7
:103316008051D96EDA6ADF50070B846F8451020D33
:103326001A0EF324D96E010EF420DA6EDECF85F084
:10333600DDCF86F085C0D9FF86C0DAFF8351DF1264
:10334600BAEF19F08151826F836B8351000AD8B4AA
:10335600AFEF19F045EF19F08251000AD8B448EFE3
:1033660019F0010AD8B478EF19F045EF19F0885131
:103376001200BFC0B7F0C0C0B8F0C10E0001B96FEF
:10338600DCEC13F00001BF51C011D8A4CDEF19F049
:10339600CFEF19F001EF1AF018EF1AF0B896C1C086
:1033A60080F0C2C081F0C3C082F0C4C083F033ECA9
:1033B60018F000018051AF6E18EF1AF0B886C1C040
:1033C60080F0C2C081F0C3C082F0C4C083F033EC89
:1033D60018F000018051AF6EC1C080F0C2C081F00C
:1033E600C3C082F0C4C083F033EC18F0000181C082
:1033F60080F0816B8051B06E18EF1AF0BFC0D9FF14
:10340600C0C0DAFFDF50000AD8B4D1EF19F0010AC4
:10341600D8B4D1EF19F0030AD8B4E1EF19F0010AD4
:10342600D8B4E1EF19F018EF1AF01200010E0001FE
:103436008C6FEAC08DF08951D96EDA6ADF50070BBE
:103446008A6F8D518A19F80B8A198D6F8951D96E39
:10345600DA6ADF30E832E832070B8A6F8A478A4732
:103466008A478D518A19C70B8A198D6F8D9D89518F
:10347600D96EDA6ADFAC02D08D8F02D000018D9F43
:10348600000E8DBF010E8B6F8951D8A44DEF1AF037
:103496004FEF1AF052EF1AF08C6B5DEF1AF08D0EAB
:1034A600806F9AEC17F08D0E0001806F8BC081F053
:1034B6003AEC19F000018C51120001013C513D110A
:1034C600D8A468EF1AF06AEF1AF06CEF1AF0A3EFBF
:1034D6001AF0AB9EAC983CC180F03DC181F0D0ECB7
:1034E6001CF03CC13AF13DC13BF17AEC1DF0010103
:1034F60020EE0AF03C51D9263D51DA22DFA086EFB4
:103506001AF088EF1AF08EEF1AF03CC186F03DC132
:1035160087F0E5EC1AF0010120EE07F03C51D926C0
:103526003D51DA22DFA09AEF1AF09CEF1AF0A2EFD3
:103536001AF03CC186F03DC187F01FEC1BF0AB8E44
:103546001200E20EF66E390EF76E000EF86E01EE00
:1035560000F010EE3AF00900F5CFEEFFE550E1502D
:10356600FAE14C0EF66E3C0EF76E000EF86E00EEAB
:10357600EBF010EE15F00900F5CFEEFFE550E15047
:10358600FAE1B40EF66E3C0EF76E000EF86E00EE23
:1035960075F010EE0AF00900F5CFEEFFE550E150A8
:1035A600FAE100EEC5F0260EEE6AE806FDE100EE51
:1035B6005BF01A0EEE6AE806FDE17F907F9200014D
:1035C600C7EF1BF0010E00018A6F86518711D8A440
:1035D600EFEF1AF0F1EF1AF0F3EF1AF01EEF1BF00F
:1035E600AC8A948C86C080F087C081F02AEC1DF0EE
:1035F600000120EE08F08651D9268751DA22DE50E6
:10360600DE10D8A409EF1BF00BEF1BF011EF1BF037
:10361600C00ECD6F3A0ECE6F1BEF1BF020EE08F0FA
:103626008651D9268751DA22DECFCDF0DDCFCEF016
:10363600010E05EC1EF01200010E00018A6F865184
:103646008711D8A429EF1BF02BEF1BF02DEF1BF0F1
:1036560058EF1BF0AB88948E86C080F087C081F04F
:1036660045EC1DF0000120EE05F08651D926875164
:10367600DA22DE50DE10D8A443EF1BF045EF1BF034
:103686004BEF1BF03E0ECB6F380ECC6F55EF1BF099
:1036960020EE05F08651D9268751DA22DECFCBF00F
:1036A600DDCFCCF0010E10EC1EF01200E9C088F060
:1036B60000018651D96EDA6ADF50070B876F885191
:1036C6008719F80B8719886F8651D96EDA6ADF3049
:1036D600E832E832070B876F874787478747885165
:1036E6008719C70B8719886F889D8651D96EDA6A44
:1036F600DFAC02D0888F02D00001889F8651D8A403
:1037060087EF1BF089EF1BF08BEF1BF08FEF1BF0A1
:10371600880E806F90EC1BF0120000018051D8A437
:1037260097EF1BF099EF1BF09BEF1BF0C6EF1BF01A
:103736008051D96EDA6ADF30E832E832070B816FE2
:10374600010E826F812BAAEF1BF0D8908237812F52
:10375600A8EF1BF000018051D96EDA6ADF50070B23
:10376600836F8351020D1A0EF324D96E010EF420D5
:10377600DA6EDECF84F0DDCF85F084C0D9FF85C058
:10378600DAFF8251DF1A12003AEC1EF07D6E2A0E25
:103796000001806F010E816F730E826FAFEC1CF01B
:1037A600540E73187410D8A4DBEF1BF0DDEF1BF07A
:1037B600CAEF1BF0FF0E0001866F59EC1BF02A0EB4
:1037C6000001806F010E816F000E836F520E826FB3
:1037D6000EEC1DF0000E746E000E736ECAEF1BF039
:1037E60007EF00F0000180518111D8A4FDEF1BF016
:1037F600FFEF1BF007EF1CF01EEF1CF0AC941EEF62
:103806001CF0AC841EEF1CF080C0D9FF81C0DAFF2B
:10381600DF50000AD8B401EF1CF0010AD8B404EF57
:103826001CF0030AD8B401EF1CF0010AD8B404EF67
:103836001CF01EEF1CF01200ABA024EF1CF026EFCC
:103846001CF02EEF1CF06504D8B42CEF1CF02EEF04
:103856001CF034EF1CF0000E046E000E036E38EF01
:103866001CF0010E046E000E036EAE500324016EB2
:10387600000E0420026E6750D96EDA6A01C0DEFFC0
:1038860002C0DDFF1200076E01C002F0010E036EDA
:10389600022A50EF1CF0D8900336022E4EEF1CF091
:1038A6000350FF0A046E0750020D240EF324D96E4E
:1038B600010EF420DA6EDECF05F0DDCF06F005C08E
:1038C600D9FF06C0DAFF0450DF16010E1200000E03
:1038D6002C1A000E2D1A000E2E1A800E2F1A28C032
:1038E60001F029C002F02AC003F02BC004F02CC05E
:1038F60005F02DC006F02EC007F02FC008F05FECD3
:103906000AF001C028F002C029F003C02AF004C062
:103916002BF012000001856F80C081F0010E0001BE
:10392600826F812B99EF1CF0D8908237812F97EF09
:103936001CF000018551020DF350F50FD96EDA6ABD
:10394600DECF83F0DDCF84F083C0D9FF84C0DAFFF9
:103956008251DF12010E1200000180518111D8B48C
:10396600B7EF1CF0B9EF1CF0CFEF1CF08251D8A4D2
:10397600BFEF1CF0C1EF1CF0C3EF1CF0CFEF1CF043
:1039860082C067F020EE07F08051D9268151DA22F5
:10399600000EDFB2010E656E12000001805181112A
:1039A600D8A4D8EF1CF0DAEF1CF0DCEF1CF0F0EF37
:1039B6001CF020EE0CF08051D9268151DA22DECFA0
:1039C600C9F0DDCFCAF020EE0EF08051D926815124
:1039D600DA22DECFC7F0DDCFC8F012003738392F34
:1039E6003435362A3132332D43303D2B800F810F4B
:1039F600820F830F840F890F8A0F8B0F8C0F8D0F09
:103A0600A10F9E0FF20F00802500000000010000AC
:103A1600010000000000000180518111D8A416EFBA
:103A26001DF018EF1DF01AEF1DF029EF1DF082C0F2
:103A36005BF083C05CF020EE0AF08051D9268151FC
:103A4600DA22000EDFB2010E666E9D8812000001BA
:103A560080518111D8A432EF1DF034EF1DF036EFFE
:103A66001DF044EF1DF020EE0AF08051D926815159
:103A7600DA22DFA241EF1DF043EF1DF044EF1DF007
:103A8600AC8C1200000180518111D8A44DEF1DF0BD
:103A96004FEF1DF051EF1DF05FEF1DF020EE07F028
:103AA6008051D9268151DA22DFA25CEF1DF05EEF4C
:103AB6001DF05FEF1DF0AB8C12009D985BC0ADFF53
:103AC6006604D8A469EF1DF06BEF1DF079EF1DF0C9
:103AD6005BC001F05CC002F002C001F0026A010E98
:103AE6000116AC500118FE0B0118AC6E1200010154
:103AF6003A513B11D8A482EF1DF084EF1DF086EFFA
:103B06001DF092EF1DF03AC180F03BC181F0F5EC5B
:103B16001BF03AC1BFF03BC1C0F0BCEC19F012007B
:103B26000001CB51CC11D8B49BEF1DF09DEF1DF0D9
:103B3600ABEF1DF002D8A9EF1DF00500FA6ECB51D0
:103B4600FD6ECC51FE6EFF6AFA501200ABEF1DF00F
:103B560012000001CD51CE11D8B4B4EF1DF0B6EF6E
:103B66001DF0C2EF1DF002D8C2EF1DF00500FA6E7F
:103B7600CD51FD6ECE51FE6EFF6AFA501200120054
:103B8600010E016E000E46EC1CF05DC0B2FF68042B
:103B9600D8A4D0EF1DF0D2EF1DF0D4EF1DF05E508B
:103BA600B36E1200000E016E010E46EC1CF06A04A4
:103BB600D8A4E0EF1DF0E2EF1DF0E4EF1DF0605039
:103BC600CF6E5FC0CEFF1200020E016E010E46ECF4
:103BD6001CF002D8F8EF1DF00500FA6E6350FD6E7A
:103BE6006450FE6EFF6AFA5012001200020E016E59
:103BF600020E46EC1CF061C001F062C002F048EC17
:103C06001EF0120067EC1EF0040E0001806F010E1C
:103C16008DEC1CF064EC1EF0120067EC1EF0050E35
:103C26000001806F010E8DEC1CF064EC1EF012009A
:103C3600010E00018E6FFF0E896F19EC1AF000015C
:103C46008E178E511200920F930F940F950F960FA9
:0B3C5600A00F9D0FF20FA20F9F0F4068
:103C62002A0E01013C6F010E3D6F60EC1AF0010E4D
:103C720012001BEC1EF07D1631EC1EF07D167D50FD
:103C82001200010E016E010E46EC1CF012000250F1
:103C9200D76E01C0D6FF010E1200040E016E000E97
:103CA20046EC1CF01200060E016E010E46EC1CF0F2
:103CB200120001010101A0860100010153C0BEFFF3
:103CC2005450BF6E1200F28EF28C1200F29EF29CE1
:103CD2001200F2901200F2901200F2901200F29092
:0E3CE2001200F2901200F2901200F292120004
:020000040020DA
:08000000FFFFFFFFFFFFFFFF00
:020000040030CA
:0E000000FF02091EFF8181FF0FC00FE00F40BD
:00000001FF
