:020000040000FA
:0400000007EF00F016
:0A000800718203ED08F00DEF0BF01C
:05100000002575000051
:101006000600FACF60F0FBCF61F0D9CF62F0DACFFD
:1010160063F0F3CF64F0F4CF65F0F2A815EF08F0B3
:1010260017EF08F020EF08F0F2A21CEF08F01EEF11
:1010360008F020EF08F048EC0DF0F2A625EF08F0D6
:1010460027EF08F040EF08F0F2A02CEF08F02EEFA3
:1010560008F040EF08F081A833EF08F035EF08F00C
:1010660040EF08F02104D8A43BEF08F03DEF08F06C
:1010760040EF08F0216A44EC0DF0F2A645EF08F0C7
:1010860047EF08F061EF08F0F2A04CEF08F04EEFE2
:1010960008F061EF08F081B853EF08F055EF08F05B
:1010A60061EF08F02150D8A45BEF08F05DEF08F07F
:1010B60061EF08F0010E216E46EC0DF0F2A666EF28
:1010C60008F068EF08F081EF08F0F2A06DEF08F085
:1010D6006FEF08F081EF08F081AA74EF08F076EF61
:1010E60008F081EF08F02204D8A47CEF08F07EEF28
:1010F60008F081EF08F0226A40EC0DF0F2A686EFC8
:1011060008F088EF08F0A2EF08F0F2A08DEF08F0E3
:101116008FEF08F0A2EF08F081BA94EF08F096EF8F
:1011260008F0A2EF08F02250D8A49CEF08F09EEF3A
:1011360008F0A2EF08F0010E226E42EC0DF0F2A6C6
:10114600A7EF08F0A9EF08F0C2EF08F0F2A0AEEFA3
:1011560008F0B0EF08F0C2EF08F081ACB5EF08F088
:10116600B7EF08F0C2EF08F02304D8A4BDEF08F0EB
:10117600BFEF08F0C2EF08F0236A3CEC0DF0F2A6D0
:10118600C7EF08F0C9EF08F0E3EF08F0F2A0CEEFE2
:1011960008F0D0EF08F0E3EF08F081BCD5EF08F0D7
:1011A600D7EF08F0E3EF08F02350D8A4DDEF08F0FE
:1011B600DFEF08F0E3EF08F0010E236E3EEC0DF0D2
:1011C600A1A8E8EF08F0EAEF08F0F3EF08F0A0A80E
:1011D600EFEF08F0F1EF08F0F3EF08F02AEC0DF06E
:1011E6009EACF8EF08F0FAEF08F003EF09F09DACBB
:1011F600FFEF08F001EF09F003EF09F030EC0DF016
:10120600F2A408EF09F00AEF09F013EF09F0F2AAC9
:101216000FEF09F011EF09F013EF09F001EC0DF0F3
:101226009EA018EF09F01AEF09F023EF09F09DA030
:101236001FEF09F021EF09F023EF09F08BEC0CF01A
:1012460065C0F4FF64C0F3FF63C0DAFF62C0D9FF74
:1012560061C0FBFF60C0FAFF71921100010E6C6E57
:101266006650D8B439EF09F03BEF09F059EF09F0B1
:101276006650D96EDA6ADF30E832E832070B676EFD
:10128600080E676049EF09F04BEF09F059EF09F0D6
:101296006650D96EDA6ADF50070B676E040E676414
:1012A60057EF09F059EF09F0AFEF09F06C6AC5EF97
:1012B60009F06650D96EDA6ADF30E832E832070B99
:1012C600676E010E686E672A6BEF09F0D890683674
:1012D600672E69EF09F06850FF0A696E6650D96E8D
:1012E600DA6ADF50070B020DF3500B0FD96EDA6A7C
:1012F600DECF6AF0DDCF6BF06AC0D9FF6BC0DAFFD4
:101306006950DF16C5EF09F06650D96EDA6ADF302C
:10131600E832E832070B676E010E686E672A96EFB1
:1013260009F0D8906836672E94EF09F06650D96EAA
:10133600DA6ADF50070B020DF3500B0FD96EDA6A2B
:10134600DECF69F0DDCF6AF069C0D9FF6AC0DAFF87
:101356006850DF12C5EF09F06650D96EDA6ADFBC55
:10136600B7EF09F0BAEF09F0010EBBEF09F0000E76
:10137600000AD8B45CEF09F0010AD8B487EF09F087
:1013860059EF09F06C501200010E6D6E6650D8A42C
:10139600CFEF09F0D1EF09F027EF0AF06D6A3CEFC5
:1013A6000AF06650D96EDA6ADF30E832E832070BA7
:1013B600686E010E696E682AE3EF09F0D890693607
:1013C600682EE1EF09F06950FF0A6A6E6650D96E21
:1013D600DA6ADF50070B020DF350010FD96EDA6A95
:1013E600DECF6BF0DDCF6CF06BC0D9FF6CC0DAFFDF
:1013F6006A50DF163CEF0AF06650D96EDA6ADF30C3
:10140600E832E832070B686E010E696E682A0EEF45
:101416000AF0D8906936682E0CEF0AF06650D96E3D
:10142600DA6ADF50070B020DF350010FD96EDA6A44
:10143600DECF6AF0DDCF6BF06AC0D9FF6BC0DAFF92
:101446006950DF123CEF0AF06750686E696A6950AE
:10145600000AD8B431EF0AF0D1EF09F06850000A5B
:10146600D8B4D4EF09F0010AD8B4FFEF09F0D1EFF0
:1014760009F06D5012006D50D8A444EF0AF046EF03
:101486000AF048EF0AF085EF0AF039EC0DF0CD804E
:101496006DC066F0B5EC0BF06DC066F063EC0BF05A
:1014A6006DC066F0CCEC0AF06DC066F0DEEC0BF0B9
:1014B6006DC066F08CEC0BF06DC066F06D50D96EA9
:1014C600DA6A040ED926DECF67F0DDCF68F0D4ECF9
:1014D6000CF06D50D96EDA6A030ED926000EDFB411
:1014E600010E4E6E6D50D96EDA6A040ED926DECF25
:1014F60036F0DDCF37F06DC066F0C2EC0CF0000EB2
:10150600E5EC0CF01200010E00019B6F55C09CF03B
:101516006E50D96EDA6ADF50070B6F6E9C516F18EA
:10152600F80B6F189C6F6E50D96EDA6ADF30E832AE
:10153600E832070B6F6E6F466F466F469C516F1809
:10154600C70B6F189C6F9C9D6E50D96EDA6ADFAC24
:1015560002D09C8F02D000019C9F000E9CBF010E02
:101566009A6F6E50D8A4BAEF0AF0BCEF0AF0BFEF3C
:101576000AF09B6BC9EF0AF09C0E666E31EC09F01F
:101586009C0E666E9AC067F0C7EC09F000019B518D
:1015960012006650D8A4D2EF0AF0D4EF0AF0EAEFB0
:1015A6000AF00CEF0BF0CF0ECD160CEF0BF0CD5072
:1015B600CF0B1009CD6E0CEF0BF0CD50CF0B2009E1
:1015C600CD6E0CEF0BF0300ECD120CEF0BF066501B
:1015D600D96EDA6A020ED926DF50676E686A6850DD
:1015E600000AD8B4F9EF0AF00CEF0BF06750000AC6
:1015F600D8B4D6EF0AF0010AD8B4DAEF0AF0030A33
:10160600D8B4E0EF0AF0010AD8B4E6EF0AF00CEF1E
:101616000BF01200E80EF66E190EF76E000EF86E5D
:1016260000EE80F010EE1AF00900F5CFEEFFE5505F
:10163600E150FAE1520EF66E190EF76E000EF86ED4
:1016460000EE01F010EE31F00900F5CFEEFFE550A7
:10165600E150FAE100EE32F0270EEE6AE806FDE10F
:1016660071907192000107EF0CF06750D8A43EEF1D
:101676000BF040EF0BF042EF0BF062EF0BF0CE50A9
:10168600686E696A6750D96EDA6A68C0DEFF69C03B
:10169600DDFF6650D96EDA6A030ED926DFA456EF4F
:1016A6000BF058EF0BF062EF0BF0CF50696E686AE3
:1016B6006750D96EDA6A6850DE266950DD2212005C
:1016C6006650D8A469EF0BF06BEF0BF073EF0BF0DD
:1016D6008BEF0BF0CD968BEF0BF0CD868BEF0BF0EF
:1016E6006650D96EDA6A030ED926DFB07DEF0BF0AD
:1016F60080EF0BF0010E81EF0BF0000E000AD8B45C
:101706006DEF0BF0010AD8B470EF0BF08BEF0BF016
:1017160012006650D8A492EF0BF094EF0BF09CEFFA
:101726000BF0B4EF0BF0CD8EB4EF0BF0CD9EB4EF13
:101736000BF06650D96EDA6A030ED926DFB4A6EF2F
:101746000BF0A9EF0BF0010EAAEF0BF0000E000A4A
:10175600D8B499EF0BF0010AD8B496EF0BF0B4EFBA
:101766000BF012006650D8A4BBEF0BF0BDEF0BF0E8
:10177600C5EF0BF0DDEF0BF0CD92DDEF0BF0CD8278
:10178600DDEF0BF06650D96EDA6A030ED926DFB2AA
:10179600CFEF0BF0D2EF0BF0010ED3EF0BF0000EF4
:1017A600000AD8B4BFEF0BF0010AD8B4C2EF0BF0B1
:1017B600DDEF0BF012006650D8A4E4EF0BF0E6EF75
:1017C6000BF0EEEF0BF006EF0CF0CD9406EF0CF0FD
:1017D600CD8406EF0CF06650D96EDA6A030ED92670
:1017E600DFB6F8EF0BF0FBEF0BF0010EFCEF0BF0A2
:1017F600000E000AD8B4E8EF0BF0010AD8B4EBEFFC
:101806000BF006EF0CF0120016EC0DF0296E2B0E05
:10181600666E000E686E000E676ED4EC0CF00B0E52
:1018260000019E6F260E9D6F5D0EE82EFED79D2F42
:10183600FCD79E2FFAD700D02B0E666E570E676E1A
:1018460038EC0BF00AEF0CF007EF00F06C6E66C098
:1018560067F0010E686E672A33EF0CF0D890683691
:10186600672E31EF0CF06850FF0A696E6C50020D5E
:10187600F350150FD96EDA6ADECF6AF0DDCF6BF062
:101886006AC0D9FF6BC0DAFF6950DF16010E12007D
:101896005F6E59C05AF0010E5B6E5A2A55EF0CF076
:1018A600D8905B365A2E53EF0CF05B50FF0A5C6EF5
:1018B6005F50020DF350150FD96EDA6ADECF5DF078
:1018C600DDCF5EF05DC0D9FF5EC0DAFF5C50DF168B
:1018D60012006B6E66C067F0010E686E672A76EFBF
:1018E6000CF0D8906836672E74EF0CF06B50020D32
:1018F600F3501B0FD96EDA6ADECF69F0DDCF6AF0DE
:1019060069C0D9FF6AC0DAFF6850DF12010E120003
:10191600000E596E010E4BEC0CF04E04D8A496EF57
:101926000CF098EF0CF09AEF0CF03750CF6E36C0F3
:10193600CEFF02D8A8EF0CF00500FA6E3450FD6E0B
:101946003550FE6EFF6AFA5012001200890F8A0F98
:101956008B0F8C0F8D0F920F930F940F950F960F81
:10196600A10F9E0FF20FA00F9D0FF20F01010101B3
:0D197600A20F9F0F0101941A000E00000245
:101984006650D8A4C8EF0CF0CAEF0CF0CCEF0CF002
:10199400D3EF0CF06650D96EDA6ADECF34F0DDCFC7
:1019A40035F012006650D96EDA6A030ED926DFA428
:1019B400DEEF0CF0E0EF0CF0E2EF0CF06850CF6ECD
:1019C40067C0CEFF120039EC0DF0000E666E010EFA
:1019D40029EC0CF0000E666E010E6CEC0CF036EC8B
:1019E4000DF012003738392F3435362A3132332D81
:1019F40043303D2B800F810F820F830F840F020E23
:101A0400596E020E4BEC0CF038C059F039C05AF044
:101A140024EC0DF01200010E706E310E6E6E86EC29
:101A24000AF07016705012000DEC0DF029161EEC21
:101A34000DF02916295012002B0E6D6E3EEC0AF0A3
:101A4400010E12005A50D76E59C0D6FF010E120073
:101A5400040E596E000E4BEC0CF01200060E596E7B
:101A6400010E4BEC0CF01200F28EF28C1200F29E7E
:101A7400F29C1200F2901200F2901200F290120006
:101A8400F2901200F2901200F2901200F292120000
:021A940012003E
:020000040020DA
:08000000FFFFFFFFFFFFFFFF00
:020000040030CA
:0E000000FF02091EFF8181FF0FC00FE00F40BD
:00000001FF
