:020000040000FA
:04000000FEEF7FF0A0
:10100000000008040704180000000E0A1B0E000070
:0D101000000007041F00000000257500000F
:10101E005250D8A415EF08F017EF08F01AEF08F0A9
:10102E00556A8FEF08F052C041F0000E426E08EC88
:10103E0009F0556E52C041F0000E426E91EC08F070
:10104E00556E5228416E000E426E08EC09F0556E38
:10105E005228416E000E426E91EC08F0556E546AA5
:10106E0052505424020F416E000E426E08EC09F0ED
:10107E00556E52505424020F416E000E426E91EC8A
:10108E0008F0556E542A070E546450EF08F052EFD4
:10109E0008F037EF08F0270E536EF50EE82EFED748
:1010AE00532EFCD7000052C04FF0380E506EB0ECED
:1010BE000AF00D0E536EFC0EE82EFED7532EFCD703
:1010CE0052C04FF0380E506EB0EC0AF0640EE82E9F
:1010DE00FED752C04FF0380E506EB0EC0AF052C030
:1010EE004FF0010E506EB0EC0AF052C04FF0020EEF
:1010FE00506EB0EC0AF052C04FF0060E506EB0ECCF
:10110E000AF052C04FF00C0E506EB0EC0AF0556E55
:10111E0055501200010E486E4150D8A499EF08F0B8
:10112E009BEF08F0F1EF08F0486A06EF09F0415026
:10113E00D96EDA6ADF30E832E832070B436E010E01
:10114E00446E432AADEF08F0D8904436432EABEFF1
:10115E0008F04450FF0A456E4150D96EDA6ADF50EE
:10116E00070B020DF3501B0FD96EDA6ADECF46F075
:10117E00DDCF47F046C0D9FF47C0DAFF4550DF1636
:10118E0006EF09F04150D96EDA6ADF30E832E83204
:10119E00070B436E010E446E432AD8EF08F0D89029
:1011AE004436432ED6EF08F04150D96EDA6ADF503E
:1011BE00070B020DF3501B0FD96EDA6ADECF45F026
:1011CE00DDCF46F045C0D9FF46C0DAFF4450DF12EE
:1011DE0006EF09F04250436E446A4450000AD8B4F8
:1011EE00FBEF08F09BEF08F04350000AD8B49EEFD7
:1011FE0008F0010AD8B4C9EF08F09BEF08F0485088
:10120E001200010E486E4150D8A410EF09F012EFF3
:10121E0009F068EF09F0486A73EF09F04150D96E92
:10122E00DA6ADF30E832E832070B436E010E446EA5
:10123E00432A24EF09F0D8904436432E22EF09F0CA
:10124E004450FF0A456E4150D96EDA6ADF50070BE3
:10125E00020DF350250FD96EDA6ADECF46F0DDCFE0
:10126E0047F046C0D9FF47C0DAFF4550DF1673EF8F
:10127E0009F04150D96EDA6ADF30E832E832070BF6
:10128E00436E010E446E432A4FEF09F0D890443658
:10129E00432E4DEF09F04150D96EDA6ADF50070B3D
:1012AE00020DF350250FD96EDA6ADECF45F0DDCF91
:1012BE0046F045C0D9FF46C0DAFF4450DF1273EF47
:1012CE0009F04250000AD8B415EF09F0010AD8B45B
:1012DE0040EF09F012EF09F0485012005250D8B406
:1012EE007BEF09F07DEF09F08DEF09F0050E5360ED
:1012FE0083EF09F085EF09F08DEF09F0140E5464B9
:10130E008BEF09F08DEF09F0B8EF09F0556ACBEFCE
:10131E0009F052C04FF05450800F506EB0EC0AF0EE
:10132E00556ECBEF09F052C04FF05450C00F506EB7
:10133E00B0EC0AF0556ECBEF09F052C04FF054509E
:10134E00940F506EB0EC0AF0556ECBEF09F052C010
:10135E004FF05450D40F506EB0EC0AF0556ECBEFE8
:10136E0009F05350000AD8B490EF09F0010AD8B42E
:10137E009AEF09F0030AD8B4A4EF09F0010AD8B421
:10138E00AEEF09F08DEF09F0555012005B50D8B456
:10139E00D3EF09F0D5EF09F0E5EF09F0090E5F6024
:1013AE00DBEF09F0DDEF09F0E5EF09F05F50D8A4AF
:1013BE00E3EF09F0E5EF09F0E8EF09F0616A14EFE9
:1013CE000AF05BC04FF05F50080DF350380F506EAF
:1013DE00B0EC0AF0626A5BC04FF05C506224606E43
:1013EE0060C0F6FF100EF76E0800F5CF50F090ECCF
:1013FE000AF0622A070E626407EF0AF009EF0AF09C
:10140E00F2EF09F05BC056F05DC057F05EC058F0C9
:10141E005F04596E16EC0AF0616E61501200565060
:10142E00D8B41CEF0AF01EEF0AF02EEF0AF0050EEC
:10143E00576024EF0AF026EF0AF02EEF0AF0140E92
:10144E0058642CEF0AF02EEF0AF031EF0AF05A6AC8
:10145E0041EF0AF056C052F057C053F058C054F046
:10146E0075EC09F05A6E56C04FF059C050F090EC22
:10147E000AF05A6E5A5012004950D8A449EF0AF099
:10148E004BEF0AF04EEF0AF04D6A6EEF0AF04E6A1D
:10149E0049504E24020F416E4EC04BF04AC04CF0E4
:1014AE004B2A5CEF0AF0D8904C324B2E5AEF0AF0D2
:1014BE004C50010B426E91EC08F04D6E4E2A070E09
:1014CE004E646CEF0AF06EEF0AF04FEF0AF04D50DB
:1014DE0012003738392F3435362A3132332D433016
:1014EE003D2B800F810F820F830F840F890F8A0F80
:1014FE008B0F8C0F8D0F920F930F940F950F960FDE
:10150E006F6D617200F501010A02121A222A323A37
:10151E00030B4F50D8A496EF0AF098EF0AF09BEF0A
:10152E000AF0516AAEEF0AF04FC041F0010E426E62
:10153E0091EC08F0516E4FC049F050C04AF043ECA8
:10154E000AF0516E4FC049F0D0EC0AF0516E515076
:10155E0012004F50D8A4B6EF0AF0B8EF0AF0BBEF66
:10156E000AF0516ACEEF0AF04FC041F0000E426E03
:10157E0091EC08F0516E4FC049F050C04AF043EC68
:10158E000AF0516E4FC049F0D0EC0AF0516E515036
:10159E0012004950D8A4D6EF0AF0D8EF0AF0DBEFCC
:1015AE000AF04A6AECEF0AF04928416E010E426ECB
:1015BE0091EC08F0030EE82EFED700004928416E8C
:1015CE00000E426E91EC08F04A6E4A501200E00E88
:1015DE00F66E140EF76E000EF86E00EE01F010EEC1
:1015EE0040F00900F5CFEEFFE550E150FAE100EED4
:1015FE0063F00F0EEE6AE806FDE1000EF86E0001D4
:10160E0009EF0BF024EC0BF0356E370E5B6E110EFE
:10161E005C6E010E5D6E0B0E5E6E010E5F6ECDEC9E
:10162E0009F0356E0CEF0BF0FEEF7FF0370E526EB9
:10163E000FEC08F0356E355012001DEC0BF0356EC8
:04164E003550120001
:04FFFC00EEEF0AF02A
:020000040020DA
:08000000FFFFFFFFFFFFFFFF00
:020000040030CA
:0E000000FF02091EFF8181FF0FC00FE00F40BD
:00000001FF
