:020000040000FA
:0400000007EF00F016
:0A000800728203ED08F02EEF0BF0FA
:05100000002575000051
:101006000600FACF63F0FBCF64F0D9CF65F0DACFF4
:1010160066F0F3CF67F0F4CF68F0F2A815EF08F0AA
:1010260017EF08F020EF08F0F2A21CEF08F01EEF11
:1010360008F020EF08F013EC0DF0F2A625EF08F00B
:1010460027EF08F040EF08F0F2A02CEF08F02EEFA3
:1010560008F040EF08F081A833EF08F035EF08F00C
:1010660040EF08F02104D8A43BEF08F03DEF08F06C
:1010760040EF08F0216A0FEC0DF0F2A645EF08F0FC
:1010860047EF08F061EF08F0F2A04CEF08F04EEFE2
:1010960008F061EF08F081B853EF08F055EF08F05B
:1010A60061EF08F02150D8A45BEF08F05DEF08F07F
:1010B60061EF08F0010E216E11EC0DF0F2A666EF5D
:1010C60008F068EF08F081EF08F0F2A06DEF08F085
:1010D6006FEF08F081EF08F081AA74EF08F076EF61
:1010E60008F081EF08F02204D8A47CEF08F07EEF28
:1010F60008F081EF08F0226A0BEC0DF0F2A686EFFD
:1011060008F088EF08F0A2EF08F0F2A08DEF08F0E3
:101116008FEF08F0A2EF08F081BA94EF08F096EF8F
:1011260008F0A2EF08F02250D8A49CEF08F09EEF3A
:1011360008F0A2EF08F0010E226E0DEC0DF0F2A6FB
:10114600A7EF08F0A9EF08F0C2EF08F0F2A0AEEFA3
:1011560008F0B0EF08F0C2EF08F081ACB5EF08F088
:10116600B7EF08F0C2EF08F02304D8A4BDEF08F0EB
:10117600BFEF08F0C2EF08F0236A07EC0DF0F2A605
:10118600C7EF08F0C9EF08F0E3EF08F0F2A0CEEFE2
:1011960008F0D0EF08F0E3EF08F081BCD5EF08F0D7
:1011A600D7EF08F0E3EF08F02350D8A4DDEF08F0FE
:1011B600DFEF08F0E3EF08F0010E236E09EC0DF007
:1011C600A1A8E8EF08F0EAEF08F0F3EF08F0A0A80E
:1011D600EFEF08F0F1EF08F0F3EF08F0F0EC0CF0A9
:1011E6009EACF8EF08F0FAEF08F003EF09F09DACBB
:1011F600FFEF08F001EF09F003EF09F0F6EC0CF051
:10120600F2A408EF09F00AEF09F013EF09F0F2AAC9
:101216000FEF09F011EF09F013EF09F073EC0CF082
:1012260068C0F4FF67C0F3FF66C0DAFF65C0D9FF88
:1012360064C0FBFF63C0FAFF72921100010E6F6E6D
:101246006950D8B429EF09F02BEF09F049EF09F0FE
:101256006950D96EDA6ADF30E832E832070B6A6E17
:10126600080E6A6039EF09F03BEF09F049EF09F023
:101276006950D96EDA6ADF50070B6A6E040E6A642B
:1012860047EF09F049EF09F09FEF09F06F6AB5EFF4
:1012960009F06950D96EDA6ADF30E832E832070BB6
:1012A6006A6E010E6B6E6A2A5BEF09F0D8906B3698
:1012B6006A2E59EF09F06B50FF0A6C6E6950D96EB1
:1012C600DA6ADF50070B020DF3500B0FD96EDA6A9C
:1012D600DECF6DF0DDCF6EF06DC0D9FF6EC0DAFFE8
:1012E6006C50DF16B5EF09F06950D96EDA6ADF3057
:1012F600E832E832070B6A6E010E6B6E6A2A86EFD9
:1013060009F0D8906B366A2E84EF09F06950D96ED1
:10131600DA6ADF50070B020DF3500B0FD96EDA6A4B
:10132600DECF6CF0DDCF6DF06CC0D9FF6DC0DAFF9B
:101336006B50DF12B5EF09F06950D96EDA6ADFBC7F
:10134600A7EF09F0AAEF09F0010EABEF09F0000EC6
:10135600000AD8B44CEF09F0010AD8B477EF09F0C7
:1013660049EF09F06F5012006950D8A4BDEF09F09B
:10137600BFEF09F0C2EF09F0000E35EF0AF0695031
:10138600D96EDA6A030ED926080EDE18D8A4CEEF77
:1013960009F0D0EF09F0D3EF09F0D58634EF0AF063
:1013A600D59602EF0AF0F80ED51634EF0AF0D550AE
:1013B600F80B0109D56E34EF0AF0D550F80B020987
:1013C600D56E34EF0AF0D550F80B0309D56E34EF1D
:1013D6000AF0D550F80B0409D56E34EF0AF0D55053
:1013E600F80B0509D56E34EF0AF0D550F80B06094F
:1013F600D56E34EF0AF0070ED51234EF0AF06950B5
:10140600D96EDA6A030ED926DF506A6E6B6A6B50A4
:10141600000AD8B411EF0AF0BFEF09F06A50000ACB
:10142600D8B4D6EF09F0010AD8B4DAEF09F0030A06
:10143600D8B4E0EF09F0010AD8B4E6EF09F0070ADC
:10144600D8B4ECEF09F0010AD8B4F2EF09F0030AB8
:10145600D8B4F8EF09F0010AD8B4FEEF09F0BFEFEF
:1014660009F0010E1200010E706E6950D8A43EEF0D
:101476000AF040EF0AF096EF0AF0706AABEF0AF056
:101486006950D96EDA6ADF30E832E832070B6B6EE4
:10149600010E6C6E6B2A52EF0AF0D8906C366B2EEA
:1014A60050EF0AF06C50FF0A6D6E6950D96EDA6A19
:1014B600DF50070B020DF350010FD96EDA6ADECF4B
:1014C6006EF0DDCF6FF06EC0D9FF6FC0DAFF6D50E2
:1014D600DF16ABEF0AF06950D96EDA6ADF30E83210
:1014E600E832070B6B6E010E6C6E6B2A7DEF0AF00D
:1014F600D8906C366B2E7BEF0AF06950D96EDA6A9B
:10150600DF50070B020DF350010FD96EDA6ADECFFA
:101516006DF0DDCF6EF06DC0D9FF6EC0DAFF6C5096
:10152600DF12ABEF0AF06A506B6E6C6A6C50000A01
:10153600D8B4A0EF0AF040EF0AF06B50000AD8B416
:1015460043EF0AF0010AD8B46EEF0AF040EF0AF052
:1015560070501200010E00019C6F58C09DF0715032
:10156600D96EDA6ADF50070B9A6F9D519A19F80BFC
:101576009A199D6F7150D96EDA6ADF30E832E83217
:10158600070B9A6F9A479A479A479D519A19C70B24
:101596009A199D6F9D9D7150D96EDA6ADFAC02D0A3
:1015A6009D8F02D000019D9F000E9DBF010E9B6F77
:1015B6007150D8A4E1EF0AF0E3EF0AF0E6EF0AF083
:1015C6009C6BF0EF0AF09D0E696E21EC09F09D0E02
:1015D600696E9BC06AF036EC0AF000019C5112005D
:1015E600010E716E7050D8A4FBEF0AF0FDEF0AF001
:1015F600FFEF0AF02DEF0BF004EC0DF0D58E70C066
:1016060069F084EC0BF0711670C069F059EC0BF0C0
:10161600711670C069F0B7EC09F0711670C069F008
:10162600AFEC0BF071167050D96EDA6A040ED9263B
:10163600DECF38F0DDCF39F038C069F039C06AF056
:10164600EAEC0CF0711670C069F0A1EC0CF07116A2
:10165600B5EC0CF01200880EF66E190EF76E000E41
:10166600F86E00EE80F010EE1AF00900F5CFEEFFEE
:10167600E550E150FAE1B40EF66E180EF76E000E64
:10168600F86E00EE01F010EE31F00900F5CFEEFF36
:10169600E550E150FAE100EE32F02A0EEE6AE80675
:1016A600FDE17290729200013CEF0CF06950D8A4F3
:1016B6005FEF0BF061EF0BF06AEF0BF0000E83EFBC
:1016C6000BF0D58C82EF0BF0D59C82EF0BF06950B6
:1016D600D96EDA6A020ED926DFB074EF0BF077EF17
:1016E6000BF0010E78EF0BF0000E000AD8B467EF8E
:1016F6000BF0010AD8B464EF0BF061EF0BF0010EAA
:1017060012006950D8A48AEF0BF08CEF0BF095EF1E
:101716000BF0000EAEEF0BF0D58AADEF0BF0D59ABD
:10172600ADEF0BF06950D96EDA6A020ED926DFB03A
:101736009FEF0BF0A2EF0BF0010EA3EF0BF0000EE4
:10174600000AD8B492EF0BF0010AD8B48FEF0BF071
:101756008CEF0BF0010E12006950D8A4B5EF0BF018
:10176600B7EF0BF0C0EF0BF0000ED9EF0BF0D588FA
:10177600D8EF0BF0D598D8EF0BF06950D96EDA6A2E
:10178600020ED926DFB0CAEF0BF0CDEF0BF0010E3B
:10179600CEEF0BF0000E000AD8B4BDEF0BF0010A35
:1017A600D8B4BAEF0BF0B7EF0BF0010E12006F6E64
:1017B60069C06AF0010E6B6E6A2AE4EF0BF0D890EE
:1017C6006B366A2EE2EF0BF06B50FF0A6C6E6F50B1
:1017D600020DF350150FD96EDA6ADECF6DF0DDCF4C
:1017E6006EF06DC0D9FF6EC0DAFF6C50DF16010EC9
:1017F6001200626E5CC05DF0010E5E6E5D2A06EF41
:101806000CF0D8905E365D2E04EF0CF05E50FF0AA9
:101816005F6E6250020DF350150FD96EDA6ADECF95
:1018260060F0DDCF61F060C0D9FF61C0DAFF5F50C4
:10183600DF1612006E6E69C06AF0010E6B6E6A2AC0
:1018460027EF0CF0D8906B366A2E25EF0CF06E5011
:10185600020DF3501B0FD96EDA6ADECF6CF0DDCFC6
:101866006DF06CC0D9FF6DC0DAFF6B50DF12010E50
:101876001200DCEC0CF0296E000E6A6E000E696E2A
:10188600EAEC0CF00B0E0001A06F260E9F6F5D0EAA
:10189600E82EFED79F2FFCD7A02FFAD700D05A0EDE
:1018A600696E8BEC0CF03FEF0CF007EF00F0890F40
:1018B6008A0F8B0F8C0F8D0F920F930F940F950F2E
:1018C600960FA10F9E0FF20FA00F9D0FF20F0101B1
:0F18D6000101A20F9F0F01012A1A05080000024D
:1018E600020E5C6E020EFCEC0BF038C05CF039C0E8
:1018F6005DF0FCEC0CF002D88AEF0CF00500FA6EF5
:101906003A50FD6E3B50FE6EFF6AFA50120012000E
:101916006950D8A491EF0CF093EF0CF095EF0CF012
:10192600A0EF0CF0D7506B6ED6506A6E6950D96E28
:10193600DA6A6AC0DEFF6BC0DDFF12006950D8A408
:10194600A7EF0CF0A9EF0CF0ACEF0CF0000EB4EF23
:101956000CF06950D96EDA6ADECF3AF0DDCF3BF093
:10196600010E120004EC0DF0020E696E020EDAECA6
:101976000BF0050E696E020E1DEC0CF001EC0DF07D
:1019860012003738392F3435362A3132332D433069
:101996003D2B800F810F820F830F840F010E0001F4
:1019A6009E6F310E716EADEC0AF000019E179E51CE
:1019B6001200D1EC0CF02916E4EC0CF02916295093
:1019C60012002B0E706EF3EC0AF0010E12006A5034
:1019D600D76E69C0D6FF010E1200040E5C6E000EB3
:1019E600FCEC0BF01200060E5C6E010EFCEC0BF02C
:1019F60012005D50D76E5CC0D6FF1200F28EF28CDC
:101A06001200F29EF29C1200F2901200F290120066
:101A1600F2901200F2901200F2901200F290120070
:061A2600F2921200120012
:020000040020DA
:08000000FFFFFFFFFFFFFFFF00
:020000040030CA
:0E000000FF02091EFF8181FF0FC00FE00F40BD
:00000001FF
