:020000040000FA
:04000000FEEF7FF0A0
:101000000000010E3F6E3850D8A409EF08F00BEF36
:1010100008F061EF08F03F6A76EF08F03850D96EBB
:10102000DA6ADF30E832E832070B3A6E010E3B6EC7
:101030003A2A1DEF08F0D8903B363A2E1BEF08F005
:101040003B50FF0A3C6E3850D96EDA6ADF50070B0E
:10105000020DF3501B0FD96EDA6ADECF3DF0DDCF03
:101060003EF03DC0D9FF3EC0DAFF3C50DF1676EFC0
:1010700008F03850D96EDA6ADF30E832E832070B10
:101080003A6E010E3B6E3A2A48EF08F0D8903B3694
:101090003A2E46EF08F03850D96EDA6ADF50070B67
:1010A000020DF3501B0FD96EDA6ADECF3CF0DDCFB4
:1010B0003DF03CC0D9FF3DC0DAFF3B50DF1276EF78
:1010C00008F039503A6E3B6A3B50000AD8B46BEFD7
:1010D00008F00BEF08F03A50000AD8B40EEF08F011
:1010E000010AD8B439EF08F00BEF08F03F501200B6
:1010F000010E3F6E3850D8A480EF08F082EF08F060
:10110000D8EF08F03F6AE3EF08F03850D96EDA6A9A
:10111000DF30E832E832070B3A6E010E3B6E3A2AB6
:1011200094EF08F0D8903B363A2E92EF08F03B50FF
:10113000FF0A3C6E3850D96EDA6ADF50070B020D99
:10114000F350250FD96EDA6ADECF3DF0DDCF3EF0E9
:101150003DC0D9FF3EC0DAFF3C50DF16E3EF08F098
:101160003850D96EDA6ADF30E832E832070B3A6E6F
:10117000010E3B6E3A2ABFEF08F0D8903B363A2E6C
:10118000BDEF08F03850D96EDA6ADF50070B020D58
:10119000F350250FD96EDA6ADECF3CF0DDCF3DF09B
:1011A0003CC0D9FF3DC0DAFF3B50DF12E3EF08F04F
:1011B0003950000AD8B485EF08F0010AD8B4B0EF6E
:1011C00008F082EF08F03F5012004050D8B4EBEF27
:1011D00008F0EDEF08F0F5EF08F04150D8A4F3EF78
:1011E00008F0F5EF08F0F8EF08F0436A47EF09F070
:1011F000446A426A466A40504624386E010E396E8F
:1012000001EC08F0456A40504524040F386E440E46
:10121000396E49EC09F04404D8A411EF09F013EF3A
:1012200009F023EF09F04650040DF350010F452457
:10123000D96EDA6A4150E16EE26ADFCFE7FF010E54
:10124000426E2CEF09F0452A030E45642AEF09F09F
:101250002CEF09F003EF09F040504624386E000EE1
:10126000396E01EC08F0436E4204D8A43AEF09F05D
:101270003CEF09F03EEF09F047EF09F0462A030E74
:10128000466445EF09F047EF09F0FBEF08F04350E3
:101290001200010E3E6E3850D8B451EF09F053EFF2
:1012A00009F05BEF09F03950D8A459EF09F05BEF72
:1012B00009F05EEF09F03E6A88EF09F03950D96E07
:1012C000DA6A3850E16EE26AE730E832E832070B5A
:1012D0003A6E3850E16EE26AE750070B020DF350A8
:1012E000110FE16EE26AE6CF3BF0E5CF3CF03BC088
:1012F000E1FF3CC0E2FFE7503D6E3A2A82EF09F081
:10130000D8903D323A2E80EF09F03D50010BDF6E50
:101310003E5012004050D8A490EF09F092EF09F02F
:1013200094EF09F0C0EF09F0436A40504324386E4F
:10133000000E396E78EC08F0416E40504324386E50
:10134000000E396E01EC08F0416E432A030E43642F
:10135000ACEF09F0AEEF09F095EF09F0426A4050AA
:101360004224040F386E010E396E78EC08F0422AE0
:10137000030E4264BEEF09F0C0EF09F0AFEF09F0D1
:1013800012003738392F3435362A3132332D433075
:101390003D2B800F810F820F830F840F890F8A0FDF
:1013A0008B0F8C0F8D0F920F930F940F950F960F3D
:0913B00001030B131B020A121ABF
:1013BA00820EF66E130EF76E000EF86E00EE01F056
:1013CA0010EE37F00900F5CFEEFFE550E150FAE1F3
:1013DA0000EE47F00A0EEE6AE806FDE1000EF86E2E
:1013EA000001F8EF09F00AEC0AF0300E406E500ED8
:1013FA00416EE5EC08F0476EFAEF09F0FEEF7FF078
:10140A00300E406E8AEC09F0120005EC0AF0120068
:04FFFC00DDEF09F03C
:020000040020DA
:08000000FFFFFFFFFFFFFFFF00
:020000040030CA
:0E000000FF02091EFF8181FF0FC00FE00F40BD
:00000001FF
