:020000040000FA
:0400000007EF00F016
:0A0008006E824FED0EF007EF17F0C7
:1010000000566F6C74616765203D202000257500D7
:0110100000DF
:101012001450800B1D6E145014241F6E13AE14EF67
:1010220008F016EF08F017EF08F01F801F50D8B431
:101032001DEF08F01FEF08F033EF08F01F28D8A4C7
:1010420025EF08F027EF08F02FEF08F0000E116EE1
:10105200000E126E000E136E000E146E138E146AC2
:101062003BEF08F0000E116E000E126E000E136EB2
:10107200000E146E1850800B1E6E1D501E18D8B430
:1010820045EF08F047EF08F048EF08F01D8C1850C4
:1010920018241E6E17AE50EF08F052EF08F053EF0F
:1010A20008F01E801E50D8B459EF08F05BEF08F02C
:1010B2006FEF08F01E28D8A461EF08F063EF08F084
:1010C2006BEF08F0000E156E000E166E000E176E16
:1010D200000E186E178E186A77EF08F0000E156E64
:1010E200000E166E000E176E000E186E1F501E5C5C
:1010F200D8B07EEF08F080EF08F0A7EF08F01DAC43
:1011020085EF08F087EF08F089EF08F0800E1D1ACE
:101112001FC020F01EC01FF020C01EF011C020F022
:1011220015C011F020C015F012C020F016C012F048
:1011320020C016F013C020F017C013F020C017F023
:1011420014C020F018C014F020C018F0206A1F50FC
:101152001EC019F01A6A195E000E1A5A1ABEBBEFA7
:1011620008F01A5009E11A0E195CD8A0BBEF08F07A
:10117200BDEF08F0F4EF08F0115012101310141024
:10118200D8A4C6EF08F0C9EF08F0010ECAEF08F0C4
:10119200000E206E000E116E000E126E000E136E07
:1011A200000E146E1EC01FF0FDEF08F020A0DCEF51
:1011B20008F0DEEF08F0E4EF08F0D89020300109E3
:1011C200206EE6EF08F0D890203211A0EBEF08F085
:1011D200EDEF08F0EEEF08F0208E143414321332E3
:1011E200123211321F2A1E501F5CD8A0FBEF08F0EA
:1011F200FDEF08F0D7EF08F01DBC02EF09F004EF95
:1012020009F044EF09F01F50D8A40AEF09F00CEFDF
:1012120009F016EF09F0000E116E000E126E000EAC
:10122200136E000E146E63EF0AF01550112616505D
:101232001222175013221850142214A023EF09F07F
:1012420025EF09F0D1EF09F020A02AEF09F02CEFE9
:1012520009F032EF09F0D89020300109206E34EF06
:1012620009F0D890203211A039EF09F03BEF09F0D4
:101272003CEF09F0208E1434143213321232113240
:101282001F2AD1EF09F01550115C16501258175051
:1012920013581450800A196E1850800A1958D8B081
:1012A20055EF09F057EF09F082EF09F01150155C84
:1012B200196E125016581A6E135017581B6E14508E
:1012C20018581C6EFF0E1924116EFF0E1A20126E92
:1012D200FF0E1B20136EFF0E1C20146E800E1D1AB3
:1012E200206C2050D8A478EF09F07AEF09F08AEF49
:1012F20009F0010E1126000E1222132214228AEF87
:1013020009F01550115E1650125A1750135A185000
:10131200145A1150121013101410D8A493EF09F09C
:1013220095EF09F0CAEF09F02050D8A49BEF09F01D
:101332009DEF09F0CAEF09F0000E116E000E126E59
:10134200000E136E000E146E63EF0AF0D890113681
:1013520012361336143620AEB1EF09F0B3EF09F0AE
:10136200B4EF09F0118020A0B9EF09F0BBEF09F04A
:10137200BFEF09F0D8802036C1EF09F0D8902036AF
:101382001F50D8B4C7EF09F0C9EF09F0CAEF09F04E
:101392001F0613AECFEF09F0D1EF09F0A7EF09F066
:1013A2001E6A20AED7EF09F0D9EF09F0F1EF09F08C
:1013B20020C019F07F0E1916D8B4E2EF09F0E4EF5D
:1013C20009F0E8EF09F0010E1E6EF1EF09F011A02D
:1013D200EDEF09F0EFEF09F0F1EF09F0E4EF09F0BA
:1013E2001E50D8B4F7EF09F0F9EF09F024EF0AF034
:1013F200010E1126000E12221322142214A004EF51
:101402000AF006EF0AF024EF0AF011C019F012C038
:101412001AF013C01BF014C01CF01C341C321B3217
:101422001A32193219C011F01AC012F01BC013F08F
:101432001CC014F01F28D8B421EF0AF023EF0AF0E1
:1014420024EF0AF01F2A1F28D8B42AEF0AF02CEF43
:101452000AF034EF0AF01F50D8A432EF0AF034EF4A
:101462000AF045EF0AF0000E116E000E126E000E29
:10147200136E000E146E1F50D8A442EF0AF044EF10
:101482000AF045EF0AF01D6A1FA04AEF0AF04CEF7E
:101492000AF04FEF0AF0138E50EF0AF0139ED89025
:1014A2001F30146E1DAE58EF0AF05AEF0AF05BEFD0
:1014B2000AF0148E11C011F012C012F013C013F012
:1014C20014C014F012002C50800B356E2C502C24BA
:1014D2003B6E2BAE6FEF0AF071EF0AF072EF0AF07B
:1014E2003B803B50D8B478EF0AF07AEF0AF08DEFE8
:1014F2000AF03B28D8A480EF0AF082EF0AF08AEFC4
:101502000AF0000E296E000E2A6E000E2B6E000EDF
:101512002C6E2B8E95EF0AF0000E296E000E2A6EAD
:10152200000E2B6E000E2C6E3050800B351A305090
:1015320030243A6E2FAEA0EF0AF0A2EF0AF0A3EF2A
:101542000AF03A803A50D8B4A9EF0AF0ABEF0AF0A9
:10155200BEEF0AF03A28D8A4B1EF0AF0B3EF0AF0CE
:10156200BBEF0AF0000E2D6E000E2E6E000E2F6ED7
:10157200000E306E2F8EC6EF0AF0000E2D6E000E9A
:101582002E6E000E2F6E000E306E3A50D8B4CCEF95
:101592000AF0CEEF0AF0D6EF0AF03B50D8A4D4EF0F
:1015A2000AF0D6EF0AF0E0EF0AF0000E296E000E04
:1015B2002A6E000E2B6E000E2C6E76EF0CF02F5062
:1015C2002902F3CF40F0F4CF41F04050366E376A33
:1015D200386A396A41503C6E3D6A3E6A3F6A2E5013
:1015E2002A02F3CF40F0F4CF41F040503626000EED
:1015F20037223822392241503C26000E3D223E221B
:101602003F222D502B02F3CF40F0F4CF41F0405057
:101612003626000E37223822392241503C26000E4F
:101622003D223E223F2238C039F037C038F036C062
:1016320037F0366A2D502A02F3CF40F0F4CF41F052
:101642004050362641503722000E3822000E3922F1
:101652002E502902F3CF40F0F4CF41F0405036260D
:1016620041503722000E3822000E392238C039F09C
:1016720037C038F036C037F0366A2D502902F3CF22
:1016820040F0F4CF41F04050362641503722000E50
:101692003822000E39222F502A02F3CF40F0F4CF25
:1016A20041F040503C2641503D22000E3E22000EA9
:1016B2003F222E502B02F3CF40F0F4CF41F04050A6
:1016C2003C2641503D22000E3E22000E3F222F506A
:1016D2002B02F3CF40F0F4CF41F04050316E415035
:1016E200326E336A346A33C034F032C033F031C000
:1016F20032F0316A31503C2632503D2233503E2284
:1017020034503F2236C031F037C032F038C033F0A7
:1017120039C034F0190E93EF0BF0D89034323332D3
:1017220032323132E82E8EEF0BF031503C263250FD
:101732003D2233503E2234503F2238C039F037C068
:1017420038F036C037F0366A3A503BC031F0326A70
:101752003126000E3222820E3124406EFF0E3220DC
:10176200416EC9EF0BF0D8903C363D363E363F36DF
:1017720039AEBEEF0BF0C0EF0BF0C1EF0BF03C80C7
:10178200D89036363736383639364006D8A0410634
:101792003EAECEEF0BF0D0EF0BF0B4EF0BF03A6AA7
:1017A20039AED6EF0BF0D8EF0BF0FCEF0BF0FF0EDB
:1017B2003614316EFF0E3714326EFF0E3814336E4C
:1017C2007F0E3914346E3150321033103410D8B4C5
:1017D200EDEF0BF0EFEF0BF0F3EF0BF0010E3A6EC3
:1017E200FCEF0BF03CA0F8EF0BF0FAEF0BF0FCEF84
:1017F2000BF0EFEF0BF03A50D8B402EF0CF004EF1D
:101802000CF028EF0CF0010E3C26000E3D223E2289
:101812003F223FA00FEF0CF011EF0CF028EF0CF07D
:101822003CC031F03DC032F03EC033F03FC034F036
:101832003434343233323232313231C03CF032C09D
:101842003DF033C03EF034C03FF0404A412A41BE31
:1018520033EF0CF0415008E14028D8A033EF0CF0F0
:1018620035EF0CF03FEF0CF0000E3C6E000E3D6EBB
:10187200800E3E6E7F0E3F6E6CEF0CF041BE4CEF61
:101882000CF0415006E14004D8B04AEF0CF04CEFA6
:101892000CF057EF0CF0000E3C6E000E3D6E000E89
:1018A2003E6E000E3F6E356A6CEF0CF040C03BF0AE
:1018B200FF0E3C16FF0E3D167F0E3E16000E3F1623
:1018C2003BA066EF0CF068EF0CF069EF0CF03E8E77
:1018D200D8903B303F6E35503F123CC029F03DC09E
:1018E2002AF03EC02BF03FC02CF012004550800B76
:1018F2000101046F455045240B6F44AE83EF0CF099
:1019020085EF0CF086EF0CF00B810B51D8B48CEF05
:101912000CF08EEF0CF0A2EF0CF00B29D8A494EF90
:101922000CF096EF0CF09EEF0CF0000E426E000EE3
:10193200436E000E446E000E456E448E456AAAEF59
:101942000CF0000E426E000E436E000E446E000E4E
:10195200456E4950800B041B495049240C6F48AE18
:10196200B5EF0CF0B7EF0CF0B8EF0CF00C810C51A6
:10197200D8B4BEEF0CF0C0EF0CF0D4EF0CF00C2991
:10198200D8A4C6EF0CF0C8EF0CF0D0EF0CF0000EAC
:10199200466E000E476E000E486E000E496E488E6F
:1019A200496ADCEF0CF0000E466E000E476E000E28
:1019B200486E000E496E4650471048104910D8A490
:1019C200E5EF0CF0E7EF0CF0FFEF0CF0000E426ECB
:1019D200000E436E000E446E000E456E800E4412E1
:1019E2007F0E45120451451242C042F043C043F0FB
:1019F20044C044F045C045F04EEF0EF00B51D8A460
:101A020005EF0DF007EF0DF011EF0DF0000E426E35
:101A1200000E436E000E446E000E456E4EEF0EF049
:101A22000C510BC1FAF00001FB6BFA5F000EFB5B7D
:101A32007F0EFA250101056F000E0001FB21010155
:101A4200066F42C000F143C001F144C002F145C03B
:101A520003F1000E426E000E436E000E446E000E45
:101A6200456E000E076F000E086F000E096F000E24
:101A72000A6F0C6B75EF0DF00C51D8B443EF0DF0FB
:101A820045EF0DF05CEF0DF0D890003701370237CB
:101A92000337D89042364336443645360AAF54EFC0
:101AA2000DF056EF0DF057EF0DF04280D89007374A
:101AB200083709370A374650005D475001594850E8
:101AC200025949500359D8A069EF0DF06BEF0DF0A0
:101AD20074EF0DF00A8D4650005F4750015B48508D
:101AE200025B4950035B0C2B190E0C657BEF0DF06A
:101AF2007DEF0DF03DEF0DF00051011102110311C8
:101B0200D8B486EF0DF088EF0DF0A0EF0DF007814D
:101B1200A0EF0DF0D89042364336443645360AAF30
:101B220095EF0DF097EF0DF098EF0DF04280D89001
:101B32000737083709370A370507D8A0060744AE22
:101B4200A5EF0DF0A7EF0DF08BEF0DF00C6B0AAFC8
:101B5200ADEF0DF0AFEF0DF0DBEF0DF0FF0E07155F
:101B62000001FA6FFF0E010108150001FB6FFF0E65
:101B7200010109150001FC6F7F0E01010A15000128
:101B8200FD6FFA51FB11FC11FD11D8B4CBEF0DF032
:101B9200CDEF0DF0D2EF0DF0010E01010C6FDBEF76
:101BA2000DF042A0D7EF0DF0D9EF0DF0DBEF0DF005
:101BB200CDEF0DF001010C51D8B4E2EF0DF0E4EFDE
:101BC2000DF00AEF0EF0010E4226000E43224422CF
:101BD200452245A0EFEF0DF0F1EF0DF00AEF0EF008
:101BE20042C0FAF043C0FBF044C0FCF045C0FDF037
:101BF2000001FD35FD33FC33FB33FA33FAC042F00A
:101C0200FBC043F0FCC044F0FDC045F00101054BB0
:101C1200062B06BF15EF0EF0065108E10529D8A0E4
:101C220015EF0EF017EF0EF022EF0EF0000E066F1A
:101C32000569000E426E000E436E000E446E000EE9
:101C4200456E06BF2FEF0EF0065106E10505D8B02E
:101C52002DEF0EF02FEF0EF03CEF0EF0000E066FA0
:101C6200000E056F000E426E000E436E000E446EB3
:101C7200000E456E046B05C10BF10BA143EF0EF094
:101C820045EF0EF048EF0EF0448E49EF0EF0449E01
:101C9200D8900B31456EF3EF0CF012000600FACF2C
:101CA2000BF0FBCF0CF0D9CF0DF0DACF0EF0F3CF63
:101CB2000FF0F4CF10F0F2A861EF0EF063EF0EF028
:101CC2006CEF0EF0F2A268EF0EF06AEF0EF06CEF1E
:101CD2000EF088EC1AF0F2A671EF0EF073EF0EF030
:101CE2008CEF0EF0F2A078EF0EF07AEF0EF08CEFA0
:101CF2000EF081A87FEF0EF081EF0EF08CEF0EF068
:101D02006704D8A487EF0EF089EF0EF08CEF0EF087
:101D1200676A84EC1AF0F2A691EF0EF093EF0EF0E0
:101D2200ADEF0EF0F2A098EF0EF09AEF0EF0ADEFDD
:101D32000EF081B89FEF0EF0A1EF0EF0ADEF0EF0B6
:101D42006750D8A4A7EF0EF0A9EF0EF0ADEF0EF09A
:101D5200010E676E86EC1AF0F2A6B2EF0EF0B4EF47
:101D62000EF0CDEF0EF0F2A0B9EF0EF0BBEF0EF0D9
:101D7200CDEF0EF081AAC0EF0EF0C2EF0EF0CDEF64
:101D82000EF06804D8A4C8EF0EF0CAEF0EF0CDEF43
:101D92000EF0686A80EC1AF0F2A6D2EF0EF0D4EFE1
:101DA2000EF0EEEF0EF0F2A0D9EF0EF0DBEF0EF038
:101DB200EEEF0EF081BAE0EF0EF0E2EF0EF0EEEF92
:101DC2000EF06850D8A4E8EF0EF0EAEF0EF0EEEF56
:101DD2000EF0010E686E82EC1AF0F2A6F3EF0EF02E
:101DE200F5EF0EF00EEF0FF0F2A0FAEF0EF0FCEFAF
:101DF2000EF00EEF0FF081AC01EF0FF003EF0FF0DA
:101E02000EEF0FF06904D8A409EF0FF00BEF0FF0FB
:101E12000EEF0FF0696A7CEC1AF0F2A613EF0FF0E6
:101E220015EF0FF02FEF0FF0F2A01AEF0FF01CEFEB
:101E32000FF02FEF0FF081BC21EF0FF023EF0FF027
:101E42002FEF0FF06950D8A429EF0FF02BEF0FF00E
:101E52002FEF0FF0010E696E7EEC1AF0A1A834EF9D
:101E62000FF036EF0FF03FEF0FF0A0A83BEF0FF0AF
:101E72003DEF0FF03FEF0FF06CEC1AF09EAC44EF29
:101E82000FF046EF0FF04FEF0FF09DAC4BEF0FF05E
:101E92004DEF0FF04FEF0FF0D8EC19F010C0F4FF38
:101EA2000FC0F3FF0EC0DAFF0DC0D9FF0CC0FBFF5D
:101EB2000BC0FAFF6E921100196E1950D8B464EF7C
:101EC2000FF066EF0FF088EF0FF014BE6DEF0FF01A
:101ED2006BEF0FF088EF0FF011C015F012C016F083
:101EE20013C017F014C018F0151E161E171E181E68
:101EF200152A000E16221722182215C01BF016C032
:101F02001CF017C01DF018C01EF090EF0FF011C0AA
:101F12001BF012C01CF013C01DF014C01EF01150B3
:101F2200121013101410D8A499EF0FF09BEF0FF0BA
:101F3200A5EF0FF0000E116E000E126E000E136E62
:101F4200000E146E36EF10F0960E1A6EAFEF0FF011
:101F52001A2AD8901E321D321C321B32000E1B145C
:101F6200156E000E1C14166E000E1D14176EFE0E5A
:101F72001E14186E1550161017101810D8A4C4EF9E
:101F82000FF0C6EF0FF0A9EF0FF0D4EF0FF01A2AFF
:101F9200010E1B26000E1C221D221E22D8901E326C
:101FA2001D321C321B32000E1B14156E000E1C1447
:101FB200166E000E1D14176EFF0E1E14186E1550AD
:101FC200161017101810D8A4E9EF0FF0EBEF0FF06E
:101FD200C8EF0FF0F3EF0FF01A06D8901B361C363D
:101FE2001D361E361DBEF8EF0FF0FAEF0FF002EFAE
:101FF20010F0020E1A6000EF10F002EF10F0EDEF99
:102002000FF01AB007EF10F009EF10F00AEF10F01E
:102012001D9ED8901A321AC015F0166A176A186AED
:1020220015C018F0176A166A156A15501B12165059
:102032001C1217501D1218501E121950D8B424EF3A
:1020420010F026EF10F02EEF10F014BE2DEF10F06E
:102052002BEF10F02EEF10F01E8E1BC011F01CC0E3
:1020620012F01DC013F01EC014F01200000E1E6EFE
:10207200000E1D6E1A50D96EDA6ADFCFF6FF100E0F
:10208200F76EF86A0800F550250AD8A44BEF10F055
:102092004DEF10F0ECEF10F01A50D96EDA6ADF2A29
:1020A200000E0001F16F000EF06FF0C05AF0F269FD
:1020B200F3691A50D96EDA6ADF50236E23C0F6FF35
:1020C200100EF76EF86A0800F550750AD8A46CEF86
:1020D20010F06EEF10F0E2EF10F01B50D96EDA6ADA
:1020E200020EDF26DF5CD96EDA6ADECF1FF0DECFAA
:1020F20020F01A50D96EDA6A2328DF6ED5EF10F07D
:10210200200E246E24062450CA0FD96EDA6A1FC02C
:1021120011F020C012F0000E146E0A0E136ED5ECF0
:1021220016F01150300FDF6E1FC011F020C012F0F8
:10213200000E146E0A0E136E66EC16F011C01FF03C
:1021420012C020F01D4A1E2A1F502010D8B4ACEF36
:1021520010F0AEEF10F0C6EF10F02450D8A4B4EF98
:1021620010F0B6EF10F083EF10F0C6EF10F024502D
:10217200CA0FD96EDA6ADF501C6E1C50116E126AD9
:1021820019C013F086EC15F0242A200E2418D8A4C6
:10219200CDEF10F0CFEF10F0B8EF10F01DC019F036
:1021A2001EC01AF004EF11F023C0F6FF100EF76EF6
:1021B200F86A0800F550750AD8B481EF10F0E2EF22
:1021C20010F01A50D96EDA6ADF2A000E1A6E000E6B
:1021D200196E04EF11F01A50D96EDA6ADFCFF6FFEA
:1021E200100EF76EF86A0800F550116E126A19C0E7
:1021F20013F086EC15F01A50D96EDA6ADF2A000E57
:102202001A6E010E196E12005EEC1AF06B6EC40E9D
:10221200146E000E156E650E166EC3EC17F0D70E17
:102222002D6EA30E2E6E980E2F6E400E306E65C070
:1022320011F066C012F0136A146A000E5DEC0FF022
:1022420011C029F012C02AF013C02BF014C02CF0D8
:1022520064EC0AF029C042F02AC043F02BC044F0DB
:102262002CC045F0000E466EC00E476E7F0E486EC3
:10227200440E496E77EC0CF042C0EAF043C0EBF03A
:1022820044C0ECF045C0EDF0EAC042F0EBC043F0D0
:10229200ECC044F0EDC045F0E5EC12F042505C6E4B
:1022A200000E2D6E000E2E6EC80E2F6E420E306E78
:1022B2005C50116E126A136A146A000E5DEC0FF024
:1022C20011C025F012C026F013C027F014C028F068
:1022D200EAC021F0EBC022F0ECC023F0EDC024F004
:1022E20091EC18F021C029F022C02AF023C02BF073
:1022F20024C02CF064EC0AF029C042F02AC043F05A
:102302002BC044F02CC045F0E5EC12F042505B6E5D
:10231200BA0E266E000E276E000E286E010E296E72
:1023220069EC17F0670E426E5C50A8EC19F0BA0E19
:10233200226E670E236E246ADBEC15F0BA0E1F6E56
:102342002E0E206EF7EC18F0670E426E5B50A8EC72
:1023520019F0BA0E226E670E236E246ADBEC15F0BA
:10236200030E0001FF6F080EFE6F770EE82EFED7F8
:10237200FE2FFCD7FF2FFAD7BA0E226E0FEC1AF0FF
:1023820008EF11F007EF00F0010E176E1150D8B4EC
:10239200CDEF11F0CFEF11F0EDEF11F01150D96E3A
:1023A200DA6ADF30E832E832070B126E080E12608A
:1023B200DDEF11F0DFEF11F0EDEF11F01150D96EFA
:1023C200DA6ADF50070B126E040E1264EBEF11F0A3
:1023D200EDEF11F043EF12F0176A59EF12F01150BE
:1023E200D96EDA6ADF30E832E832070B126E010E7C
:1023F200136E122AFFEF11F0D8901336122EFDEF52
:1024020011F01350FF0A146E1150D96EDA6ADF50C0
:10241200070B020DF350A40FD96EDA6ADECF15F066
:10242200DDCF16F015C0D9FF16C0DAFF1450DF1643
:1024320059EF12F01150D96EDA6ADF30E832E83221
:10244200070B126E010E136E122A2AEF12F0D890A9
:102452001336122E28EF12F01150D96EDA6ADF50BD
:10246200070B020DF350A40FD96EDA6ADECF14F017
:10247200DDCF15F014C0D9FF15C0DAFF1350DF12FB
:1024820059EF12F01150D96EDA6ADFBC4BEF12F03D
:102492004EEF12F0010E4FEF12F0000E000AD8B408
:1024A200F0EF11F0010AD8B41BEF12F0EDEF11F0CA
:1024B20017501200010E256E2250D8A463EF12F0BD
:1024C20065EF12F068EF12F0256AE3EF12F022C016
:1024D20011F0000E126E55EC14F0251622C011F008
:1024E200000E126E68EC13F025162228116E000EF3
:1024F200126E55EC14F025162228116E000E126E83
:1025020068EC13F02516246A22502424020F116E5F
:10251200000E126E55EC14F0251622502424020FE0
:10252200116E000E126E68EC13F02516242A070EA7
:1025320024649EEF12F0A0EF12F085EF12F0270E46
:10254200236EF50EE82EFED7232EFCD7000022C004
:102552001FF0380E206E17EC19F025160D0E236EA3
:10256200FC0EE82EFED7232EFCD722C01FF0380E19
:10257200206E17EC19F02516640EE82EFED722C045
:102582001FF0380E206E17EC19F0251622C01FF02E
:10259200010E206E17EC19F0251622C01FF0020E54
:1025A200206E17EC19F0251622C01FF0060E206EC1
:1025B20017EC19F0251622C01FF00C0E206E17EC36
:1025C20019F0251625501200443445344B6E4B50F9
:1025D200D8A4EEEF12F0F0EF12F0FAEF12F0000EC4
:1025E200426E000E436E000E446E000E456E67EFA3
:1025F20013F042C046F043C047F044C048F045C023
:1026020049F0200E0AEF13F0D8904932483247328F
:102612004632E82E05EF13F046504A6E448EFF0E06
:102622004216FF0E4316FF0E4416000E4516960E76
:102632004B5E4BBE21EF13F01FEF13F037EF13F099
:102642004B50800A970FD8B029EF13F02BEF13F0FD
:102652002DEF13F0F0EF12F0D890453244324332AE
:1026620042324B3E2DEF13F04FEF13F01F0E4B642F
:102672003DEF13F03FEF13F047EF13F0F0EF12F0DE
:10268200D89042364336443645364B064B50D8A492
:102692004DEF13F04FEF13F041EF13F04A50D8B45F
:1026A20055EF13F057EF13F05FEF13F0451E441E82
:1026B200431E426C000E43224422452242C042F095
:1026C20043C043F044C044F045C045F01200010E3F
:1026D200186E1150D8A470EF13F072EF13F0C8EF18
:1026E20013F0186ADDEF13F01150D96EDA6ADF3099
:1026F200E832E832070B136E010E146E132A84EFD0
:1027020013F0D8901436132E82EF13F01450FF0AF0
:10271200156E1150D96EDA6ADF50070B020DF350B5
:102722009A0FD96EDA6ADECF16F0DDCF17F016C037
:10273200D9FF17C0DAFF1550DF16DDEF13F0115085
:10274200D96EDA6ADF30E832E832070B136E010E17
:10275200146E132AAFEF13F0D8901436132EADEF88
:1027620013F01150D96EDA6ADF50070B020DF350E5
:102772009A0FD96EDA6ADECF15F0DDCF16F015C0EA
:10278200D9FF16C0DAFF1450DF12DDEF13F012503A
:10279200136E146A1450000AD8B4D2EF13F072EF19
:1027A20013F01350000AD8B475EF13F0010AD8B42D
:1027B200A0EF13F072EF13F018501200800E2B5C92
:1027C200D8A0E6EF13F0E8EF13F0EFEF13F0000EEE
:1027D2000001F56F4B0EF46F54EF14F02D0E346EB2
:1027E20029C037F02B5009E1020E2A5CD8A0FCEF79
:1027F20013F0FEEF13F00AEF14F0FF0E2A24406EDE
:10280200FF0E2B20416E000E3A6E000E396E12EF53
:1028120014F0000E416E010E406E000E3A6E010E73
:10282200396E370E256E2CC026F0340E276E19EC49
:1028320018F025C035F026C036F02A502B10D8B437
:1028420025EF14F027EF14F054EF14F036BE2CEFFE
:1028520014F02EEF14F054EF14F0FF0E2A242F6E12
:10286200FF0E2B20306E2F50355C3650800A316EB1
:102872003050800A3158D8A041EF14F043EF14F0E1
:102882004BEF14F0FF0E2A24326EFF0E2B20336E14
:102892004FEF14F035C032F036C033F029503224F5
:1028A200D96EDA6ADF6A1200010E186E1150D8A4CE
:1028B2005DEF14F05FEF14F0B5EF14F0186AC0EF9B
:1028C20014F01150D96EDA6ADF30E832E832070BC1
:1028D200136E010E146E132A71EF14F0D890143691
:1028E200132E6FEF14F01450FF0A156E1150D96EAB
:1028F200DA6ADF50070B020DF350A40FD96EDA6AC1
:10290200DECF16F0DDCF17F016C0D9FF17C0DAFF01
:102912001550DF16C0EF14F01150D96EDA6ADF30AD
:10292200E832E832070B136E010E146E132A9CEF85
:1029320014F0D8901436132E9AEF14F01150D96E69
:10294200DA6ADF50070B020DF350A40FD96EDA6A70
:10295200DECF15F0DDCF16F015C0D9FF16C0DAFFB5
:102962001450DF12C0EF14F01250000AD8B462EF14
:1029720014F0010AD8B48DEF14F05FEF14F0185080
:102982001200136EECEF14F092802DEF15F092828C
:102992002DEF15F092842DEF15F092862DEF15F0A4
:1029A200928A2DEF15F0968A2DEF15F0968C2DEF69
:1029B20015F0968E2DEF15F093842DEF15F093867A
:1029C2002DEF15F093822DEF15F093882DEF15F072
:1029D20093802DEF15F01350116E126A1250000AF7
:1029E200D8B4F6EF14F02DEF15F01150000AD8B458
:1029F200C5EF14F0010AD8B4C8EF14F0030AD8B432
:102A0200CBEF14F0010AD8B4CEEF14F0070AD8B411
:102A1200D1EF14F0010AD8B4D4EF14F0030AD8B4F9
:102A2200D7EF14F0010AD8B4DAEF14F00F0AD8B4D1
:102A3200DDEF14F0010AD8B4E0EF14F0030AD8B4C1
:102A4200E3EF14F0010AD8B4E6EF14F0070AD8B4A1
:102A5200E9EF14F02DEF15F012002250D8B434EF44
:102A620015F036EF15F046EF15F0030E23603CEF3C
:102A720015F03EEF15F046EF15F0140E246444EF06
:102A820015F046EF15F071EF15F0256A84EF15F099
:102A920022C01FF02450800F206E17EC19F0256E13
:102AA20084EF15F022C01FF02450C00F206E17ECE7
:102AB20019F0256E84EF15F022C01FF02450940FF8
:102AC200206E17EC19F0256E84EF15F022C01FF06E
:102AD2002450D40F206E17EC19F0256E84EF15F0F8
:102AE2002350000AD8B449EF15F0010AD8B453EFC5
:102AF20015F0030AD8B45DEF15F0010AD8B467EFF8
:102B020015F046EF15F0255012001350D8B48CEF93
:102B120015F08EEF15F096EF15F01350D8A494EF40
:102B220015F096EF15F09BEF15F011508AEC1AF0A4
:102B3200DAEF15F01350D96EDA6A090ED926DE5093
:102B4200DE10D8B4A7EF15F0A9EF15F0C2EF15F01B
:102B52001350D96EDA6A090ED9261350E16EE26A71
:102B6200020EE126DE50E65CE650800A186EDE5068
:102B7200800A1858D8B0C0EF15F0C2EF15F0DAEF9E
:102B820015F01350D96EDA6A020ED926DF50146E90
:102B92001350D96EDA6ADF501424D96EDA6A11C082
:102BA200DFFF1350D96EDA6A020ED926DE2A000E32
:102BB200DD221200256A2250D8B4E2EF15F0E4EFCC
:102BC20015F0EDEF15F023502410D8A4EBEF15F01B
:102BD200EDEF15F008EF16F0256A21EF16F022C08E
:102BE2001FF023C0F6FF24C0F7FF000EF86E0F0E91
:102BF200F76403D00800F55005D0F6CFE9FFF7CF10
:102C0200EAFFEF50206EF7EC18F0234A242A23C083
:102C1200F6FF24C0F7FF000EF86E0F0EF76403D024
:102C22000800F55005D0F6CFE9FFF7CFEAFFEF50E5
:102C32000009D8A41FEF16F021EF16F0F0EF15F0FF
:102C420025501200010E1C6E63C01DF01950D96E82
:102C5200DA6ADF50070B1A6E1D501A18F80B1A1891
:102C62001D6E1950D96EDA6ADF30E832E832070B8E
:102C72001A6E1A461A461A461D501A18C70B1A1807
:102C82001D6E1D9C1950D96EDA6ADFAC02D01D8E02
:102C920001D01D9E000E1DBE010E1B6E1950D8A440
:102CA20055EF16F057EF16F05AEF16F01C6A64EF64
:102CB20016F01D0E116EC5EC11F01D0E116E1BC02B
:102CC20012F068EC13F01C501200000E166E000E8B
:102CD200156E13501410D8B471EF16F073EF16F08E
:102CE2009BEF16F0010E176E7BEF16F0D89013369D
:102CF2001436172A14AE80EF16F082EF16F077EF33
:102D020016F0D890153616361350115C145012581E
:102D1200D8A08EEF16F090EF16F095EF16F0135044
:102D2200115E1450125A1580D89014321332172E95
:102D320082EF16F015C011F016C012F0120060C03A
:102D420008F00650D96EDA6ADF50070B076E08509A
:102D52000718F80B0718086E0650D96EDA6ADF30CA
:102D6200E832E832070B076E074607460746085067
:102D72000718C70B0718086E089C0650D96EDA6A46
:102D8200DFAC02D0088E01D0089E0650D8A4CCEF4A
:102D920016F0CEEF16F0D0EF16F0D4EF16F0080EC4
:102DA200016E38EC17F0120013501410D8B4DCEF97
:102DB20016F0DEEF16F002EF17F0010E156EE6EFD9
:102DC20016F0D89013361436152A14AEEBEF16F01F
:102DD200EDEF16F0E2EF16F01350115C145012589A
:102DE200D8A0F6EF16F0F8EF16F0FCEF16F013503D
:102DF200115E1450125AD89014321332152EEDEF80
:102E020016F011C011F012C012F01200D80EF66EB8
:102E1200300EF76E000EF86E00EE80F010EE4AF003
:102E22000900F5CFEEFFE550E150FAE1E40EF66E4F
:102E3200340EF76E000EF86E00EE67F010EE07F03B
:102E42000900F5CFEEFFE550E150FAE100EECAF0DD
:102E5200300EEE6AE806FDE100EE4CF01B0EEE6A63
:102E6200E806FDE16E906E92000105EF11F001504F
:102E7200D8A43EEF17F040EF17F042EF17F068EFDB
:102E820017F00150D96EDA6ADF30E832E832070B08
:102E9200026E010E036E022A51EF17F0D89003362C
:102EA200022E4FEF17F00150D96EDA6ADF50070B8E
:102EB200020DF3509A0FD96EDA6ADECF04F0DDCF3D
:102EC20005F004C0D9FF05C0DAFF0350DF1A120073
:102ED2002650D8B46FEF17F071EF17F081EF17F0AB
:102EE200030E276077EF17F079EF17F081EF17F0F5
:102EF200140E28647FEF17F081EF17F083EF17F0BD
:102F020095EF17F026C022F027C023F028C024F046
:102F12002EEC15F026C022F029C023F02350D8A4AD
:102F2200100E246EDBEC15F012001950D8A49CEFA1
:102F320017F09EEF17F0A1EF17F01D6AC1EF17F01F
:102F42001E6A19501E24020F116E1EC01BF01AC0F9
:102F52001CF01B2AAFEF17F0D8901C321B2EADEFDE
:102F620017F01C50010B126E68EC13F01D6E1E2A36
:102F7200070E1E64BFEF17F0C1EF17F0A2EF17F0B4
:102F82001D5012001450D8B4C9EF17F0CBEF17F050
:102F9200D3EF17F01650D8A4D1EF17F0D3EF17F0F4
:102FA200D5EF17F0EDEF17F015C017F017461746DB
:102FB200C2501718C30B1718C26E1550C2EC14F08A
:102FC200C282C2B2E7EF17F0E9EF17F0E2EF17F0B3
:102FD20016C011F0EBEC19F012001150D8A4F4EF66
:102FE20017F0F6EF17F000EF18F018EF18F0C1988D
:102FF200C19A18EF18F0C188C18A18EF18F0115061
:10300200D96EDA6A050ED926DFB00AEF18F00DEF95
:1030120018F0010E0EEF18F0000E000AD8B4F8EF07
:1030220017F0010AD8B4FCEF17F0F6EF17F0120010
:1030320026C028F0000E0001EF6F000EEE6F2FEF9A
:1030420018F025C019F0280E1A6E27C01BF037ECB5
:1030520010F019500001EE271A50EF2328C0F6FF96
:10306200100EF76EF86A0800F5500009D8A43CEF7C
:1030720018F03EEF18F022EF18F0EEC025F0EFC086
:1030820026F012001850D8A449EF18F04BEF18F0B0
:103092004DEF18F06BEF18F079EC1AF018C011F040
:1030A200EEEC17F018C011F08EEC19F018C011F008
:1030B20074EC19F018C011F0C1EC19F0C08EC28086
:1030C200000E20EC1AF018C011F0FDEC19F01950A6
:1030D20041EC1AF012003738392F3435362A3132A2
:1030E200332D43303D2B800F810F820F830F840FCE
:1030F200890F8A0F8B0F8C0F8D0F920F930F940FE6
:10310200950F960FA20F9F0FA10F9E0FA00F9D0F5D
:10311200212910182028030B1B2262340C02000004
:10312200000E251A000E261A000E271A800E281AE3
:1031320021C011F022C012F023C013F024C014F0F9
:1031420025C015F026C016F027C017F028C018F0C9
:1031520009EC08F011C021F012C022F013C023F0D4
:1031620014C024F01200176E11C012F0010E136E7B
:10317200122ABEEF18F0D8901336122EBCEF18F0B8
:103182001350FF0A146E1750020DF350B20FD96E8E
:10319200DA6ADECF15F0DDCF16F015C0D9FF16C002
:1031A200DAFF1450DF16010E1200076E01C002F0A2
:1031B200010E036E022AE0EF18F0D8900336022EB9
:1031C200DEEF18F00350FF0A046E0750020DF350B1
:1031D200B20FD96EDA6ADECF05F0DDCF06F005C098
:1031E200D9FF06C0DAFF0450DF1612001F50D8A420
:1031F200FDEF18F0FFEF18F002EF19F0216A15EF5A
:1032020019F01FC011F0010E126E68EC13F0216E5E
:103212001FC019F020C01AF096EC17F0216E1FC0E3
:1032220019F056EC19F0216E215012001F50D8A44B
:103232001DEF19F01FEF19F022EF19F0216A35EF97
:1032420019F01FC011F0000E126E68EC13F0216E1F
:103252001FC019F020C01AF096EC17F0216E1FC0A3
:1032620019F056EC19F0216E21501200166E11C0A1
:1032720012F0010E136E122A41EF19F0D890133694
:10328200122E3FEF19F01650020DF350B60FD96E01
:10329200DA6ADECF14F0DDCF15F014C0D9FF15C005
:1032A200DAFF1350DF12010E12001950D8A45CEF9E
:1032B20019F05EEF19F061EF19F01A6A72EF19F066
:1032C2001928116E010E126E68EC13F0030EE82E2F
:1032D200FED700001928116E000E126E68EC13F072
:1032E2001A6E1A5012001150D8A47AEF19F07CEF1E
:1032F20019F07EEF19F08DEF19F01150D96EDA6ADC
:10330200030ED926DF50126E124612461246C050E4
:103312001218C70B1218C06E12001150D8A494EFE5
:1033220019F096EF19F098EF19F0A7EF19F0115074
:10333200D96EDA6A020ED926DF50126E12500E08CA
:10334200136EC1501318F00B1318C16E1200436EA6
:103352004250D8A4AFEF19F0B1EF19F0B3EF19F062
:10336200C0EF19F042C029F0000E2B6E040E2A6E37
:103372000D0E2C6E43C02DF02E6ADFEC13F01200FE
:103382001150D8A4C7EF19F0C9EF19F0CBEF19F01B
:10339200D7EF19F01150D96EDA6A040ED926DF5030
:1033A200126EC0501218F80B1218C06E1200060EE0
:1033B200016E010ED6EC18F002D8EAEF19F0050002
:1033C200FA6E0001F651FD6EF751FE6EFF6AFA5079
:1033D20012001200C350C4CF12F0136A12C013F0CD
:1033E200126A1226000E13221150D96EDA6A12C026
:1033F200DEFF13C0DDFF12001150D8A403EF1AF054
:1034020005EF1AF007EF1AF00EEF1AF01150D96E0D
:10341200DA6ADECFF6F0DDCFF7F012002250D8A440
:1034220015EF1AF017EF1AF019EF1AF01FEF1AF052
:1034320022C01FF0010E206E17EC19F01200116E5F
:103442001104D8A427EF1AF029EF1AF02DEF1AF081
:1034520076EC1AF02FEF1AF079EC1AF0010E120046
:103462006D0E066EA0EC16F00B0E0A6E260E096E9D
:103472005E0EE82EFED7092EFCD70A2EFAD71200CE
:1034820079EC1AF0060E116E010EB4EC18F0060E6D
:10349200116E010E37EC19F076EC1AF01200010EE3
:1034A200266E6D0E196E23EC16F02616BA0E226EDB
:1034B2005BEC12F026162650120050EC1AF06B1636
:1034C20066EC1AF06B166B501200C40E186E43ECC9
:1034D20018F0010E1200040E016E000ED6EC18F068
:0934E200120001010101010102C7
:1034EC00F28EF28C1200F29EF29C1200F2901200FC
:1034FC00F2901200F2901200F2901200F290120070
:0A350C00F2901200F2921200120079
:020000040020DA
:08000000FFFFFFFFFFFFFFFF00
:020000040030CA
:0E000000FF02091EFF8181FF0FC00FE00F40BD
:00000001FF
