:020000040000FA
:0400000007EF00F016
:0A0008007E8239ED0EF070EF14F067
:05100000002575000051
:101006000450800B0D6E045004240F6E03AE0EEFD9
:1010160008F010EF08F011EF08F00F800F50D8B469
:1010260017EF08F019EF08F02DEF08F00F28D8A4F5
:101036001FEF08F021EF08F029EF08F0000E016E0F
:10104600000E026E000E036E000E046E038E046A1E
:1010560035EF08F0000E016E000E026E000E036EF4
:10106600000E046E0850800B0E6E0D500E18D8B48C
:101076003FEF08F041EF08F042EF08F00D8C085002
:1010860008240E6E07AE4AEF08F04CEF08F04DEF5D
:1010960008F00E800E50D8B453EF08F055EF08F064
:1010A60069EF08F00E28D8A45BEF08F05DEF08F0B2
:1010B60065EF08F0000E056E000E066E000E076E58
:1010C600000E086E078E086A71EF08F0000E056EB6
:1010D600000E066E000E076E000E086E0F500E5CB8
:1010E600D8B078EF08F07AEF08F0A1EF08F00DAC71
:1010F6007FEF08F081EF08F083EF08F0800E0D1AFD
:101106000FC010F00EC00FF010C00EF001C010F0AE
:1011160005C001F010C005F002C010F006C002F0D4
:1011260010C006F003C010F007C003F010C007F0AF
:1011360004C010F008C004F010C008F0106A0F5088
:101146000EC009F00A6A095E000E0A5A0ABEB5EF19
:1011560008F00A5009E11A0E095CD8A0B5EF08F0AC
:10116600B7EF08F0EEEF08F001500210031004107C
:10117600D8A4C0EF08F0C3EF08F0010EC4EF08F0E2
:10118600000E106E000E016E000E026E000E036E53
:10119600000E046E0EC00FF0F7EF08F010A0D6EFA9
:1011A60008F0D8EF08F0DEEF08F0D890103001090B
:1011B600106EE0EF08F0D890103201A0E5EF08F0CD
:1011C600E7EF08F0E8EF08F0108E0434043203323B
:1011D600023201320F2A0E500F5CD8A0F5EF08F04C
:1011E600F7EF08F0D1EF08F00DBCFCEF08F0FEEFCA
:1011F60008F03EEF09F00F50D8A404EF09F006EF0F
:1012060009F010EF09F0000E016E000E026E000EDE
:10121600036E000E046E5DEF0AF0055001260650BF
:101226000222075003220850042204A01DEF09F0F1
:101236001FEF09F0CBEF09F010A024EF09F026EF1D
:1012460009F02CEF09F0D89010300109106E2EEF3E
:1012560009F0D890103201A033EF09F035EF09F00C
:1012660036EF09F0108E04340432033202320132B2
:101276000F2ACBEF09F00550015C065002580750C3
:1012860003580450800A096E0850800A0958D8B0DD
:101296004FEF09F051EF09F07CEF09F00150055CC2
:1012A600096E025006580A6E035007580B6E04501A
:1012B60008580C6EFF0E0924016EFF0E0A20026EFE
:1012C600FF0E0B20036EFF0E0C20046E800E0D1A0F
:1012D600106C1050D8A472EF09F074EF09F084EF87
:1012E60009F0010E0126000E02220322042284EFD9
:1012F60009F00550015E0650025A0750035A08507D
:10130600045A0150021003100410D8A48DEF09F0FE
:101316008FEF09F0C4EF09F01050D8A495EF09F04B
:1013260097EF09F0C4EF09F0000E016E000E026E91
:10133600000E036E000E046E5DEF0AF0D8900136C3
:1013460002360336043610AEABEF09F0ADEF09F006
:10135600AEEF09F0018010A0B3EF09F0B5EF09F088
:10136600B9EF09F0D8801036BBEF09F0D8901036E7
:101376000F50D8B4C1EF09F0C3EF09F0C4EF09F07C
:101386000F0603AEC9EF09F0CBEF09F0A1EF09F0A4
:101396000E6A10AED1EF09F0D3EF09F0EBEF09F0CA
:1013A60010C009F07F0E0916D8B4DCEF09F0DEEFA5
:1013B60009F0E2EF09F0010E0E6EEBEF09F001A065
:1013C600E7EF09F0E9EF09F0EBEF09F0DEEF09F0DE
:1013D6000E50D8B4F1EF09F0F3EF09F01EEF0AF062
:1013E600010E0126000E02220322042204A0FEEFB3
:1013F60009F000EF0AF01EEF0AF001C009F002C082
:101406000AF003C00BF004C00CF00C340C320B32A3
:101416000A32093209C001F00AC002F00BC003F01B
:101426000CC004F00F28D8B41BEF0AF01DEF0AF029
:101436001EEF0AF00F2A0F28D8B424EF0AF026EF81
:101446000AF02EEF0AF00F50D8A42CEF0AF02EEF78
:101456000AF03FEF0AF0000E016E000E026E000E5B
:10146600036E000E046E0F50D8A43CEF0AF03EEF58
:101476000AF03FEF0AF00D6A0FA044EF0AF046EFBC
:101486000AF049EF0AF0038E4AEF0AF0039ED8905D
:101496000F30046E0DAE52EF0AF054EF0AF055EF1E
:1014A6000AF0048E01C001F002C002F003C003F08E
:1014B60004C004F012003350800B3C6E33503324CA
:1014C600426E32AE69EF0AF06BEF0AF06CEF0AF08B
:1014D60042804250D8B472EF0AF074EF0AF087EFF8
:1014E6000AF04228D8A47AEF0AF07CEF0AF084EFDB
:1014F6000AF0000E306E000E316E000E326E000ED7
:10150600336E328E8FEF0AF0000E306E000E316EA3
:10151600000E326E000E336E3750800B3C1A375079
:101526003724416E36AE9AEF0AF09CEF0AF09DEF33
:101536000AF041804150D8B4A3EF0AF0A5EF0AF0B3
:10154600B8EF0AF04128D8A4ABEF0AF0ADEF0AF0E5
:10155600B5EF0AF0000E346E000E356E000E366ED4
:10156600000E376E368EC0EF0AF0000E346E000E97
:10157600356E000E366E000E376E4150D8B4C6EF8B
:101586000AF0C8EF0AF0D0EF0AF04250D8A4CEEF26
:101596000AF0D0EF0AF0DAEF0AF0000E306E000E15
:1015A600316E000E326E000E336E70EF0CF0365058
:1015B6003002F3CF47F0F4CF48F047503D6E3E6A15
:1015C6003F6A406A4850436E446A456A466A3550E7
:1015D6003102F3CF47F0F4CF48F047503D26000ED6
:1015E6003E223F22402248504326000E44224522F6
:1015F600462234503202F3CF47F0F4CF48F047503A
:101606003D26000E3E223F22402248504326000E31
:101616004422452246223FC040F03EC03FF03DC036
:101626003EF03D6A34503102F3CF47F0F4CF48F034
:1016360047503D2648503E22000E3F22000E4022D3
:1016460035503002F3CF47F0F4CF48F047503D26EF
:1016560048503E22000E3F22000E40223FC040F07E
:101666003EC03FF03DC03EF03D6A34503002F3CFFD
:1016760047F0F4CF48F047503D2648503E22000E32
:101686003F22000E402236503102F3CF47F0F4CF0E
:1016960048F04750432648504422000E4522000E8B
:1016A600462235503202F3CF47F0F4CF48F0475088
:1016B600432648504422000E4522000E462236504C
:1016C6003202F3CF47F0F4CF48F04750386E485017
:1016D600396E3A6A3B6A3AC03BF039C03AF038C0D4
:1016E60039F0386A38504326395044223A50452258
:1016F6003B5046223DC038F03EC039F03FC03AF07C
:1017060040C03BF0190E8DEF0BF0D8903B323A32C9
:1017160039323832E82E88EF0BF0385043263950EC
:1017260044223A5045223B5046223FC040F03EC03C
:101736003FF03DC03EF03D6A415042C038F0396A44
:101746003826000E3922820E3824476EFF0E3920C5
:10175600486EC3EF0BF0D8904336443645364636CE
:1017660040AEB8EF0BF0BAEF0BF0BBEF0BF04380D7
:10177600D8903D363E363F3640364706D8A0480616
:1017860045AEC8EF0BF0CAEF0BF0AEEF0BF0416AB7
:1017960040AED0EF0BF0D2EF0BF0F6EF0BF0FF0EF2
:1017A6003D14386EFF0E3E14396EFF0E3F143A6E2E
:1017B6007F0E40143B6E385039103A103B10D8B4A7
:1017C600E7EF0BF0E9EF0BF0EDEF0BF0010E416EDA
:1017D600F6EF0BF043A0F2EF0BF0F4EF0BF0F6EFA1
:1017E6000BF0E9EF0BF04150D8B4FCEF0BF0FEEF35
:1017F6000BF022EF0CF0010E4326000E4422452288
:10180600462246A009EF0CF00BEF0CF022EF0CF08D
:1018160043C038F044C039F045C03AF046C03BF00A
:101826003B343B323A323932383238C043F039C071
:1018360044F03AC045F03BC046F0474A482A48BE05
:101846002DEF0CF0485008E14728D8A02DEF0CF0FA
:101856002FEF0CF039EF0CF0000E436E000E446EC5
:10186600800E456E7F0E466E66EF0CF048BE46EF64
:101876000CF0485006E14704D8B044EF0CF046EFB0
:101886000CF051EF0CF0000E436E000E446E000E8D
:10189600456E000E466E3C6A66EF0CF047C042F09D
:1018A600FF0E4316FF0E44167F0E4516000E461613
:1018B60042A060EF0CF062EF0CF063EF0CF0458E87
:1018C600D8904230466E3C50461243C030F044C079
:1018D60031F045C032F046C033F012001250800B92
:1018E6001F6E12501224266E11AE7CEF0CF07EEFA6
:1018F6000CF07FEF0CF026802650D8B485EF0CF064
:1019060087EF0CF09BEF0CF02628D8A48DEF0CF097
:101916008FEF0CF097EF0CF0000E0F6E000E106EAE
:10192600000E116E000E126E118E126AA3EF0CF0ED
:10193600000E0F6E000E106E000E116E000E126E6F
:101946001650800B1F1A16501624276E15AEAEEFD2
:101956000CF0B0EF0CF0B1EF0CF027802750D8B4A4
:10196600B7EF0CF0B9EF0CF0CDEF0CF02728D8A4A8
:10197600BFEF0CF0C1EF0CF0C9EF0CF0000E136EC8
:10198600000E146E000E156E000E166E158E166A7B
:10199600D5EF0CF0000E136E000E146E000E156ED1
:1019A600000E166E1350141015101610D8A4DEEF84
:1019B6000CF0E0EF0CF0F8EF0CF0000E0F6E000EDE
:1019C600106E000E116E000E126E800E11127F0E3A
:1019D60012121F5012120FC00FF010C010F011C0DB
:1019E60011F012C012F038EF0EF02650D8A4FEEF18
:1019F6000CF000EF0DF00AEF0DF0000E0F6E000E6A
:101A0600106E000E116E000E126E38EF0EF027509B
:101A160026C017F0186A175E000E185A7F0E172494
:101A2600206E000E1820216E0FC01BF010C01CF097
:101A360011C01DF012C01EF0000E0F6E000E106ECB
:101A4600000E116E000E126E000E226E000E236E38
:101A5600000E246E000E256E276A6AEF0DF02750E1
:101A6600D8B438EF0DF03AEF0DF051EF0DF0D890F5
:101A76001B361C361D361E36D8900F3610361136DC
:101A8600123625AE49EF0DF04BEF0DF04CEF0DF091
:101A96000F80D890223623362436253613501B5C09
:101AA60014501C5815501D5816501E58D8A05EEFDD
:101AB6000DF060EF0DF069EF0DF0258C13501B5EF5
:101AC60014501C5A15501D5A16501E5A272A190E04
:101AD600276470EF0DF072EF0DF032EF0DF01B5032
:101AE6001C101D101E10D8B47BEF0DF07DEF0DF00D
:101AF60095EF0DF0228095EF0DF0D8900F36103649
:101B06001136123625AE8AEF0DF08CEF0DF08DEF03
:101B16000DF00F80D890223623362436253620063F
:101B2600D8A0210611AE9AEF0DF09CEF0DF080EFD4
:101B36000DF0276A25AEA2EF0DF0A4EF0DF0C8EF69
:101B46000DF0FF0E2214176EFF0E2314186EFF0EF3
:101B56002414196E7F0E25141A6E175018101910BA
:101B66001A10D8B4B9EF0DF0BBEF0DF0BFEF0DF0C2
:101B7600010E276EC8EF0DF00FA0C4EF0DF0C6EFF3
:101B86000DF0C8EF0DF0BBEF0DF02750D8B4CEEF37
:101B96000DF0D0EF0DF0F4EF0DF0010E0F26000E54
:101BA60010221122122212A0DBEF0DF0DDEF0DF054
:101BB600F4EF0DF00FC017F010C018F011C019F0B7
:101BC60012C01AF01A341A3219321832173217C0E4
:101BD6000FF018C010F019C011F01AC012F0204A08
:101BE600212A21BEFFEF0DF0215008E12028D8A0C0
:101BF600FFEF0DF001EF0EF00CEF0EF0000E216E70
:101C06002068000E0F6E000E106E000E116E000E94
:101C1600126E21BE19EF0EF0215006E12004D8B055
:101C260017EF0EF019EF0EF026EF0EF0000E216EF4
:101C3600000E206E000E0F6E000E106E000E116E5E
:101C4600000E126E1F6A20C026F026A02DEF0EF0A1
:101C56002FEF0EF032EF0EF0118E33EF0EF0119ED5
:101C6600D8902630126EECEF0CF012000600FACF78
:101C760055F0FBCF56F0D9CF57F0DACF58F0F3CF67
:101C860059F0F4CF5AF0F2A84BEF0EF04DEF0EF0EC
:101C960056EF0EF0F2A252EF0EF054EF0EF056EFA2
:101CA6000EF03EEC17F0F2A65BEF0EF05DEF0EF0D5
:101CB60076EF0EF0F2A062EF0EF064EF0EF076EF24
:101CC6000EF081A869EF0EF06BEF0EF076EF0EF0D6
:101CD6007804D8A471EF0EF073EF0EF076EF0EF0E5
:101CE600786A3AEC17F0F2A67BEF0EF07DEF0EF075
:101CF60097EF0EF0F2A082EF0EF084EF0EF097EF62
:101D06000EF081B889EF0EF08BEF0EF097EF0EF024
:101D16007850D8A491EF0EF093EF0EF097EF0EF0F7
:101D2600010E786E3CEC17F0F2A69CEF0EF09EEFDB
:101D36000EF0B7EF0EF0F2A0A3EF0EF0A5EF0EF047
:101D4600B7EF0EF081AAAAEF0EF0ACEF0EF0B7EFE8
:101D56000EF07904D8A4B2EF0EF0B4EF0EF0B7EFA0
:101D66000EF0796A36EC17F0F2A6BCEF0EF0BEEF75
:101D76000EF0D8EF0EF0F2A0C3EF0EF0C5EF0EF0A6
:101D8600D8EF0EF081BACAEF0EF0CCEF0EF0D8EF16
:101D96000EF07950D8A4D2EF0EF0D4EF0EF0D8EFB3
:101DA6000EF0010E796E38EC17F0F2A6DDEF0EF0AC
:101DB600DFEF0EF0F8EF0EF0F2A0E4EF0EF0E6EF34
:101DC6000EF0F8EF0EF081ACEBEF0EF0EDEF0EF04B
:101DD600F8EF0EF07A04D8A4F3EF0EF0F5EF0EF05C
:101DE600F8EF0EF07A6A32EC17F0F2A6FDEF0EF07D
:101DF600FFEF0EF019EF0FF0F2A004EF0FF006EF71
:101E06000FF019EF0FF081BC0BEF0FF00DEF0FF095
:101E160019EF0FF07A50D8A413EF0FF015EF0FF06B
:101E260019EF0FF0010E7A6E34EC17F0A1A81EEF31
:101E36000FF020EF0FF029EF0FF0A0A825EF0FF01D
:101E460027EF0FF029EF0FF016EC17F09EAC2EEFF0
:101E56000FF030EF0FF039EF0FF09DAC35EF0FF0CC
:101E660037EF0FF039EF0FF01CEC17F0F2A43EEF4E
:101E76000FF040EF0FF049EF0FF0F2AA45EF0FF029
:101E860047EF0FF049EF0FF0D0EC16F09EA04EEFA3
:101E96000FF050EF0FF059EF0FF09DA055EF0FF038
:101EA60057EF0FF059EF0FF08BEC16F09EA25EEF96
:101EB6000FF060EF0FF069EF0FF09DA265EF0FF0E6
:101EC60067EF0FF069EF0FF00AEC17F0A1A26EEFC3
:101ED6000FF070EF0FF079EF0FF0A0A275EF0FF093
:101EE60077EF0FF079EF0FF079EC16F09EA47EEF06
:101EF6000FF080EF0FF089EF0FF09DA485EF0FF044
:101F060087EF0FF089EF0FF054EC16F05AC0F4FF8C
:101F160059C0F3FF58C0DAFF57C0D9FF56C0FBFFC0
:101F260055C0FAFF7E921100096E0950D8B49EEF93
:101F36000FF0A0EF0FF0C2EF0FF004BEA7EF0FF007
:101F4600A5EF0FF0C2EF0FF001C005F002C006F0DA
:101F560003C007F004C008F0051E061E071E081E73
:101F6600052A000E06220722082205C00BF006C02D
:101F76000CF007C00DF008C00EF0CAEF0FF001C05C
:101F86000BF002C00CF003C00DF004C00EF00150BF
:101F9600021003100410D8A4D3EF0FF0D5EF0FF002
:101FA600DFEF0FF0000E016E000E026E000E036EE4
:101FB600000E046E70EF10F0960E0A6EE9EF0FF049
:101FC6000A2AD8900E320D320C320B32000E0B1448
:101FD600056E000E0C14066E000E0D14076EFE0E36
:101FE6000E14086E0550061007100810D8A4FEEF50
:101FF6000FF000EF10F0E3EF0FF00EEF10F00A2AEB
:10200600010E0B26000E0C220D220E22D8900E3247
:102016000D320C320B32000E0B14056E000E0C1432
:10202600066E000E0D14076EFF0E0E14086E055098
:10203600061007100810D8A423EF10F025EF10F0B3
:1020460002EF10F02DEF10F00A06D8900B360C3682
:102056000D360E360DBE32EF10F034EF10F03CEFB9
:1020660010F0020E0A603AEF10F03CEF10F027EF86
:1020760010F00AB041EF10F043EF10F044EF10F00B
:102086000D9ED8900A320AC005F0066A076A086AE9
:1020960005C008F0076A066A056A05500B12065065
:1020A6000C1207500D1208500E120950D8B45EEFEC
:1020B60010F060EF10F068EF10F004BE67EF10F05C
:1020C60065EF10F068EF10F00E8E0BC001F00CC03B
:1020D60002F00DC003F00EC004F01200B26AB36A3B
:1020E6006950D8A479EF10F07BEF10F0D9EF10F01B
:1020F600000E136E000E146EC80E156E420E166E8E
:102106000001E351016E026A036A046A010E97EC4C
:102116000FF001C00FF002C010F003C011F004C0B0
:1021260012F071EC0CF00FC02CF010C02DF011C0A5
:102136002EF012C02FF0000E286E000E296E800EB3
:102146002A6E3F0E2B6EC5EC15F028C034F029C060
:1021560035F02AC036F02BC037F074C001F075C0D8
:1021660002F076C003F077C004F0000E97EC0FF093
:1021760001C030F002C031F003C032F004C033F0C9
:102186005EEC0AF030C049F031C04AF032C04BF084
:1021960033C04CF0C4EC11F049C053F04AC054F0BF
:1021A60027EC17F0010E696E2AEF11F06904D8A426
:1021B600DFEF10F0E1EF10F02AEF11F0000E136ED2
:1021C600000E146EC80E156E420E166E0001E35117
:1021D600016E026A036A046A010E97EC0FF001C0F1
:1021E6000FF002C010F003C011F004C012F071EC41
:1021F6000CF00FC034F010C035F011C036F012C02C
:1022060037F074C001F075C002F076C003F077C0F5
:1022160004F0000E97EC0FF001C030F002C031F070
:1022260003C032F004C033F05EEC0AF030C049F06F
:1022360031C04AF032C04BF033C04CF0C4EC11F060
:1022460049C053F04AC054F027EC17F0696A1200EF
:10225600010E0001EB6FE551D8B434EF11F036EF03
:1022660011F054EF11F0E551D96EDA6ADF30E83239
:10227600E832070BE66F080EE66144EF11F046EF11
:1022860011F054EF11F0E551D96EDA6ADF50070B01
:10229600E66F040EE66552EF11F054EF11F0ACEF65
:1022A60011F0EB6BC2EF11F0E551D96EDA6ADF304F
:1022B600E832E832070BE66F010EE76FE62B66EFB2
:1022C60011F0D890E737E62F64EF11F00001E751DF
:1022D600FF0AE86FE551D96EDA6ADF50070B020D87
:1022E600F350A40FD96EDA6ADECFE9F0DDCFEAF05B
:1022F600E9C0D9FFEAC0DAFFE851DF16C2EF11F0F4
:10230600E551D96EDA6ADF30E832E832070BE66F5C
:10231600010EE76FE62B92EF11F0D890E737E62F24
:1023260090EF11F00001E551D96EDA6ADF50070B24
:10233600020DF350A40FD96EDA6ADECFE8F0DDCFD6
:10234600E9F0E8C0D9FFE9C0DAFFE751DF12C2EFD2
:1023560011F0E551D96EDA6ADFBCB4EF11F0B7EFD0
:1023660011F0010EB8EF11F0000E000AD8B457EFC5
:1023760011F0010AD8B483EF11F054EF11F0EB51CC
:1023860012004B344C34526E5250D8A4CDEF11F09B
:10239600CFEF11F0D9EF11F0000E496E000E4A6E24
:1023A600000E4B6E000E4C6E46EF12F049C04DF01B
:1023B6004AC04EF04BC04FF04CC050F0200EE9EF33
:1023C60011F0D89050324F324E324D32E82EE4EFB3
:1023D60011F04D50516E4B8EFF0E4916FF0E4A16E8
:1023E600FF0E4B16000E4C16960E525E52BE00EFB6
:1023F60012F0FEEF11F016EF12F05250800A970F0E
:10240600D8B008EF12F00AEF12F00CEF12F0CFEF8F
:1024160011F0D8904C324B324A324932523E0CEFD0
:1024260012F02EEF12F01F0E52641CEF12F01EEF88
:1024360012F026EF12F0CFEF11F0D89049364A3657
:102446004B364C3652065250D8A42CEF12F02EEFD3
:1024560012F020EF12F05150D8B434EF12F036EFEC
:1024660012F03EEF12F04C1E4B1E4A1E496C000E37
:102476004A224B224C2249C049F04AC04AF04BC07E
:102486004BF04CC04CF01200010E0001EC6FE55110
:10249600D8A450EF12F052EF12F0AAEF12F0EC6B44
:1024A600BFEF12F0E551D96EDA6ADF30E832E83272
:1024B600070BE76F010EE86FE72B64EF12F0D89079
:1024C600E837E72F62EF12F00001E851FF0AE96FE3
:1024D600E551D96EDA6ADF50070B020DF3509A0FF9
:1024E600D96EDA6ADECFEAF0DDCFEBF0EAC0D9FFCB
:1024F600EBC0DAFFE951DF16BFEF12F0E551D96EF6
:10250600DA6ADF30E832E832070BE76F010EE86F70
:10251600E72B90EF12F0D890E837E72F8EEF12F006
:102526000001E551D96EDA6ADF50070B020DF35050
:102536009A0FD96EDA6ADECFE9F0DDCFEAF0E9C0AC
:10254600D9FFEAC0DAFFE851DF12BFEF12F0E65119
:10255600E76FE86BE851000AD8B4B4EF12F052EF17
:1025660012F0E751000AD8B455EF12F0010AD8B4B8
:1025760081EF12F052EF12F0EC5112000001EC5113
:10258600D8A4C8EF12F0CAEF12F0CCEF12F029EF80
:1025960013F02FEC17F0B1800001EC51D96EDA6A16
:1025A600020ED926DFA002D0B18201D0B19200017D
:1025B600EC51D96EDA6A020ED926DF30030BED6FC5
:1025C600ED3BB150ED19CF0BED19B16EEC51D96E53
:1025D600DA6A020ED926DFA602D0B18401D0B19400
:1025E6000001EC51D96EDA6A020ED926DFA802D0B4
:1025F600B18E01D0B19EECC0E5F00001EC51D96E70
:10260600DA6A030ED926DECFE6F0DDCFE7F02BEC53
:1026160016F00001EC51D96EDA6A030ED926DECF28
:102626005BF0DDCF5CF0EC51D96EDA6A020ED9268A
:10263600000EDFB8010E6A6EEC51D96EDA6ADECF93
:10264600D1F0DDCFD2F0000E9DEC16F01200010E97
:102656000001F06FE4C0F1F0ED51D96EDA6ADF5097
:10266600070BEE6FF151EE19F80BEE19F16FED5104
:10267600D96EDA6ADF30E832E832070BEE6FEE47E2
:10268600EE47EE47F151EE19C70BEE19F16FF19DCA
:10269600ED51D96EDA6ADFAC02D0F18F02D00001BB
:1026A600F19F000EF1BF010EEF6FED51D8A45EEF62
:1026B60013F060EF13F063EF13F0F06B6EEF13F0AF
:1026C600F10EE56F2BEC11F0F10E0001E56FEFC096
:1026D600E6F047EC12F00001F05112000001E5515E
:1026E600D8A478EF13F07AEF13F083EF13F0000E0F
:1026F600B6EF13F09494B5EF13F09484B5EF13F09E
:10270600E551D96EDA6A0D0ED926DF30E8320F0BA5
:10271600020AD8B47DEF13F0060AD8B480EF13F09E
:10272600010AD8B480EF13F0030AD8B480EF13F08F
:10273600010AD8B480EF13F00F0AD8B47DEF13F076
:10274600010AD8B47DEF13F0030AD8B47DEF13F075
:10275600010AD8B47DEF13F0070AD8B47DEF13F061
:102766007AEF13F0010E12000001EC51D8A4BEEF6F
:1027760013F0C0EF13F0C2EF13F0F8EF13F02FECE5
:1027860017F0CD80ECC0E5F025EC15F0ECC0E5F0D7
:10279600D1EC14F0ECC0E5F0F9EC13F0ECC0E5F088
:1027A6004FEC15F0ECC0E5F0FBEC14F0ECC0E5F0F6
:1027B6000001EC51D96EDA6A040ED926DECFE6F0B6
:1027C600DDCFE7F067EC16F00001EC51D96EDA6A5E
:1027D600030ED926000EDFB4010E6C6EECC0E5F0D8
:1027E60041EC16F0000EAEEC16F012000001E551B9
:1027F600D8A400EF14F002EF14F018EF14F03AEF3B
:1028060014F0CF0ECD163AEF14F0CD50CF0B1009C1
:10281600CD6E3AEF14F0CD50CF0B2009CD6E3AEFC6
:1028260014F0300ECD123AEF14F0E551D96EDA6A93
:10283600020ED926DF50E66FE76BE751000AD8B4DF
:1028460027EF14F03AEF14F0E651000AD8B404EF7B
:1028560014F0010AD8B408EF14F0030AD8B40EEF46
:1028660014F0010AD8B414EF14F03AEF14F0120081
:10287600010E0001F16FEF51D8A444EF14F046EFBA
:1028860014F048EF14F06FEF14F02FEC17F000017E
:10289600EF51D96EDA6A0D0ED926DF30E8320F0B0A
:1028A600F06FBD50F019F00BF019BD6EEFC0E5F0FA
:1028B60071EC13F00001F117EFC0EEF0A1EC14F08B
:1028C6000001F117EF51D96EDA6ADECFCFF0DDCF16
:1028D600D0F0010EBFEC16F01200F20EF66E2A0EC4
:1028E600F76E000EF86E00EE80F010EE4DF0090067
:1028F600F5CFEEFFE550E150FAE1440EF66E2E0EEE
:10290600F76E000EF86E00EE74F010EE0AF0090095
:10291600F5CFEEFFE550E150FAE100EECDF0180EEE
:10292600EE6AE806FDE100EE5BF0190EEE6AE806D7
:10293600FDE17E907E920001E7EF16F00001EE5178
:10294600D8A4A8EF14F0AAEF14F0BEEF14F0000E0E
:10295600D0EF14F0EE51020FEC6FB7EC13F0B19616
:10296600B19CCFEF14F0EE51080FEC6FC1EC12F0F2
:10297600B18CCFEF14F0EE51D96EDA6A0D0ED9266E
:10298600DF50030B000AD8B4ADEF14F0020AD8B436
:10299600B6EF14F0AAEF14F0010E12000001E55193
:1029A600D8A4D8EF14F0DAEF14F0E2EF14F0FAEF4F
:1029B60014F0CD96FAEF14F0CD86FAEF14F0E55147
:1029C600D96EDA6A030ED926DFB0ECEF14F0EFEF1A
:1029D60014F0010EF0EF14F0000E000AD8B4DCEF8C
:1029E60014F0010AD8B4DFEF14F0FAEF14F0120075
:1029F6000001E551D8A402EF15F004EF15F00CEF35
:102A060015F024EF15F0CD8E24EF15F0CD9E24EFB2
:102A160015F0E551D96EDA6A030ED926DFB416EF42
:102A260015F019EF15F0010E1AEF15F0000E000A59
:102A3600D8B409EF15F0010AD8B406EF15F024EF63
:102A460015F012000001E551D8A42CEF15F02EEF79
:102A560015F036EF15F04EEF15F0CD924EEF15F05E
:102A6600CD824EEF15F0E551D96EDA6A030ED926FE
:102A7600DFB240EF15F043EF15F0010E44EF15F00D
:102A8600000E000AD8B430EF15F0010AD8B433EFBF
:102A960015F04EEF15F012000001E551D8A456EFDF
:102AA60015F058EF15F060EF15F078EF15F0CD94AE
:102AB60078EF15F0CD8478EF15F0E551D96EDA6A26
:102AC600030ED926DFB66AEF15F06DEF15F0010E8D
:102AD6006EEF15F0000E000AD8B45AEF15F0010A91
:102AE600D8B45DEF15F078EF15F012003738392FAE
:102AF6003435362A3132332D43303D2B800F810F4A
:102B0600820F830F840F890F8A0F8B0F8C0F8D0F07
:102B1600920F930F940F950F960FA10F9E0FF20F22
:102B2600A00F9D0FF20FA20F9F0F000000000000E4
:092B3600000000001000000A027A
:102B40000001EB6FE5C0E6F0010E0001E76FE62B38
:102B5000ACEF15F0D890E737E62FAAEF15F000019B
:102B6000E751FF0AE86FEB51020DF350AE0FD96E3B
:102B7000DA6ADECFE9F0DDCFEAF0E9C0D9FFEAC0DA
:102B8000DAFFE851DF16010E1200000E2C1A000EBB
:102B90002D1A000E2E1A800E2F1A28C001F029C0FF
:102BA00002F02AC003F02BC004F02CC005F02DC0A9
:102BB00006F02EC007F02FC008F003EC08F001C0AB
:102BC00028F002C029F003C02AF004C02BF0120044
:102BD0000001EA6FE5C0E6F0010E0001E76FE62BA9
:102BE000F4EF15F0D890E737E62FF2EF15F000017B
:102BF000EA51020DF350B40FD96EDA6ADECFE8F075
:102C0000DDCFE9F0E8C0D9FFE9C0DAFFE751DF1214
:102C1000010E1200076E01C002F0010E036E022ABF
:102C200014EF16F0D8900336022E12EF16F0035070
:102C3000FF0A046E0750020DF350AE0FD96EDA6A28
:102C4000DECF05F0DDCF06F005C0D9FF06C0DAFF04
:102C50000450DF161200E6C0B2FF0001E551D96E44
:102C6000DA6A020ED926DFA838EF16F03AEF16F02E
:102C70003CEF16F0E751B36EE6C05BF0E7C05CF0E6
:102C800012000001E551D8A448EF16F04AEF16F003
:102C90004CEF16F053EF16F0E551D96EDA6ADECF3D
:102CA000D5F0DDCFD6F01200020E016E010E0AEC57
:102CB00016F002D866EF16F00500FA6E0001CF514B
:102CC000FD6ED051FE6EFF6AFA5012001200000134
:102CD000E551D96EDA6A030ED926DFA472EF16F039
:102CE00074EF16F076EF16F0E751CF6EE6C0CEFF28
:102CF0001200010E016E000E0AEC16F05BC0B2FF6E
:102D00006A04D8A486EF16F088EF16F08AEF16F062
:102D10005C50B36E1200000E016E010E0AEC16F04C
:102D20006C04D8A496EF16F098EF16F09AEF16F010
:102D30005E50CF6E5DC0CEFF12002FEC17F0010E7B
:102D40000001E56F000EA0EC15F0010E0001E56F2B
:102D5000000EE8EC15F02CEC17F012002FEC17F039
:102D6000000E0001E56F010EA0EC15F0000E000151
:102D7000E56F010EE8EC15F02CEC17F012002FECCB
:102D800017F0020E0001E56F010EA0EC15F0020E27
:102D90000001E56F010EE8EC15F02CEC17F01200C5
:102DA000020E016E020E0AEC16F05FC001F060C068
:102DB00002F010EC17F01200010E0001F26FCC0EC1
:102DC000ED6F2AEC13F00001F217F2511200FBEC48
:102DD00016F07C6E400EF1EC16F0EDEF16F007EFFA
:102DE00000F00001E56FE20E0001CF6F200ED06F02
:102DF000E5C0E3F01200DCEC16F07C1603EC17F0F3
:102E00007C167C501200BE0E0001EF6F3BEC14F0FC
:102E1000010E1200010E016E010E0AEC16F01200F6
:102E20000250D76E01C0D6FF010E1200040E016ED3
:102E3000000E0AEC16F01200060E016E010E0AECEE
:102E400016F01200A086010001010101010153C02A
:102E5000BEFF5450BF6E1200F28EF28C1200F29E32
:102E6000F29C1200F2901200F2901200F290120006
:102E7000F2901200F2901200F2901200F292120000
:020000040020DA
:08000000FFFFFFFFFFFFFFFF00
:020000040030CA
:0E000000FF02091EFF8181FF0FC00FE00F40BD
:00000001FF
