:020000040000FA
:0400000007EF00F016
:0A000800748203ED08F032EF0BF0F4
:05100000002575000051
:101006000600D9CF67F0DACF68F0F3CF69F0F4CFF6
:101016006AF0F2A811EF08F013EF08F01CEF08F0E1
:10102600F2A218EF08F01AEF08F01CEF08F088ECAF
:101036000CF0F2A621EF08F023EF08F03CEF08F0E1
:10104600F2A028EF08F02AEF08F03CEF08F081A89C
:101056002FEF08F031EF08F03CEF08F02104D8A498
:1010660037EF08F039EF08F03CEF08F0216A84EC1E
:101076000CF0F2A641EF08F043EF08F05DEF08F040
:10108600F2A048EF08F04AEF08F05DEF08F081B8EB
:101096004FEF08F051EF08F05DEF08F02150D8A4AB
:1010A60057EF08F059EF08F05DEF08F0010E216EDA
:1010B60086EC0CF0F2A662EF08F064EF08F07DEF24
:1010C60008F0F2A069EF08F06BEF08F07DEF08F08A
:1010D60081AA70EF08F072EF08F07DEF08F02204A5
:1010E600D8A478EF08F07AEF08F07DEF08F0226ACE
:1010F60080EC0CF0F2A682EF08F084EF08F09EEF89
:1011060008F0F2A089EF08F08BEF08F09EEF08F0E8
:1011160081BA90EF08F092EF08F09EEF08F02250A7
:10112600D8A498EF08F09AEF08F09EEF08F0010EA9
:10113600226E82EC0CF0F2A6A3EF08F0A5EF08F001
:10114600BEEF08F0F2A0AAEF08F0ACEF08F0BEEF91
:1011560008F081ACB1EF08F0B3EF08F0BEEF08F08D
:101166002304D8A4B9EF08F0BBEF08F0BEEF08F0EF
:10117600236A7CEC0CF0F2A6C3EF08F0C5EF08F08A
:10118600DFEF08F0F2A0CAEF08F0CCEF08F0DFEFCF
:1011960008F081BCD1EF08F0D3EF08F0DFEF08F0DC
:1011A6002350D8A4D9EF08F0DBEF08F0DFEF08F002
:1011B600010E236E7EEC0CF0A1A8E4EF08F0E6EF3A
:1011C60008F0EFEF08F0A0A8EBEF08F0EDEF08F05D
:1011D600EFEF08F06AEC0CF09EACF4EF08F0F6EFD7
:1011E60008F0FFEF08F09DACFBEF08F0FDEF08F00C
:1011F600FFEF08F070EC0CF0F2A404EF09F006EF34
:1012060009F00FEF09F0F2AA0BEF09F00DEF09F064
:101216000FEF09F039EC0CF09EA014EF09F016EF71
:1012260009F01FEF09F09DA01BEF09F01DEF09F073
:101236001FEF09F0FEEC0BF09EA224EF09F026EF5B
:1012460009F02FEF09F09DA22BEF09F02DEF09F021
:101256002FEF09F05EEC0CF0A1A234EF09F036EFA7
:1012660009F03FEF09F0A0A23BEF09F03DEF09F0CE
:101276003FEF09F0ECEC0BF06AC0F4FF69C0F3FF36
:1012860068C0DAFF67C0D9FF74921100010E716E53
:101296006B50D8B451EF09F053EF09F071EF09F034
:1012A6006B50D96EDA6ADF30E832E832070B6C6EC3
:1012B600080E6C6061EF09F063EF09F071EF09F059
:1012C6006B50D96EDA6ADF50070B6C6E040E6C64D5
:1012D6006FEF09F071EF09F0C7EF09F0716ADDEF02
:1012E60009F06B50D96EDA6ADF30E832E832070B64
:1012F6006C6E010E6D6E6C2A83EF09F0D8906D3618
:101306006C2E81EF09F06D50FF0A6E6E6B50D96E30
:10131600DA6ADF50070B020DF3500B0FD96EDA6A4B
:10132600DECF6FF0DDCF70F06FC0D9FF70C0DAFF8F
:101336006E50DF16DDEF09F06B50D96EDA6ADF30DA
:10134600E832E832070B6C6E010E6D6E6C2AAEEF5A
:1013560009F0D8906D366C2EACEF09F06B50D96E53
:10136600DA6ADF50070B020DF3500B0FD96EDA6AFB
:10137600DECF6EF0DDCF6FF06EC0D9FF6FC0DAFF43
:101386006D50DF12DDEF09F06B50D96EDA6ADFBC03
:10139600CFEF09F0D2EF09F0010ED3EF09F0000EFE
:1013A600000AD8B474EF09F0010AD8B49FEF09F027
:1013B60071EF09F071501200010E726E6B50D8A4D5
:1013C600E7EF09F0E9EF09F03FEF0AF0726A54EF30
:1013D6000AF06B50D96EDA6ADF30E832E832070B72
:1013E6006D6E010E6E6E6D2AFBEF09F0D8906E36AB
:1013F6006D2EF9EF09F06E50FF0A6F6E6B50D96EC5
:10140600DA6ADF50070B020DF350010FD96EDA6A64
:10141600DECF70F0DDCF71F070C0D9FF71C0DAFF9A
:101426006F50DF1654EF0AF06B50D96EDA6ADF3070
:10143600E832E832070B6D6E010E6E6E6D2A26EFEE
:101446000AF0D8906E366D2E24EF0AF06B50D96EE6
:10145600DA6ADF50070B020DF350010FD96EDA6A14
:10146600DECF6FF0DDCF70F06FC0D9FF70C0DAFF4E
:101476006E50DF1254EF0AF06C506D6E6E6A6E504D
:10148600000AD8B449EF0AF0E9EF09F06D50000AF6
:10149600D8B4ECEF09F0010AD8B417EF0AF0E9EF77
:1014A60009F0725012007250D8A45CEF0AF05EEF99
:1014B6000AF060EF0AF0B8EF0AF079EC0CF0B180B0
:1014C6007250D96EDA6A020ED926DFA002D0B18236
:1014D60001D0B1927250D96EDA6A020ED926DF3087
:1014E600030B736E733AB1507318CF0B7318B16E4A
:1014F6007250D96EDA6A020ED926DFA602D0B184FE
:1015060001D0B1947250D96EDA6A020ED926DFA8DC
:1015160002D0B18E01D0B19E72C06BF07250D96EFE
:10152600DA6A030ED926DECF6CF0DDCF6DF0D7EC8C
:101536000BF07250D96EDA6A030ED926DECF33F07D
:10154600DDCF34F07250D96EDA6A020ED926000E5B
:10155600DFB8010E536E7250D96EDA6ADECF35F0FF
:10156600DDCF36F0000E10EC0CF01200010E00017B
:101576009C6F5CC09DF07350D96EDA6ADF50070B22
:101586009A6F9D519A19F80B9A199D6F7350D96EDF
:10159600DA6ADF30E832E832070B9A6F9A479A47E1
:1015A6009A479D519A19C70B9A199D6F9D9D735025
:1015B600D96EDA6ADFAC02D09D8F02D000019D9F02
:1015C600000E9DBF010E9B6F7350D8A4EDEF0AF07D
:1015D600EFEF0AF0F2EF0AF09C6BFCEF0AF09D0EBB
:1015E6006B6E49EC09F09D0E6B6E9BC06CF0DFECE8
:1015F60009F000019C5112006B50D8B405EF0BF0B6
:1016060007EF0BF031EF0BF06C50D8A40DEF0BF099
:101616000FEF0BF011EF0BF031EF0BF0B2506D6ED8
:101626006E6A6C50D96EDA6A6DC0DEFF6EC0DDFF81
:101636006B50D96EDA6A020ED926DFA825EF0BF0B9
:1016460027EF0BF031EF0BF0B3506E6E6D6A6C50F6
:10165600D96EDA6A6D50DE266E50DD2212003E0E1D
:10166600F66E180EF76E000EF86E00EE80F010EEB5
:101676001AF00900F5CFEEFFE550E150FAE17E0ED3
:10168600F66E170EF76E000EF86E00EE01F010EE15
:1016960030F00900F5CFEEFFE550E150FAE100EE3B
:1016A60031F02F0EEE6AE806FDE1749074920001A7
:1016B6002CEF0CF0716E6BC06CF0010E6D6E6C2A27
:1016C60067EF0BF0D8906D366C2E65EF0BF06D5012
:1016D600FF0A6E6E7150020DF350150FD96EDA6A5D
:1016E600DECF6FF0DDCF70F06FC0D9FF70C0DAFFCC
:1016F6006E50DF16010E1200666E60C061F0010EBC
:10170600626E612A89EF0BF0D8906236612E87EF00
:101716000BF06250FF0A636E6650020DF350150F10
:10172600D96EDA6ADECF64F0DDCF65F064C0D9FF2A
:1017360065C0DAFF6350DF161200706E6BC06CF086
:10174600010E6D6E6C2AAAEF0BF0D8906D366C2EDA
:10175600A8EF0BF07050020DF3501B0FD96EDA6A2A
:10176600DECF6EF0DDCF6FF06EC0D9FF6FC0DAFF4F
:101776006D50DF12010E1200890F8A0F8B0F8C0F2E
:101786008D0F920F930F940F950F960FA10F9E0F2B
:10179600F20FA00F9D0FF20F01010101A20F9F0F83
:1017A60001010000190000026CC0B2FF6B50D96E37
:1017B600DA6A020ED926DFA8E3EF0BF0E5EF0BF0AD
:1017C600E7EF0BF06D50B36E6CC033F06DC034F0C4
:1017D6001200010E606E000E7FEC0BF033C0B2FFFC
:1017E6005304D8A4F9EF0BF0FBEF0BF0FDEF0BF071
:1017F6003450B36E1200000E606E010E7FEC0BF0DB
:101806005504D8A409EF0CF00BEF0CF00DEF0CF01B
:101816003C50CF6E3BC0CEFF120079EC0CF0010EAF
:101826006B6E000E5DEC0BF0010E6B6E000EA0EC05
:101836000BF076EC0CF012003738392F3435362A97
:101846003132332D43303D2B800F810F820F830FB2
:10185600840F50EC0CF0296E2B0E6B6E5E0E6C6EC8
:10186600FFEC0AF02FEF0CF007EF00F0020E606EAF
:10187600020E7FEC0BF03DC060F03EC061F064EC00
:101886000CF01200010E00019E6F300E736EB9EC63
:101896000AF000019E179E51120045EC0CF0291625
:1018A60058EC0CF02916295012002B0E726E56ECCD
:1018B6000AF0010E1200010E606E010E7FEC0BF0B5
:1018C60012006150D76E60C0D6FF010E1200040EE2
:1018D600606E000E7FEC0BF01200060E606E010EBD
:1018E6007FEC0BF01200F28EF28C1200F29EF29C4C
:1018F6001200F2901200F2901200F2901200F29092
:0E1906001200F2901200F2901200F292120003
:020000040020DA
:08000000FFFFFFFFFFFFFFFF00
:020000040030CA
:0E000000FF02091EFF8181FF0FC00FE00F40BD
:00000001FF
