:020000040000FA
:0400000007EF00F016
:0A0008006F823AED0EF0B2EF12F035
:05100000002575000051
:101006001450800B1D6E145014241F6E13AE0EEF79
:1010160008F010EF08F011EF08F01F801F50D8B449
:1010260017EF08F019EF08F02DEF08F01F28D8A4E5
:101036001FEF08F021EF08F029EF08F0000E116EFF
:10104600000E126E000E136E000E146E138E146ACE
:1010560035EF08F0000E116E000E126E000E136EC4
:10106600000E146E1850800B1E6E1D501E18D8B43C
:101076003FEF08F041EF08F042EF08F01D8C1850E2
:1010860018241E6E17AE4AEF08F04CEF08F04DEF2D
:1010960008F01E801E50D8B453EF08F055EF08F044
:1010A60069EF08F01E28D8A45BEF08F05DEF08F0A2
:1010B60065EF08F0000E156E000E166E000E176E28
:1010C600000E186E178E186A71EF08F0000E156E76
:1010D600000E166E000E176E000E186E1F501E5C68
:1010E600D8B078EF08F07AEF08F0A1EF08F01DAC61
:1010F6007FEF08F081EF08F083EF08F0800E1D1AED
:101106001FC020F01EC01FF020C01EF011C020F02E
:1011160015C011F020C015F012C020F016C012F054
:1011260020C016F013C020F017C013F020C017F02F
:1011360014C020F018C014F020C018F0206A1F5008
:101146001EC019F01A6A195E000E1A5A1ABEB5EFB9
:1011560008F01A5009E11A0E195CD8A0B5EF08F08C
:10116600B7EF08F0EEEF08F011501210131014103C
:10117600D8A4C0EF08F0C3EF08F0010EC4EF08F0E2
:10118600000E206E000E116E000E126E000E136E13
:10119600000E146E1EC01FF0F7EF08F020A0D6EF69
:1011A60008F0D8EF08F0DEEF08F0D89020300109FB
:1011B600206EE0EF08F0D890203211A0E5EF08F09D
:1011C600E7EF08F0E8EF08F0208E143414321332FB
:1011D600123211321F2A1E501F5CD8A0F5EF08F0FC
:1011E600F7EF08F0D1EF08F01DBCFCEF08F0FEEFBA
:1011F60008F03EEF09F01F50D8A404EF09F006EFFF
:1012060009F010EF09F0000E116E000E126E000EBE
:10121600136E000E146E5DEF0AF01550112616506F
:101226001222175013221850142214A01DEF09F091
:101236001FEF09F0CBEF09F020A024EF09F026EF0D
:1012460009F02CEF09F0D89020300109206E2EEF1E
:1012560009F0D890203211A033EF09F035EF09F0EC
:1012660036EF09F0208E1434143213321232113252
:101276001F2ACBEF09F01550115C16501258175063
:1012860013581450800A196E1850800A1958D8B08D
:101296004FEF09F051EF09F07CEF09F01150155CA2
:1012A600196E125016581A6E135017581B6E14509A
:1012B60018581C6EFF0E1924116EFF0E1A20126E9E
:1012C600FF0E1B20136EFF0E1C20146E800E1D1ABF
:1012D600206C2050D8A472EF09F074EF09F084EF67
:1012E60009F0010E1126000E12221322142284EF99
:1012F60009F01550115E1650125A1750135A18500D
:10130600145A1150121013101410D8A48DEF09F0AE
:101316008FEF09F0C4EF09F02050D8A495EF09F03B
:1013260097EF09F0C4EF09F0000E116E000E126E71
:10133600000E136E000E146E5DEF0AF0D890113693
:1013460012361336143620AEABEF09F0ADEF09F0C6
:10135600AEEF09F0118020A0B3EF09F0B5EF09F068
:10136600B9EF09F0D8802036BBEF09F0D8902036C7
:101376001F50D8B4C1EF09F0C3EF09F0C4EF09F06C
:101386001F0613AEC9EF09F0CBEF09F0A1EF09F084
:101396001E6A20AED1EF09F0D3EF09F0EBEF09F0AA
:1013A60020C019F07F0E1916D8B4DCEF09F0DEEF75
:1013B60009F0E2EF09F0010E1E6EEBEF09F011A045
:1013C600E7EF09F0E9EF09F0EBEF09F0DEEF09F0DE
:1013D6001E50D8B4F1EF09F0F3EF09F01EEF0AF052
:1013E600010E1126000E12221322142214A0FEEF63
:1013F60009F000EF0AF01EEF0AF011C019F012C052
:101406001AF013C01BF014C01CF01C341C321B3223
:101416001A32193219C011F01AC012F01BC013F09B
:101426001CC014F01F28D8B41BEF0AF01DEF0AF0F9
:101436001EEF0AF01F2A1F28D8B424EF0AF026EF61
:101446000AF02EEF0AF01F50D8A42CEF0AF02EEF68
:101456000AF03FEF0AF0000E116E000E126E000E3B
:10146600136E000E146E1F50D8A43CEF0AF03EEF28
:101476000AF03FEF0AF01D6A1FA044EF0AF046EF9C
:101486000AF049EF0AF0138E4AEF0AF0139ED8903D
:101496001F30146E1DAE52EF0AF054EF0AF055EFEE
:1014A6000AF0148E11C011F012C012F013C013F01E
:1014B60014C014F012002C50800B356E2C502C24C6
:1014C6003B6E2BAE69EF0AF06BEF0AF06CEF0AF099
:1014D6003B803B50D8B472EF0AF074EF0AF087EF06
:1014E6000AF03B28D8A47AEF0AF07CEF0AF084EFE2
:1014F6000AF0000E296E000E2A6E000E2B6E000EEC
:101506002C6E2B8E8FEF0AF0000E296E000E2A6EBF
:10151600000E2B6E000E2C6E3050800B351A30509C
:1015260030243A6E2FAE9AEF0AF09CEF0AF09DEF48
:101536000AF03A803A50D8B4A3EF0AF0A5EF0AF0C1
:10154600B8EF0AF03A28D8A4ABEF0AF0ADEF0AF0EC
:10155600B5EF0AF0000E2D6E000E2E6E000E2F6EE9
:10156600000E306E2F8EC0EF0AF0000E2D6E000EAC
:101576002E6E000E2F6E000E306E3A50D8B4C6EFA7
:101586000AF0C8EF0AF0D0EF0AF03B50D8A4CEEF2D
:101596000AF0D0EF0AF0DAEF0AF0000E296E000E1C
:1015A6002A6E000E2B6E000E2C6E70EF0CF02F5074
:1015B6002902F3CF40F0F4CF41F04050366E376A3F
:1015C600386A396A41503C6E3D6A3E6A3F6A2E501F
:1015D6002A02F3CF40F0F4CF41F040503626000EF9
:1015E60037223822392241503C26000E3D223E2227
:1015F6003F222D502B02F3CF40F0F4CF41F0405064
:101606003626000E37223822392241503C26000E5B
:101616003D223E223F2238C039F037C038F036C06E
:1016260037F0366A2D502A02F3CF40F0F4CF41F05E
:101636004050362641503722000E3822000E3922FD
:101646002E502902F3CF40F0F4CF41F04050362619
:1016560041503722000E3822000E392238C039F0A8
:1016660037C038F036C037F0366A2D502902F3CF2E
:1016760040F0F4CF41F04050362641503722000E5C
:101686003822000E39222F502A02F3CF40F0F4CF31
:1016960041F040503C2641503D22000E3E22000EB5
:1016A6003F222E502B02F3CF40F0F4CF41F04050B2
:1016B6003C2641503D22000E3E22000E3F222F5076
:1016C6002B02F3CF40F0F4CF41F04050316E415041
:1016D600326E336A346A33C034F032C033F031C00C
:1016E60032F0316A31503C2632503D2233503E2290
:1016F60034503F2236C031F037C032F038C033F0B4
:1017060039C034F0190E8DEF0BF0D89034323332E5
:1017160032323132E82E88EF0BF031503C2632500F
:101726003D2233503E2234503F2238C039F037C074
:1017360038F036C037F0366A3A503BC031F0326A7C
:101746003126000E3222820E3124406EFF0E3220E8
:10175600416EC3EF0BF0D8903C363D363E363F36F1
:1017660039AEB8EF0BF0BAEF0BF0BBEF0BF03C80E5
:10177600D89036363736383639364006D8A0410640
:101786003EAEC8EF0BF0CAEF0BF0AEEF0BF03A6AC5
:1017960039AED0EF0BF0D2EF0BF0F6EF0BF0FF0EF9
:1017A6003614316EFF0E3714326EFF0E3814336E58
:1017B6007F0E3914346E3150321033103410D8B4D1
:1017C600E7EF0BF0E9EF0BF0EDEF0BF0010E3A6EE1
:1017D600F6EF0BF03CA0F2EF0BF0F4EF0BF0F6EFA8
:1017E6000BF0E9EF0BF03A50D8B4FCEF0BF0FEEF3C
:1017F6000BF022EF0CF0010E3C26000E3D223E229D
:101806003F223FA009EF0CF00BEF0CF022EF0CF09B
:101816003CC031F03DC032F03EC033F03FC034F042
:101826003434343233323232313231C03CF032C0A9
:101836003DF033C03EF034C03FF0404A412A41BE3D
:101846002DEF0CF0415008E14028D8A02DEF0CF008
:101856002FEF0CF039EF0CF0000E3C6E000E3D6ED3
:10186600800E3E6E7F0E3F6E66EF0CF041BE46EF79
:101876000CF0415006E14004D8B044EF0CF046EFBE
:101886000CF051EF0CF0000E3C6E000E3D6E000E9B
:101896003E6E000E3F6E356A66EF0CF040C03BF0C0
:1018A600FF0E3C16FF0E3D167F0E3E16000E3F162F
:1018B6003BA060EF0CF062EF0CF063EF0CF03E8E95
:1018C600D8903B303F6E35503F123CC029F03DC0AA
:1018D6002AF03EC02BF03FC02CF012004550800B82
:1018E6000001C86F45504524CF6F44AE7DEF0CF024
:1018F6007FEF0CF080EF0CF0CF81CF51D8B486EF9C
:101906000CF088EF0CF09CEF0CF0CF29D8A48EEFEA
:101916000CF090EF0CF098EF0CF0000E426E000EFB
:10192600436E000E446E000E456E448E456AA4EF6B
:101936000CF0000E426E000E436E000E446E000E5A
:10194600456E4950800BC81B49504924D06F48AE9C
:10195600AFEF0CF0B1EF0CF0B2EF0CF0D081D0513C
:10196600D8B4B8EF0CF0BAEF0CF0CEEF0CF0D029EB
:10197600D8A4C0EF0CF0C2EF0CF0CAEF0CF0000ECA
:10198600466E000E476E000E486E000E496E488E7B
:10199600496AD6EF0CF0000E466E000E476E000E3A
:1019A600486E000E496E4650471048104910D8A49C
:1019B600DFEF0CF0E1EF0CF0F9EF0CF0000E426EE9
:1019C600000E436E000E446E000E456E800E4412ED
:1019D6007F0E4512C851451242C042F043C043F043
:1019E60044C044F045C045F039EF0EF0CF51D8A4BD
:1019F600FFEF0CF001EF0DF00BEF0DF0000E426E55
:101A0600000E436E000E446E000E456E39EF0EF06A
:101A1600D051CFC0C0F0C16BC05F000EC15B7F0E5E
:101A2600C025C96F000EC121CA6F42C0C4F043C0B1
:101A3600C5F044C0C6F045C0C7F0000E426E000EA9
:101A4600436E000E446E000E456E000ECB6F000E08
:101A5600CC6F000ECD6F000ECE6FD06B6BEF0DF01E
:101A6600D051D8B439EF0DF03BEF0DF052EF0DF039
:101A7600D890C437C537C637C737D89042364336AD
:101A860044364536CEAF4AEF0DF04CEF0DF04DEF34
:101A96000DF04280D890CB37CC37CD37CE37465075
:101AA600C45D4750C5594850C6594950C759D8A072
:101AB6005FEF0DF061EF0DF06AEF0DF0CE8D465041
:101AC600C45F4750C55B4850C65B4950C75BD02BC7
:101AD600190ED06571EF0DF073EF0DF033EF0DF0C9
:101AE600C451C511C611C711D8B47CEF0DF07EEFF5
:101AF6000DF096EF0DF0CB8196EF0DF0D8904236B3
:101B0600433644364536CEAF8BEF0DF08DEF0DF0F4
:101B16008EEF0DF04280D890CB37CC37CD37CE370D
:101B2600C907D8A0CA0744AE9BEF0DF09DEF0DF094
:101B360081EF0DF0D06BCEAFA3EF0DF0A5EF0DF05A
:101B4600C9EF0DF0FF0ECB15C06FFF0ECC15C16FA0
:101B5600FF0ECD15C26F7F0ECE15C36FC051C111DA
:101B6600C211C311D8B4BAEF0DF0BCEF0DF0C0EF3F
:101B76000DF0010ED06FC9EF0DF042A0C5EF0DF0CC
:101B8600C7EF0DF0C9EF0DF0BCEF0DF0D051D8B492
:101B9600CFEF0DF0D1EF0DF0F5EF0DF0010E42266F
:101BA600000E43224422452245A0DCEF0DF0DEEF75
:101BB6000DF0F5EF0DF042C0C0F043C0C1F044C0D7
:101BC600C2F045C0C3F0C335C333C233C133C033DB
:101BD600C0C042F0C1C043F0C2C044F0C3C045F02B
:101BE600C94BCA2BCABF00EF0EF0CA5108E1C9297A
:101BF600D8A000EF0EF002EF0EF00DEF0EF0000E83
:101C0600CA6FC969000E426E000E436E000E446E26
:101C1600000E456ECABF1AEF0EF0CA5106E1C9059D
:101C2600D8B018EF0EF01AEF0EF027EF0EF0000EF8
:101C3600CA6F000EC96F000E426E000E436E000E94
:101C4600446E000E456EC86BC9C0CFF0CFA12EEF13
:101C56000EF030EF0EF033EF0EF0448E34EF0EF050
:101C6600449ED890CF31456EEDEF0CF01200060081
:101C7600FACF0BF0FBCF0CF0D9CF0DF0DACF0EF088
:101C8600F3CF0FF0F4CF10F0F2A84CEF0EF04EEFBA
:101C96000EF057EF0EF0F2A253EF0EF055EF0EF0E6
:101CA60057EF0EF034EC15F0F2A65CEF0EF05EEF97
:101CB6000EF077EF0EF0F2A063EF0EF065EF0EF088
:101CC60077EF0EF081A86AEF0EF06CEF0EF077EF6B
:101CD6000EF06604D8A472EF0EF074EF0EF077EFF4
:101CE6000EF0666A30EC15F0F2A67CEF0EF07EEF91
:101CF6000EF098EF0EF0F2A083EF0EF085EF0EF0E7
:101D060098EF0EF081B88AEF0EF08CEF0EF098EF98
:101D16000EF06650D8A492EF0EF094EF0EF098EF06
:101D26000EF0010E666E32EC15F0F2A69DEF0EF087
:101D36009FEF0EF0B8EF0EF0F2A0A4EF0EF0A6EFB4
:101D46000EF0B8EF0EF081AAABEF0EF0ADEF0EF08D
:101D5600B8EF0EF06704D8A4B3EF0EF0B5EF0EF0AF
:101D6600B8EF0EF0676A2CEC15F0F2A6BDEF0EF098
:101D7600BFEF0EF0D9EF0EF0F2A0C4EF0EF0C6EFF3
:101D86000EF0D9EF0EF081BACBEF0EF0CDEF0EF0DC
:101D9600D9EF0EF06750D8A4D3EF0EF0D5EF0EF0C2
:101DA600D9EF0EF0010E676E2EEC15F0F2A6DEEFFF
:101DB6000EF0E0EF0EF0F9EF0EF0F2A0E5EF0EF008
:101DC600E7EF0EF0F9EF0EF081ACECEF0EF0EEEF70
:101DD6000EF0F9EF0EF06804D8A4F4EF0EF0F6EF6B
:101DE6000EF0F9EF0EF0686A28EC15F0F2A6FEEF99
:101DF6000EF000EF0FF01AEF0FF0F2A005EF0FF064
:101E060007EF0FF01AEF0FF081BC0CEF0FF00EEF9B
:101E16000FF01AEF0FF06850D8A414EF0FF016EF7A
:101E26000FF01AEF0FF0010E686E2AEC15F0A1A85C
:101E36001FEF0FF021EF0FF02AEF0FF0A0A826EF0B
:101E46000FF028EF0FF02AEF0FF017EC15F09EAC0D
:101E56002FEF0FF031EF0FF03AEF0FF09DAC36EFAA
:101E66000FF038EF0FF03AEF0FF0B6EC14F010C0A9
:101E7600F4FF0FC0F3FF0EC0DAFF0DC0D9FF0CC090
:101E8600FBFF0BC0FAFF6F921100196E1950D8B400
:101E96004FEF0FF051EF0FF073EF0FF014BE58EF46
:101EA6000FF056EF0FF073EF0FF011C015F012C0E0
:101EB60016F013C017F014C018F0151E161E171EC4
:101EC600181E152A000E16221722182215C01BF0FE
:101ED60016C01CF017C01DF018C01EF07BEF0FF0E7
:101EE60011C01BF012C01CF013C01DF014C01EF070
:101EF6001150121013101410D8A484EF0FF086EFAF
:101F06000FF090EF0FF0000E116E000E126E000E25
:101F1600136E000E146E21EF10F0960E1A6E9AEFE5
:101F26000FF01A2AD8901E321D321C321B32000EB8
:101F36001B14156E000E1C14166E000E1D14176E63
:101F4600FE0E1E14186E1550161017101810D8A471
:101F5600AFEF0FF0B1EF0FF094EF0FF0BFEF0FF010
:101F66001A2A010E1B26000E1C221D221E22D890A4
:101F76001E321D321C321B32000E1B14156E000E53
:101F86001C14166E000E1D14176EFF0E1E14186E0E
:101F96001550161017101810D8A4D4EF0FF0D6EF5E
:101FA6000FF0B3EF0FF0DEEF0FF01A06D8901B36E6
:101FB6001C361D361E361DBEE3EF0FF0E5EF0FF0A3
:101FC600EDEF0FF0020E1A60EBEF0FF0EDEF0FF0F2
:101FD600D8EF0FF01AB0F2EF0FF0F4EF0FF0F5EFC5
:101FE6000FF01D9ED8901A321AC015F0166A176A9D
:101FF600186A15C018F0176A166A156A15501B126A
:1020060016501C1217501D1218501E121950D8B413
:102016000FEF10F011EF10F019EF10F014BE18EFDB
:1020260010F016EF10F019EF10F01E8E1BC011F015
:102036001CC012F01DC013F01EC014F01200010ED9
:10204600176E1150D8B42AEF10F02CEF10F04AEFAB
:1020560010F01150D96EDA6ADF30E832E832070B39
:10206600126E080E12603AEF10F03CEF10F04AEFD5
:1020760010F01150D96EDA6ADF50070B126E040E9B
:10208600126448EF10F04AEF10F0A0EF10F0176A54
:10209600B6EF10F01150D96EDA6ADF30E832E83266
:1020A600070B126E010E136E122A5CEF10F0D89019
:1020B6001336122E5AEF10F01350FF0A146E1150F9
:1020C600D96EDA6ADF50070B020DF350A40FD96EF2
:1020D600DA6ADECF15F0DDCF16F015C0D9FF16C0CF
:1020E600DAFF1450DF16B6EF10F01150D96EDA6A27
:1020F600DF30E832E832070B126E010E136E122A39
:1021060087EF10F0D8901336122E85EF10F011508D
:10211600D96EDA6ADF50070B020DF350A40FD96EA1
:10212600DA6ADECF14F0DDCF15F014C0D9FF15C082
:10213600DAFF1350DF12B6EF10F01150D96EDA6ADB
:10214600DFBCA8EF10F0ABEF10F0010EACEF10F013
:10215600000E000AD8B44DEF10F0010AD8B478EF9B
:1021660010F04AEF10F0175012000FEC15F06A6EDF
:10217600BA0E146E000E156E640E166E3FEC13F05A
:10218600000E2D6E000E2E6EA00E2F6E400E306EBF
:1021960064C011F065C012F0136A146A000E48ECB0
:1021A6000FF011C029F012C02AF013C02BF014C092
:1021B6002CF05EEC0AF029C042F02AC043F02BC096
:1021C60044F02CC045F0000E466EC00E476E7F0EE2
:1021D600486E440E496E71EC0CF042C0D1F043C01B
:1021E600D2F044C0D3F045C0D4F0D1C042F0D2C042
:1021F60043F0D3C044F0D4C045F040EC11F0425057
:102206005B6E000E2D6E000E2E6EC80E2F6E420EE9
:10221600306E5B50116E126A136A146A000E48EC37
:102226000FF011C025F012C026F013C027F014C01D
:1022360028F0D1C021F0D2C022F0D3C023F0D4C000
:1022460024F0B1EC13F021C029F022C02AF023C0FB
:102256002BF024C02CF05EEC0AF029C042F02AC014
:1022660043F02BC044F02CC045F040EC11F0425036
:102276005A6EBBEF10F007EF00F0443445344B6E56
:102286004B50D8A449EF11F04BEF11F055EF11F078
:10229600000E426E000E436E000E446E000E456E3A
:1022A600C2EF11F042C046F043C047F044C048F0C8
:1022B60045C049F0200E65EF11F0D89049324832FA
:1022C60047324632E82E60EF11F046504A6E448E91
:1022D600FF0E4216FF0E4316FF0E4416000E45165D
:1022E600960E4B5E4BBE7CEF11F07AEF11F092EF3B
:1022F60011F04B50800A970FD8B084EF11F086EF9B
:1023060011F088EF11F04BEF11F0D89045324432BE
:10231600433242324B3E88EF11F0AAEF11F01F0E06
:102326004B6498EF11F09AEF11F0A2EF11F04BEF1A
:1023360011F0D89042364336443645364B064B505C
:10234600D8A4A8EF11F0AAEF11F09CEF11F04A50B3
:10235600D8B4B0EF11F0B2EF11F0BAEF11F0451E9C
:10236600441E431E426C000E43224422452242C0B4
:1023760042F043C043F044C044F045C045F012006B
:10238600010E186E1150D8A4CBEF11F0CDEF11F05D
:1023960023EF12F0186A38EF12F01150D96EDA6A8C
:1023A600DF30E832E832070B136E010E146E132A83
:1023B600DFEF11F0D8901436132EDDEF11F0145024
:1023C600FF0A156E1150D96EDA6ADF50070B020D3F
:1023D600F3509A0FD96EDA6ADECF16F0DDCF17F01A
:1023E60016C0D9FF17C0DAFF1550DF1638EF12F006
:1023F6001150D96EDA6ADF30E832E832070B136E15
:10240600010E146E132A0AEF12F0D8901436132E0A
:1024160008EF12F01150D96EDA6ADF50070B020D81
:10242600F3509A0FD96EDA6ADECF15F0DDCF16F0CB
:1024360015C0D9FF16C0DAFF1450DF1238EF12F0BC
:102446001250136E146A1450000AD8B42DEF12F00D
:10245600CDEF11F01350000AD8B4D0EF11F0010AF5
:10246600D8B4FBEF11F0CDEF11F018501200010EA9
:102476001C6E62C01DF01950D96EDA6ADF50070B68
:102486001A6E1D501A18F80B1A181D6E1950D96EAF
:10249600DA6ADF30E832E832070B1A6E1A461A4655
:1024A6001A461D501A18C70B1A181D6E1D9C195076
:1024B600D96EDA6ADFAC02D01D8E01D01D9E000EE9
:1024C6001DBE010E1B6E1950D8A46CEF12F06EEFF4
:1024D60012F071EF12F01C6A7BEF12F01D0E116EF6
:1024E60022EC10F01D0E116E1BC012F0C3EC11F0A1
:1024F6001C5012005FC008F00650D96EDA6ADF5031
:10250600070B076E08500718F80B0718086E0650D9
:10251600D96EDA6ADF30E832E832070B076E074613
:102526000746074608500718C70B0718086E089C89
:102536000650D96EDA6ADFAC02D0088E01D0089E4A
:102546000650D8A4A9EF12F0ABEF12F0ADEF12F0DF
:10255600B1EF12F0080E016EE3EC12F012002E0E2F
:10256600F66E280EF76E000EF86E00EE80F010EE96
:1025760040F00900F5CFEEFFE550E150FAE13A0EE2
:10258600F66E2A0EF76E000EF86E00EE66F010EE8E
:1025960009F00900F5CFEEFFE550E150FAE100EE53
:1025A600D1F00C0EEE6AE806FDE100EE4CF01A0ED4
:1025B600EE6AE806FDE16F906F920001B8EF10F049
:1025C6000150D8A4E9EF12F0EBEF12F0EDEF12F0A4
:1025D60013EF13F00150D96EDA6ADF30E832E832D1
:1025E600070B026E010E036E022AFCEF12F0D89062
:1025F6000336022EFAEF12F00150D96EDA6ADF5076
:10260600070B020DF3509A0FD96EDA6ADECF04F08B
:10261600DDCF05F004C0D9FF05C0DAFF0350DF1A8D
:1026260012001150D8A41AEF13F01CEF13F026EF86
:1026360013F03EEF13F0C198C19A3EEF13F0C18834
:10264600C18A3EEF13F01150D96EDA6A050ED9260B
:10265600DFB030EF13F033EF13F0010E34EF13F069
:10266600000E000AD8B41EEF13F0010AD8B422EF08
:1026760013F01CEF13F012001450D8B445EF13F00A
:1026860047EF13F04FEF13F01650D8A44DEF13F0A9
:102696004FEF13F051EF13F066EF13F015C017F07C
:1026A60017461746C2501718C30B1718C26EC282B8
:1026B600C2B260EF13F062EF13F05BEF13F016C0D7
:1026C60011F0A1EC14F012001450D8A46DEF13F021
:1026D6006FEF13F071EF13F08CEF13F025EC15F09C
:1026E60014C011F014EC13F014C011F070EC14F0D7
:1026F60014C011F056EC14F014C011F08AEC14F06A
:10270600C08E14C011F0C9EC14F0C280000EDBECD0
:1027160014F01200010E196E1850D8A495EF13F09C
:1027260097EF13F099EF13F0B0EF13F025EC15F0D7
:10273600060E116E010ED4EC13F01916060E116E6C
:10274600010E37EC14F019161850D96EDA6ADECF7E
:10275600D9F0DDCFDAF022EC15F01200000E251AC2
:10276600000E261A000E271A800E281A21C011F014
:1027760022C012F023C013F024C014F025C015F0B7
:1027860026C016F027C017F028C018F003EC08F092
:1027960011C021F012C022F013C023F014C024F09F
:1027A6001200176E11C012F0010E136E122ADEEF20
:1027B60013F0D8901336122EDCEF13F01350FF0AE5
:1027C600146E1750020DF350B20FD96EDA6ADECFCF
:1027D60015F0DDCF16F015C0D9FF16C0DAFF14507C
:1027E600DF16010E1200076E01C002F0010E036E25
:1027F600022A00EF14F0D8900336022EFEEF13F0F3
:102806000350FF0A046E0750020DF350B20FD96E43
:10281600DA6ADECF05F0DDCF06F005C0D9FF06C0C7
:10282600DAFF0450DF1612003738392F3435362ACE
:102836003132332D43303D2B800F810F820F830FB2
:10284600840F890F8A0F8B0F8C0F8D0F920F930FAA
:10285600940F950F960FA20F9F0FA10F9E0FA00F1B
:102866009D0F000009020100166E11C012F0010E44
:10287600136E122A41EF14F0D8901336122E3FEF42
:1028860014F01650020DF350B60FD96EDA6ADECF89
:1028960014F0DDCF15F014C0D9FF15C0DAFF1350C0
:1028A600DF12010E12001150D8A45CEF14F05EEF97
:1028B60014F060EF14F06FEF14F01150D96EDA6A6D
:1028C600030ED926DF50126E124612461246C0502B
:1028D6001218C70B1218C06E12001150D8A476EF4A
:1028E60014F078EF14F07AEF14F089EF14F0115029
:1028F600D96EDA6A020ED926DF50126E12500E0811
:10290600136EC1501318F00B1318C16E120011503C
:10291600D8A490EF14F092EF14F094EF14F0A0EF17
:1029260014F01150D96EDA6A040ED926DF50126EF1
:10293600C0501218F80B1218C06E1200C350126E57
:10294600136A1150D96EDA6A12C0DEFF13C0DDFFBA
:10295600C450136E126A1150D96EDA6A1250DE1222
:102966001350DD121200060E016E010EF6EC13F086
:1029760002D8C8EF14F00500FA6E0001D951FD6EB9
:10298600DA51FE6EFF6AFA50120012001150D8A4F6
:10299600CFEF14F0D1EF14F0D3EF14F0DAEF14F018
:1029A6001150D96EDA6ADECFD7F0DDCFD8F012003B
:1029B600116E1104D8A4E2EF14F0E4EF14F0E8EF7E
:1029C60014F022EC15F0EAEF14F025EC15F0010EE8
:1029D60012006E0E066E7DEC12F00B0E0A6E260EBF
:1029E600096E5E0EE82EFED7092EFCD70A2EFAD700
:1029F6001200BA0E146E67EC13F06C0E186E8DECA6
:102A060013F0010E1200010E1E6E6E0E196E3AECD8
:102A160012F01E161E50120006EC15F06A16FCEC9B
:102A260014F06A166A501200040E016E000EF6ECDF
:0D2A360013F01200010101010101D8290275
:102A4400F28EF28C1200F29EF29C1200F2901200AE
:102A5400F2901200F2901200F2901200F290120022
:082A6400F2901200F292120040
:020000040020DA
:08000000FFFFFFFFFFFFFFFF00
:020000040030CA
:0E000000FF02091EFF8181FF0FC00FE00F40BD
:00000001FF
